Archive member included to satisfy reference by file (symbol)

c:/program files (x86)/atmel/studio/7.0/toolchain/arm/arm-gnu-toolchain/bin/../lib/gcc/arm-none-eabi/6.3.1/../../../../arm-none-eabi/lib/thumb/v7e-m\libc.a(lib_a-atoi.o)
                              src/apparent.o (atoi)
c:/program files (x86)/atmel/studio/7.0/toolchain/arm/arm-gnu-toolchain/bin/../lib/gcc/arm-none-eabi/6.3.1/../../../../arm-none-eabi/lib/thumb/v7e-m\libc.a(lib_a-exit.o)
                              c:/program files (x86)/atmel/studio/7.0/toolchain/arm/arm-gnu-toolchain/bin/../lib/gcc/arm-none-eabi/6.3.1/../../../../arm-none-eabi/lib/thumb/v7e-m/crt0.o (exit)
c:/program files (x86)/atmel/studio/7.0/toolchain/arm/arm-gnu-toolchain/bin/../lib/gcc/arm-none-eabi/6.3.1/../../../../arm-none-eabi/lib/thumb/v7e-m\libc.a(lib_a-impure.o)
                              c:/program files (x86)/atmel/studio/7.0/toolchain/arm/arm-gnu-toolchain/bin/../lib/gcc/arm-none-eabi/6.3.1/../../../../arm-none-eabi/lib/thumb/v7e-m\libc.a(lib_a-exit.o) (_global_impure_ptr)
c:/program files (x86)/atmel/studio/7.0/toolchain/arm/arm-gnu-toolchain/bin/../lib/gcc/arm-none-eabi/6.3.1/../../../../arm-none-eabi/lib/thumb/v7e-m\libc.a(lib_a-init.o)
                              c:/program files (x86)/atmel/studio/7.0/toolchain/arm/arm-gnu-toolchain/bin/../lib/gcc/arm-none-eabi/6.3.1/../../../../arm-none-eabi/lib/thumb/v7e-m/crt0.o (__libc_init_array)
c:/program files (x86)/atmel/studio/7.0/toolchain/arm/arm-gnu-toolchain/bin/../lib/gcc/arm-none-eabi/6.3.1/../../../../arm-none-eabi/lib/thumb/v7e-m\libc.a(lib_a-iprintf.o)
                              src/amu_common/flashinator.o (iprintf)
c:/program files (x86)/atmel/studio/7.0/toolchain/arm/arm-gnu-toolchain/bin/../lib/gcc/arm-none-eabi/6.3.1/../../../../arm-none-eabi/lib/thumb/v7e-m\libc.a(lib_a-memcmp.o)
                              src/amu_common/flashinator.o (memcmp)
c:/program files (x86)/atmel/studio/7.0/toolchain/arm/arm-gnu-toolchain/bin/../lib/gcc/arm-none-eabi/6.3.1/../../../../arm-none-eabi/lib/thumb/v7e-m\libc.a(lib_a-memcpy.o)
                              src/apparent.o (memcpy)
c:/program files (x86)/atmel/studio/7.0/toolchain/arm/arm-gnu-toolchain/bin/../lib/gcc/arm-none-eabi/6.3.1/../../../../arm-none-eabi/lib/thumb/v7e-m\libc.a(lib_a-memset.o)
                              c:/program files (x86)/atmel/studio/7.0/toolchain/arm/arm-gnu-toolchain/bin/../lib/gcc/arm-none-eabi/6.3.1/../../../../arm-none-eabi/lib/thumb/v7e-m/crt0.o (memset)
c:/program files (x86)/atmel/studio/7.0/toolchain/arm/arm-gnu-toolchain/bin/../lib/gcc/arm-none-eabi/6.3.1/../../../../arm-none-eabi/lib/thumb/v7e-m\libc.a(lib_a-setbuf.o)
                              src/main.o (setbuf)
c:/program files (x86)/atmel/studio/7.0/toolchain/arm/arm-gnu-toolchain/bin/../lib/gcc/arm-none-eabi/6.3.1/../../../../arm-none-eabi/lib/thumb/v7e-m\libc.a(lib_a-setvbuf.o)
                              c:/program files (x86)/atmel/studio/7.0/toolchain/arm/arm-gnu-toolchain/bin/../lib/gcc/arm-none-eabi/6.3.1/../../../../arm-none-eabi/lib/thumb/v7e-m\libc.a(lib_a-setbuf.o) (setvbuf)
c:/program files (x86)/atmel/studio/7.0/toolchain/arm/arm-gnu-toolchain/bin/../lib/gcc/arm-none-eabi/6.3.1/../../../../arm-none-eabi/lib/thumb/v7e-m\libc.a(lib_a-sprintf.o)
                              src/amu_common/flashinator.o (sprintf)
c:/program files (x86)/atmel/studio/7.0/toolchain/arm/arm-gnu-toolchain/bin/../lib/gcc/arm-none-eabi/6.3.1/../../../../arm-none-eabi/lib/thumb/v7e-m\libc.a(lib_a-strcpy.o)
                              src/amu_common/flashinator.o (strcpy)
c:/program files (x86)/atmel/studio/7.0/toolchain/arm/arm-gnu-toolchain/bin/../lib/gcc/arm-none-eabi/6.3.1/../../../../arm-none-eabi/lib/thumb/v7e-m\libc.a(lib_a-strlen.o)
                              src/amu_common/flashinator.o (strlen)
c:/program files (x86)/atmel/studio/7.0/toolchain/arm/arm-gnu-toolchain/bin/../lib/gcc/arm-none-eabi/6.3.1/../../../../arm-none-eabi/lib/thumb/v7e-m\libc.a(lib_a-strncmp.o)
                              src/apparent.o (strncmp)
c:/program files (x86)/atmel/studio/7.0/toolchain/arm/arm-gnu-toolchain/bin/../lib/gcc/arm-none-eabi/6.3.1/../../../../arm-none-eabi/lib/thumb/v7e-m\libc.a(lib_a-strtol.o)
                              c:/program files (x86)/atmel/studio/7.0/toolchain/arm/arm-gnu-toolchain/bin/../lib/gcc/arm-none-eabi/6.3.1/../../../../arm-none-eabi/lib/thumb/v7e-m\libc.a(lib_a-atoi.o) (_strtol_r)
c:/program files (x86)/atmel/studio/7.0/toolchain/arm/arm-gnu-toolchain/bin/../lib/gcc/arm-none-eabi/6.3.1/../../../../arm-none-eabi/lib/thumb/v7e-m\libc.a(lib_a-svfprintf.o)
                              c:/program files (x86)/atmel/studio/7.0/toolchain/arm/arm-gnu-toolchain/bin/../lib/gcc/arm-none-eabi/6.3.1/../../../../arm-none-eabi/lib/thumb/v7e-m\libc.a(lib_a-sprintf.o) (_svfprintf_r)
c:/program files (x86)/atmel/studio/7.0/toolchain/arm/arm-gnu-toolchain/bin/../lib/gcc/arm-none-eabi/6.3.1/../../../../arm-none-eabi/lib/thumb/v7e-m\libc.a(lib_a-vfiprintf.o)
                              c:/program files (x86)/atmel/studio/7.0/toolchain/arm/arm-gnu-toolchain/bin/../lib/gcc/arm-none-eabi/6.3.1/../../../../arm-none-eabi/lib/thumb/v7e-m\libc.a(lib_a-iprintf.o) (_vfiprintf_r)
c:/program files (x86)/atmel/studio/7.0/toolchain/arm/arm-gnu-toolchain/bin/../lib/gcc/arm-none-eabi/6.3.1/../../../../arm-none-eabi/lib/thumb/v7e-m\libc.a(lib_a-wsetup.o)
                              c:/program files (x86)/atmel/studio/7.0/toolchain/arm/arm-gnu-toolchain/bin/../lib/gcc/arm-none-eabi/6.3.1/../../../../arm-none-eabi/lib/thumb/v7e-m\libc.a(lib_a-vfiprintf.o) (__swsetup_r)
c:/program files (x86)/atmel/studio/7.0/toolchain/arm/arm-gnu-toolchain/bin/../lib/gcc/arm-none-eabi/6.3.1/../../../../arm-none-eabi/lib/thumb/v7e-m\libc.a(lib_a-__call_atexit.o)
                              c:/program files (x86)/atmel/studio/7.0/toolchain/arm/arm-gnu-toolchain/bin/../lib/gcc/arm-none-eabi/6.3.1/../../../../arm-none-eabi/lib/thumb/v7e-m\libc.a(lib_a-exit.o) (__call_exitprocs)
c:/program files (x86)/atmel/studio/7.0/toolchain/arm/arm-gnu-toolchain/bin/../lib/gcc/arm-none-eabi/6.3.1/../../../../arm-none-eabi/lib/thumb/v7e-m\libc.a(lib_a-atexit.o)
                              c:/program files (x86)/atmel/studio/7.0/toolchain/arm/arm-gnu-toolchain/bin/../lib/gcc/arm-none-eabi/6.3.1/../../../../arm-none-eabi/lib/thumb/v7e-m\libc.a(lib_a-__call_atexit.o) (atexit)
c:/program files (x86)/atmel/studio/7.0/toolchain/arm/arm-gnu-toolchain/bin/../lib/gcc/arm-none-eabi/6.3.1/../../../../arm-none-eabi/lib/thumb/v7e-m\libc.a(lib_a-dtoa.o)
                              c:/program files (x86)/atmel/studio/7.0/toolchain/arm/arm-gnu-toolchain/bin/../lib/gcc/arm-none-eabi/6.3.1/../../../../arm-none-eabi/lib/thumb/v7e-m\libc.a(lib_a-svfprintf.o) (_dtoa_r)
c:/program files (x86)/atmel/studio/7.0/toolchain/arm/arm-gnu-toolchain/bin/../lib/gcc/arm-none-eabi/6.3.1/../../../../arm-none-eabi/lib/thumb/v7e-m\libc.a(lib_a-fflush.o)
                              c:/program files (x86)/atmel/studio/7.0/toolchain/arm/arm-gnu-toolchain/bin/../lib/gcc/arm-none-eabi/6.3.1/../../../../arm-none-eabi/lib/thumb/v7e-m\libc.a(lib_a-setvbuf.o) (_fflush_r)
c:/program files (x86)/atmel/studio/7.0/toolchain/arm/arm-gnu-toolchain/bin/../lib/gcc/arm-none-eabi/6.3.1/../../../../arm-none-eabi/lib/thumb/v7e-m\libc.a(lib_a-findfp.o)
                              c:/program files (x86)/atmel/studio/7.0/toolchain/arm/arm-gnu-toolchain/bin/../lib/gcc/arm-none-eabi/6.3.1/../../../../arm-none-eabi/lib/thumb/v7e-m\libc.a(lib_a-setvbuf.o) (__sinit)
c:/program files (x86)/atmel/studio/7.0/toolchain/arm/arm-gnu-toolchain/bin/../lib/gcc/arm-none-eabi/6.3.1/../../../../arm-none-eabi/lib/thumb/v7e-m\libc.a(lib_a-fini.o)
                              c:/program files (x86)/atmel/studio/7.0/toolchain/arm/arm-gnu-toolchain/bin/../lib/gcc/arm-none-eabi/6.3.1/../../../../arm-none-eabi/lib/thumb/v7e-m\libc.a(lib_a-__call_atexit.o) (__libc_fini_array)
c:/program files (x86)/atmel/studio/7.0/toolchain/arm/arm-gnu-toolchain/bin/../lib/gcc/arm-none-eabi/6.3.1/../../../../arm-none-eabi/lib/thumb/v7e-m\libc.a(lib_a-fputwc.o)
                              c:/program files (x86)/atmel/studio/7.0/toolchain/arm/arm-gnu-toolchain/bin/../lib/gcc/arm-none-eabi/6.3.1/../../../../arm-none-eabi/lib/thumb/v7e-m\libc.a(lib_a-vfiprintf.o) (_fputwc_r)
c:/program files (x86)/atmel/studio/7.0/toolchain/arm/arm-gnu-toolchain/bin/../lib/gcc/arm-none-eabi/6.3.1/../../../../arm-none-eabi/lib/thumb/v7e-m\libc.a(lib_a-freer.o)
                              c:/program files (x86)/atmel/studio/7.0/toolchain/arm/arm-gnu-toolchain/bin/../lib/gcc/arm-none-eabi/6.3.1/../../../../arm-none-eabi/lib/thumb/v7e-m\libc.a(lib_a-setvbuf.o) (_free_r)
c:/program files (x86)/atmel/studio/7.0/toolchain/arm/arm-gnu-toolchain/bin/../lib/gcc/arm-none-eabi/6.3.1/../../../../arm-none-eabi/lib/thumb/v7e-m\libc.a(lib_a-fvwrite.o)
                              c:/program files (x86)/atmel/studio/7.0/toolchain/arm/arm-gnu-toolchain/bin/../lib/gcc/arm-none-eabi/6.3.1/../../../../arm-none-eabi/lib/thumb/v7e-m\libc.a(lib_a-vfiprintf.o) (__sfvwrite_r)
c:/program files (x86)/atmel/studio/7.0/toolchain/arm/arm-gnu-toolchain/bin/../lib/gcc/arm-none-eabi/6.3.1/../../../../arm-none-eabi/lib/thumb/v7e-m\libc.a(lib_a-fwalk.o)
                              c:/program files (x86)/atmel/studio/7.0/toolchain/arm/arm-gnu-toolchain/bin/../lib/gcc/arm-none-eabi/6.3.1/../../../../arm-none-eabi/lib/thumb/v7e-m\libc.a(lib_a-findfp.o) (_fwalk)
c:/program files (x86)/atmel/studio/7.0/toolchain/arm/arm-gnu-toolchain/bin/../lib/gcc/arm-none-eabi/6.3.1/../../../../arm-none-eabi/lib/thumb/v7e-m\libc.a(lib_a-locale.o)
                              c:/program files (x86)/atmel/studio/7.0/toolchain/arm/arm-gnu-toolchain/bin/../lib/gcc/arm-none-eabi/6.3.1/../../../../arm-none-eabi/lib/thumb/v7e-m\libc.a(lib_a-fputwc.o) (__locale_mb_cur_max)
c:/program files (x86)/atmel/studio/7.0/toolchain/arm/arm-gnu-toolchain/bin/../lib/gcc/arm-none-eabi/6.3.1/../../../../arm-none-eabi/lib/thumb/v7e-m\libc.a(lib_a-localeconv.o)
                              c:/program files (x86)/atmel/studio/7.0/toolchain/arm/arm-gnu-toolchain/bin/../lib/gcc/arm-none-eabi/6.3.1/../../../../arm-none-eabi/lib/thumb/v7e-m\libc.a(lib_a-svfprintf.o) (_localeconv_r)
c:/program files (x86)/atmel/studio/7.0/toolchain/arm/arm-gnu-toolchain/bin/../lib/gcc/arm-none-eabi/6.3.1/../../../../arm-none-eabi/lib/thumb/v7e-m\libc.a(lib_a-lock.o)
                              c:/program files (x86)/atmel/studio/7.0/toolchain/arm/arm-gnu-toolchain/bin/../lib/gcc/arm-none-eabi/6.3.1/../../../../arm-none-eabi/lib/thumb/v7e-m\libc.a(lib_a-vfiprintf.o) (__retarget_lock_init_recursive)
c:/program files (x86)/atmel/studio/7.0/toolchain/arm/arm-gnu-toolchain/bin/../lib/gcc/arm-none-eabi/6.3.1/../../../../arm-none-eabi/lib/thumb/v7e-m\libc.a(lib_a-makebuf.o)
                              c:/program files (x86)/atmel/studio/7.0/toolchain/arm/arm-gnu-toolchain/bin/../lib/gcc/arm-none-eabi/6.3.1/../../../../arm-none-eabi/lib/thumb/v7e-m\libc.a(lib_a-setvbuf.o) (__swhatbuf_r)
c:/program files (x86)/atmel/studio/7.0/toolchain/arm/arm-gnu-toolchain/bin/../lib/gcc/arm-none-eabi/6.3.1/../../../../arm-none-eabi/lib/thumb/v7e-m\libc.a(lib_a-malloc.o)
                              c:/program files (x86)/atmel/studio/7.0/toolchain/arm/arm-gnu-toolchain/bin/../lib/gcc/arm-none-eabi/6.3.1/../../../../arm-none-eabi/lib/thumb/v7e-m\libc.a(lib_a-setvbuf.o) (malloc)
c:/program files (x86)/atmel/studio/7.0/toolchain/arm/arm-gnu-toolchain/bin/../lib/gcc/arm-none-eabi/6.3.1/../../../../arm-none-eabi/lib/thumb/v7e-m\libc.a(lib_a-mallocr.o)
                              c:/program files (x86)/atmel/studio/7.0/toolchain/arm/arm-gnu-toolchain/bin/../lib/gcc/arm-none-eabi/6.3.1/../../../../arm-none-eabi/lib/thumb/v7e-m\libc.a(lib_a-svfprintf.o) (_malloc_r)
c:/program files (x86)/atmel/studio/7.0/toolchain/arm/arm-gnu-toolchain/bin/../lib/gcc/arm-none-eabi/6.3.1/../../../../arm-none-eabi/lib/thumb/v7e-m\libc.a(lib_a-mbtowc_r.o)
                              c:/program files (x86)/atmel/studio/7.0/toolchain/arm/arm-gnu-toolchain/bin/../lib/gcc/arm-none-eabi/6.3.1/../../../../arm-none-eabi/lib/thumb/v7e-m\libc.a(lib_a-locale.o) (__ascii_mbtowc)
c:/program files (x86)/atmel/studio/7.0/toolchain/arm/arm-gnu-toolchain/bin/../lib/gcc/arm-none-eabi/6.3.1/../../../../arm-none-eabi/lib/thumb/v7e-m\libc.a(lib_a-memchr.o)
                              c:/program files (x86)/atmel/studio/7.0/toolchain/arm/arm-gnu-toolchain/bin/../lib/gcc/arm-none-eabi/6.3.1/../../../../arm-none-eabi/lib/thumb/v7e-m\libc.a(lib_a-svfprintf.o) (memchr)
c:/program files (x86)/atmel/studio/7.0/toolchain/arm/arm-gnu-toolchain/bin/../lib/gcc/arm-none-eabi/6.3.1/../../../../arm-none-eabi/lib/thumb/v7e-m\libc.a(lib_a-memmove.o)
                              c:/program files (x86)/atmel/studio/7.0/toolchain/arm/arm-gnu-toolchain/bin/../lib/gcc/arm-none-eabi/6.3.1/../../../../arm-none-eabi/lib/thumb/v7e-m\libc.a(lib_a-fvwrite.o) (memmove)
c:/program files (x86)/atmel/studio/7.0/toolchain/arm/arm-gnu-toolchain/bin/../lib/gcc/arm-none-eabi/6.3.1/../../../../arm-none-eabi/lib/thumb/v7e-m\libc.a(lib_a-mlock.o)
                              c:/program files (x86)/atmel/studio/7.0/toolchain/arm/arm-gnu-toolchain/bin/../lib/gcc/arm-none-eabi/6.3.1/../../../../arm-none-eabi/lib/thumb/v7e-m\libc.a(lib_a-freer.o) (__malloc_lock)
c:/program files (x86)/atmel/studio/7.0/toolchain/arm/arm-gnu-toolchain/bin/../lib/gcc/arm-none-eabi/6.3.1/../../../../arm-none-eabi/lib/thumb/v7e-m\libc.a(lib_a-mprec.o)
                              c:/program files (x86)/atmel/studio/7.0/toolchain/arm/arm-gnu-toolchain/bin/../lib/gcc/arm-none-eabi/6.3.1/../../../../arm-none-eabi/lib/thumb/v7e-m\libc.a(lib_a-dtoa.o) (_Balloc)
c:/program files (x86)/atmel/studio/7.0/toolchain/arm/arm-gnu-toolchain/bin/../lib/gcc/arm-none-eabi/6.3.1/../../../../arm-none-eabi/lib/thumb/v7e-m\libc.a(lib_a-reallocr.o)
                              c:/program files (x86)/atmel/studio/7.0/toolchain/arm/arm-gnu-toolchain/bin/../lib/gcc/arm-none-eabi/6.3.1/../../../../arm-none-eabi/lib/thumb/v7e-m\libc.a(lib_a-fvwrite.o) (_realloc_r)
c:/program files (x86)/atmel/studio/7.0/toolchain/arm/arm-gnu-toolchain/bin/../lib/gcc/arm-none-eabi/6.3.1/../../../../arm-none-eabi/lib/thumb/v7e-m\libc.a(lib_a-sbrkr.o)
                              c:/program files (x86)/atmel/studio/7.0/toolchain/arm/arm-gnu-toolchain/bin/../lib/gcc/arm-none-eabi/6.3.1/../../../../arm-none-eabi/lib/thumb/v7e-m\libc.a(lib_a-freer.o) (_sbrk_r)
c:/program files (x86)/atmel/studio/7.0/toolchain/arm/arm-gnu-toolchain/bin/../lib/gcc/arm-none-eabi/6.3.1/../../../../arm-none-eabi/lib/thumb/v7e-m\libc.a(lib_a-stdio.o)
                              c:/program files (x86)/atmel/studio/7.0/toolchain/arm/arm-gnu-toolchain/bin/../lib/gcc/arm-none-eabi/6.3.1/../../../../arm-none-eabi/lib/thumb/v7e-m\libc.a(lib_a-findfp.o) (__sread)
c:/program files (x86)/atmel/studio/7.0/toolchain/arm/arm-gnu-toolchain/bin/../lib/gcc/arm-none-eabi/6.3.1/../../../../arm-none-eabi/lib/thumb/v7e-m\libc.a(lib_a-strcmp.o)
                              c:/program files (x86)/atmel/studio/7.0/toolchain/arm/arm-gnu-toolchain/bin/../lib/gcc/arm-none-eabi/6.3.1/../../../../arm-none-eabi/lib/thumb/v7e-m\libc.a(lib_a-locale.o) (strcmp)
c:/program files (x86)/atmel/studio/7.0/toolchain/arm/arm-gnu-toolchain/bin/../lib/gcc/arm-none-eabi/6.3.1/../../../../arm-none-eabi/lib/thumb/v7e-m\libc.a(lib_a-svfiprintf.o)
                              c:/program files (x86)/atmel/studio/7.0/toolchain/arm/arm-gnu-toolchain/bin/../lib/gcc/arm-none-eabi/6.3.1/../../../../arm-none-eabi/lib/thumb/v7e-m\libc.a(lib_a-svfprintf.o) (__ssprint_r)
c:/program files (x86)/atmel/studio/7.0/toolchain/arm/arm-gnu-toolchain/bin/../lib/gcc/arm-none-eabi/6.3.1/../../../../arm-none-eabi/lib/thumb/v7e-m\libc.a(lib_a-wbuf.o)
                              c:/program files (x86)/atmel/studio/7.0/toolchain/arm/arm-gnu-toolchain/bin/../lib/gcc/arm-none-eabi/6.3.1/../../../../arm-none-eabi/lib/thumb/v7e-m\libc.a(lib_a-fputwc.o) (__swbuf_r)
c:/program files (x86)/atmel/studio/7.0/toolchain/arm/arm-gnu-toolchain/bin/../lib/gcc/arm-none-eabi/6.3.1/../../../../arm-none-eabi/lib/thumb/v7e-m\libc.a(lib_a-wcrtomb.o)
                              c:/program files (x86)/atmel/studio/7.0/toolchain/arm/arm-gnu-toolchain/bin/../lib/gcc/arm-none-eabi/6.3.1/../../../../arm-none-eabi/lib/thumb/v7e-m\libc.a(lib_a-fputwc.o) (_wcrtomb_r)
c:/program files (x86)/atmel/studio/7.0/toolchain/arm/arm-gnu-toolchain/bin/../lib/gcc/arm-none-eabi/6.3.1/../../../../arm-none-eabi/lib/thumb/v7e-m\libc.a(lib_a-wctomb_r.o)
                              c:/program files (x86)/atmel/studio/7.0/toolchain/arm/arm-gnu-toolchain/bin/../lib/gcc/arm-none-eabi/6.3.1/../../../../arm-none-eabi/lib/thumb/v7e-m\libc.a(lib_a-locale.o) (__ascii_wctomb)
c:/program files (x86)/atmel/studio/7.0/toolchain/arm/arm-gnu-toolchain/bin/../lib/gcc/arm-none-eabi/6.3.1/../../../../arm-none-eabi/lib/thumb/v7e-m\libc.a(lib_a-writer.o)
                              c:/program files (x86)/atmel/studio/7.0/toolchain/arm/arm-gnu-toolchain/bin/../lib/gcc/arm-none-eabi/6.3.1/../../../../arm-none-eabi/lib/thumb/v7e-m\libc.a(lib_a-stdio.o) (_write_r)
c:/program files (x86)/atmel/studio/7.0/toolchain/arm/arm-gnu-toolchain/bin/../lib/gcc/arm-none-eabi/6.3.1/../../../../arm-none-eabi/lib/thumb/v7e-m\libc.a(lib_a-__atexit.o)
                              c:/program files (x86)/atmel/studio/7.0/toolchain/arm/arm-gnu-toolchain/bin/../lib/gcc/arm-none-eabi/6.3.1/../../../../arm-none-eabi/lib/thumb/v7e-m\libc.a(lib_a-atexit.o) (__register_exitproc)
c:/program files (x86)/atmel/studio/7.0/toolchain/arm/arm-gnu-toolchain/bin/../lib/gcc/arm-none-eabi/6.3.1/../../../../arm-none-eabi/lib/thumb/v7e-m\libc.a(lib_a-callocr.o)
                              c:/program files (x86)/atmel/studio/7.0/toolchain/arm/arm-gnu-toolchain/bin/../lib/gcc/arm-none-eabi/6.3.1/../../../../arm-none-eabi/lib/thumb/v7e-m\libc.a(lib_a-mprec.o) (_calloc_r)
c:/program files (x86)/atmel/studio/7.0/toolchain/arm/arm-gnu-toolchain/bin/../lib/gcc/arm-none-eabi/6.3.1/../../../../arm-none-eabi/lib/thumb/v7e-m\libc.a(lib_a-closer.o)
                              c:/program files (x86)/atmel/studio/7.0/toolchain/arm/arm-gnu-toolchain/bin/../lib/gcc/arm-none-eabi/6.3.1/../../../../arm-none-eabi/lib/thumb/v7e-m\libc.a(lib_a-stdio.o) (_close_r)
c:/program files (x86)/atmel/studio/7.0/toolchain/arm/arm-gnu-toolchain/bin/../lib/gcc/arm-none-eabi/6.3.1/../../../../arm-none-eabi/lib/thumb/v7e-m\libc.a(lib_a-ctype_.o)
                              c:/program files (x86)/atmel/studio/7.0/toolchain/arm/arm-gnu-toolchain/bin/../lib/gcc/arm-none-eabi/6.3.1/../../../../arm-none-eabi/lib/thumb/v7e-m\libc.a(lib_a-locale.o) (_ctype_)
c:/program files (x86)/atmel/studio/7.0/toolchain/arm/arm-gnu-toolchain/bin/../lib/gcc/arm-none-eabi/6.3.1/../../../../arm-none-eabi/lib/thumb/v7e-m\libc.a(lib_a-fclose.o)
                              c:/program files (x86)/atmel/studio/7.0/toolchain/arm/arm-gnu-toolchain/bin/../lib/gcc/arm-none-eabi/6.3.1/../../../../arm-none-eabi/lib/thumb/v7e-m\libc.a(lib_a-findfp.o) (_fclose_r)
c:/program files (x86)/atmel/studio/7.0/toolchain/arm/arm-gnu-toolchain/bin/../lib/gcc/arm-none-eabi/6.3.1/../../../../arm-none-eabi/lib/thumb/v7e-m\libc.a(lib_a-fstatr.o)
                              c:/program files (x86)/atmel/studio/7.0/toolchain/arm/arm-gnu-toolchain/bin/../lib/gcc/arm-none-eabi/6.3.1/../../../../arm-none-eabi/lib/thumb/v7e-m\libc.a(lib_a-makebuf.o) (_fstat_r)
c:/program files (x86)/atmel/studio/7.0/toolchain/arm/arm-gnu-toolchain/bin/../lib/gcc/arm-none-eabi/6.3.1/../../../../arm-none-eabi/lib/thumb/v7e-m\libc.a(lib_a-isattyr.o)
                              c:/program files (x86)/atmel/studio/7.0/toolchain/arm/arm-gnu-toolchain/bin/../lib/gcc/arm-none-eabi/6.3.1/../../../../arm-none-eabi/lib/thumb/v7e-m\libc.a(lib_a-makebuf.o) (_isatty_r)
c:/program files (x86)/atmel/studio/7.0/toolchain/arm/arm-gnu-toolchain/bin/../lib/gcc/arm-none-eabi/6.3.1/../../../../arm-none-eabi/lib/thumb/v7e-m\libc.a(lib_a-lseekr.o)
                              c:/program files (x86)/atmel/studio/7.0/toolchain/arm/arm-gnu-toolchain/bin/../lib/gcc/arm-none-eabi/6.3.1/../../../../arm-none-eabi/lib/thumb/v7e-m\libc.a(lib_a-stdio.o) (_lseek_r)
c:/program files (x86)/atmel/studio/7.0/toolchain/arm/arm-gnu-toolchain/bin/../lib/gcc/arm-none-eabi/6.3.1/../../../../arm-none-eabi/lib/thumb/v7e-m\libc.a(lib_a-readr.o)
                              c:/program files (x86)/atmel/studio/7.0/toolchain/arm/arm-gnu-toolchain/bin/../lib/gcc/arm-none-eabi/6.3.1/../../../../arm-none-eabi/lib/thumb/v7e-m\libc.a(lib_a-stdio.o) (_read_r)
c:/program files (x86)/atmel/studio/7.0/toolchain/arm/arm-gnu-toolchain/bin/../lib/gcc/arm-none-eabi/6.3.1/../../../../arm-none-eabi/lib/thumb/v7e-m\libc.a(lib_a-reent.o)
                              c:/program files (x86)/atmel/studio/7.0/toolchain/arm/arm-gnu-toolchain/bin/../lib/gcc/arm-none-eabi/6.3.1/../../../../arm-none-eabi/lib/thumb/v7e-m\libc.a(lib_a-sbrkr.o) (errno)
c:/program files (x86)/atmel/studio/7.0/toolchain/arm/arm-gnu-toolchain/bin/../lib/gcc/arm-none-eabi/6.3.1/thumb/v7e-m\libgcc.a(_arm_addsubdf3.o)
                              c:/program files (x86)/atmel/studio/7.0/toolchain/arm/arm-gnu-toolchain/bin/../lib/gcc/arm-none-eabi/6.3.1/../../../../arm-none-eabi/lib/thumb/v7e-m\libc.a(lib_a-dtoa.o) (__aeabi_dsub)
c:/program files (x86)/atmel/studio/7.0/toolchain/arm/arm-gnu-toolchain/bin/../lib/gcc/arm-none-eabi/6.3.1/thumb/v7e-m\libgcc.a(_arm_muldivdf3.o)
                              c:/program files (x86)/atmel/studio/7.0/toolchain/arm/arm-gnu-toolchain/bin/../lib/gcc/arm-none-eabi/6.3.1/../../../../arm-none-eabi/lib/thumb/v7e-m\libc.a(lib_a-dtoa.o) (__aeabi_dmul)
c:/program files (x86)/atmel/studio/7.0/toolchain/arm/arm-gnu-toolchain/bin/../lib/gcc/arm-none-eabi/6.3.1/thumb/v7e-m\libgcc.a(_arm_cmpdf2.o)
                              c:/program files (x86)/atmel/studio/7.0/toolchain/arm/arm-gnu-toolchain/bin/../lib/gcc/arm-none-eabi/6.3.1/../../../../arm-none-eabi/lib/thumb/v7e-m\libc.a(lib_a-svfprintf.o) (__aeabi_dcmpeq)
c:/program files (x86)/atmel/studio/7.0/toolchain/arm/arm-gnu-toolchain/bin/../lib/gcc/arm-none-eabi/6.3.1/thumb/v7e-m\libgcc.a(_arm_unorddf2.o)
                              c:/program files (x86)/atmel/studio/7.0/toolchain/arm/arm-gnu-toolchain/bin/../lib/gcc/arm-none-eabi/6.3.1/../../../../arm-none-eabi/lib/thumb/v7e-m\libc.a(lib_a-svfprintf.o) (__aeabi_dcmpun)
c:/program files (x86)/atmel/studio/7.0/toolchain/arm/arm-gnu-toolchain/bin/../lib/gcc/arm-none-eabi/6.3.1/thumb/v7e-m\libgcc.a(_arm_fixdfsi.o)
                              c:/program files (x86)/atmel/studio/7.0/toolchain/arm/arm-gnu-toolchain/bin/../lib/gcc/arm-none-eabi/6.3.1/../../../../arm-none-eabi/lib/thumb/v7e-m\libc.a(lib_a-dtoa.o) (__aeabi_d2iz)
c:/program files (x86)/atmel/studio/7.0/toolchain/arm/arm-gnu-toolchain/bin/../lib/gcc/arm-none-eabi/6.3.1/thumb/v7e-m\libgcc.a(_aeabi_uldivmod.o)
                              c:/program files (x86)/atmel/studio/7.0/toolchain/arm/arm-gnu-toolchain/bin/../lib/gcc/arm-none-eabi/6.3.1/../../../../arm-none-eabi/lib/thumb/v7e-m\libc.a(lib_a-svfprintf.o) (__aeabi_uldivmod)
c:/program files (x86)/atmel/studio/7.0/toolchain/arm/arm-gnu-toolchain/bin/../lib/gcc/arm-none-eabi/6.3.1/thumb/v7e-m\libgcc.a(_udivmoddi4.o)
                              c:/program files (x86)/atmel/studio/7.0/toolchain/arm/arm-gnu-toolchain/bin/../lib/gcc/arm-none-eabi/6.3.1/thumb/v7e-m\libgcc.a(_aeabi_uldivmod.o) (__udivmoddi4)
c:/program files (x86)/atmel/studio/7.0/toolchain/arm/arm-gnu-toolchain/bin/../lib/gcc/arm-none-eabi/6.3.1/thumb/v7e-m\libgcc.a(_dvmd_tls.o)
                              c:/program files (x86)/atmel/studio/7.0/toolchain/arm/arm-gnu-toolchain/bin/../lib/gcc/arm-none-eabi/6.3.1/thumb/v7e-m\libgcc.a(_aeabi_uldivmod.o) (__aeabi_ldiv0)

Allocating common symbols
Common symbol       size              file

same70ResetInfoDb   0xc               src/apparent.o
__lock___atexit_recursive_mutex
                    0x1               c:/program files (x86)/atmel/studio/7.0/toolchain/arm/arm-gnu-toolchain/bin/../lib/gcc/arm-none-eabi/6.3.1/../../../../arm-none-eabi/lib/thumb/v7e-m\libc.a(lib_a-lock.o)
__lock___arc4random_mutex
                    0x1               c:/program files (x86)/atmel/studio/7.0/toolchain/arm/arm-gnu-toolchain/bin/../lib/gcc/arm-none-eabi/6.3.1/../../../../arm-none-eabi/lib/thumb/v7e-m\libc.a(lib_a-lock.o)
debugDropTheNextOutgoingPacketAck
                    0x1               src/amu_common/flashinator.o
errno               0x4               c:/program files (x86)/atmel/studio/7.0/toolchain/arm/arm-gnu-toolchain/bin/../lib/gcc/arm-none-eabi/6.3.1/../../../../arm-none-eabi/lib/thumb/v7e-m\libc.a(lib_a-reent.o)
amuOutputChecksum   0x4               src/apparent.o
craftInputReady     0x1               src/apparent.o
ptr_get             0x4               src/ASF/common/utils/stdio/read.o
__lock___env_recursive_mutex
                    0x1               c:/program files (x86)/atmel/studio/7.0/toolchain/arm/arm-gnu-toolchain/bin/../lib/gcc/arm-none-eabi/6.3.1/../../../../arm-none-eabi/lib/thumb/v7e-m\libc.a(lib_a-lock.o)
__lock___sinit_recursive_mutex
                    0x1               c:/program files (x86)/atmel/studio/7.0/toolchain/arm/arm-gnu-toolchain/bin/../lib/gcc/arm-none-eabi/6.3.1/../../../../arm-none-eabi/lib/thumb/v7e-m\libc.a(lib_a-lock.o)
charsWrittenByInterrupt
                    0x2               src/apparent.o
ptr_put             0x4               src/ASF/common/utils/stdio/write.o
inputActivelyProcessed
                    0x1               src/apparent.o
debugDropTheNextIncomingDataPacket
                    0x1               src/amu_common/flashinator.o
__lock___malloc_recursive_mutex
                    0x1               c:/program files (x86)/atmel/studio/7.0/toolchain/arm/arm-gnu-toolchain/bin/../lib/gcc/arm-none-eabi/6.3.1/../../../../arm-none-eabi/lib/thumb/v7e-m\libc.a(lib_a-lock.o)
pio_capture_enable_flag
                    0x4               src/ASF/sam/drivers/pio/pio.o
softwareResetTimestamp
                    0x4               src/apparent.o
ledActivityCb       0x8               src/amu_common/rgbLedActivity.o
softwareResetPlease
                    0x1               src/apparent.o
applicationLoadFlashAddress
                    0x4               src/apparent.o
upgradeSmCb         0x180             src/amu_common/flashinator.o
flashHoldingBuffer  0x2000            src/amu_common/flashinator.o
bootloaderFlashSignature
                    0x4               src/apparent.o
debugInfoOutputEnabled
                    0x1               src/amu_common/flashinator.o
stdio_base          0x4               src/ASF/common/utils/stdio/write.o
sbcComInputReady    0x1               src/apparent.o
rgbLedFlashingDemoCb
                    0x14              src/amu_common/rgbLedActivity.o
debugHexRecordOutputEnabled
                    0x1               src/amu_common/flashinator.o
bootloaderLoadFlashAddress
                    0x4               src/apparent.o
lastButtonChangeTimestamp
                    0x4               src/main.o
__lock___at_quick_exit_mutex
                    0x1               c:/program files (x86)/atmel/studio/7.0/toolchain/arm/arm-gnu-toolchain/bin/../lib/gcc/arm-none-eabi/6.3.1/../../../../arm-none-eabi/lib/thumb/v7e-m\libc.a(lib_a-lock.o)
applicationFlashSignature
                    0x4               src/apparent.o
sbcComEchoChar      0x1               src/apparent.o
craftInputBufferRank
                    0x4               src/apparent.o
__lock___dd_hash_mutex
                    0x1               c:/program files (x86)/atmel/studio/7.0/toolchain/arm/arm-gnu-toolchain/bin/../lib/gcc/arm-none-eabi/6.3.1/../../../../arm-none-eabi/lib/thumb/v7e-m\libc.a(lib_a-lock.o)
__lock___tz_mutex   0x1               c:/program files (x86)/atmel/studio/7.0/toolchain/arm/arm-gnu-toolchain/bin/../lib/gcc/arm-none-eabi/6.3.1/../../../../arm-none-eabi/lib/thumb/v7e-m\libc.a(lib_a-lock.o)
totalUartCharsWritten
                    0x2               src/apparent.o
sbcComInputBufferRank
                    0x4               src/apparent.o
pokeWdtTimer        0x4               src/main.o
__lock___sfp_recursive_mutex
                    0x1               c:/program files (x86)/atmel/studio/7.0/toolchain/arm/arm-gnu-toolchain/bin/../lib/gcc/arm-none-eabi/6.3.1/../../../../arm-none-eabi/lib/thumb/v7e-m\libc.a(lib_a-lock.o)

Discarded input sections

 .text          0x00000000        0x0 c:/program files (x86)/atmel/studio/7.0/toolchain/arm/arm-gnu-toolchain/bin/../lib/gcc/arm-none-eabi/6.3.1/thumb/v7e-m/crti.o
 .data          0x00000000        0x0 c:/program files (x86)/atmel/studio/7.0/toolchain/arm/arm-gnu-toolchain/bin/../lib/gcc/arm-none-eabi/6.3.1/thumb/v7e-m/crti.o
 .bss           0x00000000        0x0 c:/program files (x86)/atmel/studio/7.0/toolchain/arm/arm-gnu-toolchain/bin/../lib/gcc/arm-none-eabi/6.3.1/thumb/v7e-m/crti.o
 .data          0x00000000        0x4 c:/program files (x86)/atmel/studio/7.0/toolchain/arm/arm-gnu-toolchain/bin/../lib/gcc/arm-none-eabi/6.3.1/thumb/v7e-m/crtbegin.o
 .text          0x00000000       0x74 c:/program files (x86)/atmel/studio/7.0/toolchain/arm/arm-gnu-toolchain/bin/../lib/gcc/arm-none-eabi/6.3.1/../../../../arm-none-eabi/lib/thumb/v7e-m/crt0.o
 .data          0x00000000        0x0 c:/program files (x86)/atmel/studio/7.0/toolchain/arm/arm-gnu-toolchain/bin/../lib/gcc/arm-none-eabi/6.3.1/../../../../arm-none-eabi/lib/thumb/v7e-m/crt0.o
 .bss           0x00000000        0x0 c:/program files (x86)/atmel/studio/7.0/toolchain/arm/arm-gnu-toolchain/bin/../lib/gcc/arm-none-eabi/6.3.1/../../../../arm-none-eabi/lib/thumb/v7e-m/crt0.o
 .ARM.extab     0x00000000        0x0 c:/program files (x86)/atmel/studio/7.0/toolchain/arm/arm-gnu-toolchain/bin/../lib/gcc/arm-none-eabi/6.3.1/../../../../arm-none-eabi/lib/thumb/v7e-m/crt0.o
 .ARM.exidx     0x00000000        0x8 c:/program files (x86)/atmel/studio/7.0/toolchain/arm/arm-gnu-toolchain/bin/../lib/gcc/arm-none-eabi/6.3.1/../../../../arm-none-eabi/lib/thumb/v7e-m/crt0.o
 .ARM.attributes
                0x00000000       0x1c c:/program files (x86)/atmel/studio/7.0/toolchain/arm/arm-gnu-toolchain/bin/../lib/gcc/arm-none-eabi/6.3.1/../../../../arm-none-eabi/lib/thumb/v7e-m/crt0.o
 .text          0x00000000        0x0 src/amu_common/flashinator.o
 .data          0x00000000        0x0 src/amu_common/flashinator.o
 .bss           0x00000000        0x0 src/amu_common/flashinator.o
 .text.printFlashHoldingBuffer
                0x00000000       0x10 src/amu_common/flashinator.o
 .text.writeFlashHoldingPattern
                0x00000000       0x18 src/amu_common/flashinator.o
Memory Configuration

Name             Origin             Length             Attributes
rom              0x00580000         0x00010000         xr
ram              0x20400000         0x00060000         xrw
*default*        0x00000000         0xffffffff

Linker script and memory map

LOAD c:/program files (x86)/atmel/studio/7.0/toolchain/arm/arm-gnu-toolchain/bin/../lib/gcc/arm-none-eabi/6.3.1/thumb/v7e-m/crti.o
LOAD c:/program files (x86)/atmel/studio/7.0/toolchain/arm/arm-gnu-toolchain/bin/../lib/gcc/arm-none-eabi/6.3.1/thumb/v7e-m/crtbegin.o
LOAD c:/program files (x86)/atmel/studio/7.0/toolchain/arm/arm-gnu-toolchain/bin/../lib/gcc/arm-none-eabi/6.3.1/../../../../arm-none-eabi/lib/thumb/v7e-m/crt0.o
LOAD src/amu_common/flashinator.o
LOAD src/amu_common/rgbLedActivity.o
LOAD src/apparent.o
LOAD src/apparent_strings.o
LOAD src/ASF/common/services/clock/same70/sysclk.o
LOAD src/ASF/common/services/serial/usart_serial.o
LOAD src/ASF/common/utils/interrupt/interrupt_sam_nvic.o
LOAD src/ASF/common/utils/stdio/read.o
LOAD src/ASF/common/utils/stdio/write.o
LOAD src/ASF/sam/boards/same70_xplained/init.o
LOAD src/ASF/sam/drivers/efc/efc.o
LOAD src/ASF/sam/drivers/matrix/matrix.o
LOAD src/ASF/sam/drivers/mpu/mpu.o
LOAD src/ASF/sam/drivers/pio/pio.o
LOAD src/ASF/sam/drivers/pio/pio_handler.o
LOAD src/ASF/sam/drivers/pmc/pmc.o
LOAD src/ASF/sam/drivers/pmc/sleep.o
LOAD src/ASF/sam/drivers/tc/tc.o
LOAD src/ASF/sam/drivers/uart/uart.o
LOAD src/ASF/sam/drivers/usart/usart.o
LOAD src/ASF/sam/flash_efc/flash_efc.o
LOAD src/ASF/sam/utils/cmsis/same70/source/templates/gcc/startup_same70.o
LOAD src/ASF/sam/utils/cmsis/same70/source/templates/system_same70.o
LOAD src/ASF/sam/utils/syscalls/gcc/syscalls.o
LOAD src/main.o
START GROUP
LOAD ../src/ASF/thirdparty/CMSIS/Lib/GCC\libarm_cortexM7lfsp_math_softfp.a
LOAD c:/program files (x86)/atmel/studio/7.0/toolchain/arm/arm-gnu-toolchain/bin/../lib/gcc/arm-none-eabi/6.3.1/../../../../arm-none-eabi/lib/thumb/v7e-m\libm.a
END GROUP
START GROUP
LOAD c:/program files (x86)/atmel/studio/7.0/toolchain/arm/arm-gnu-toolchain/bin/../lib/gcc/arm-none-eabi/6.3.1/thumb/v7e-m\libgcc.a
LOAD c:/program files (x86)/atmel/studio/7.0/toolchain/arm/arm-gnu-toolchain/bin/../lib/gcc/arm-none-eabi/6.3.1/../../../../arm-none-eabi/lib/thumb/v7e-m\libc.a
END GROUP
LOAD c:/program files (x86)/atmel/studio/7.0/toolchain/arm/arm-gnu-toolchain/bin/../lib/gcc/arm-none-eabi/6.3.1/thumb/v7e-m/crtend.o
LOAD c:/program files (x86)/atmel/studio/7.0/toolchain/arm/arm-gnu-toolchain/bin/../lib/gcc/arm-none-eabi/6.3.1/thumb/v7e-m/crtn.o
                0x00002000                STACK_SIZE = DEFINED (STACK_SIZE)?STACK_SIZE:0x2000
                0x2045fffc                __ram_end__ = ((ORIGIN (ram) + LENGTH (ram)) - 0x4)
                0x00000200                HEAP_SIZE = DEFINED (HEAP_SIZE)?HEAP_SIZE:0x200

.text           0x00580000     0xb4e4
                0x00580000                . = ALIGN (0x4)
                0x00580000                _sfixed = .
 *(.vectors .vectors.*)
 .vectors       0x00580000      0x168 src/ASF/sam/utils/cmsis/same70/source/templates/gcc/startup_same70.o
                0x00580000                exception_table
 *(.text .text.* .gnu.linkonce.t.*)
 .text          0x00580168       0x6c c:/program files (x86)/atmel/studio/7.0/toolchain/arm/arm-gnu-toolchain/bin/../lib/gcc/arm-none-eabi/6.3.1/thumb/v7e-m/crtbegin.o
 .text.SCB_DisableICache
                0x005801d4       0x28 src/amu_common/flashinator.o
 .text.SCB_DisableDCache
                0x005801fc       0x60 src/amu_common/flashinator.o
 .text.eraseFlashHoldingBuffer
                0x0058025c       0x1c src/amu_common/flashinator.o
 .text.setUpgradeSmIdle
                0x00580278       0x18 src/amu_common/flashinator.o
 .text.printToDebugPort
                0x00580290       0x68 src/amu_common/flashinator.o
 .text.printUpgradeResponse
                0x005802f8       0xa0 src/amu_common/flashinator.o
 .text.initUpgradeSmData
                0x00580398       0xa4 src/amu_common/flashinator.o
                0x00580398                initUpgradeSmData
 .text.upgradeInfoOutputOnOff
                0x0058043c       0x7c src/amu_common/flashinator.o
                0x0058043c                upgradeInfoOutputOnOff
 .text.upgradeHexInfoOutputOnOff
                0x005804b8       0x74 src/amu_common/flashinator.o
                0x005804b8                upgradeHexInfoOutputOnOff
 .text.dropUpgradeSomething
                0x0058052c       0x90 src/amu_common/flashinator.o
                0x0058052c                dropUpgradeSomething
 .text.writeFlashProgramSignature
                0x005805bc       0x94 src/amu_common/flashinator.o
                0x005805bc                writeFlashProgramSignature
 .text.readFlashToHoldingBlock
                0x00580650       0x78 src/amu_common/flashinator.o
                0x00580650                readFlashToHoldingBlock
 .text.writeHoldingBlockToFlash
                0x005806c8      0x1f8 src/amu_common/flashinator.o
                0x005806c8                writeHoldingBlockToFlash
 .text.displayUpgradeStats
                0x005808c0       0xc4 src/amu_common/flashinator.o
                0x005808c0                displayUpgradeStats
 .text.displayUpgradeStateMachineInfo
                0x00580984       0x28 src/amu_common/flashinator.o
                0x00580984                displayUpgradeStateMachineInfo
 .text.isUpgradeStateMachineIdle
                0x005809ac       0x10 src/amu_common/flashinator.o
                0x005809ac                isUpgradeStateMachineIdle
 .text.checkUpgradeStateMachine
                0x005809bc       0x44 src/amu_common/flashinator.o
                0x005809bc                checkUpgradeStateMachine
 .text.calculateHoldingBlockCrc
                0x00580a00       0x14 src/amu_common/flashinator.o
                0x00580a00                calculateHoldingBlockCrc
 .text.isCommitHoldingBufferToFlash
                0x00580a14       0xb4 src/amu_common/flashinator.o
 .text.upgradeStateMachine
                0x00580ac8      0x550 src/amu_common/flashinator.o
                0x00580ac8                upgradeStateMachine
 .text.initRgbLedActivityData
                0x00581018       0x28 src/amu_common/rgbLedActivity.o
                0x00581018                initRgbLedActivityData
 .text.setRgbLed
                0x00581040       0x3c src/amu_common/rgbLedActivity.o
                0x00581040                setRgbLed
 .text.updateRgbLedActivityStatus
                0x0058107c       0x60 src/amu_common/rgbLedActivity.o
                0x0058107c                updateRgbLedActivityStatus
 .text.toggleChecksumRequired
                0x005810dc       0x20 src/apparent.o
 .text.readOneProgramFlashSignature
                0x005810fc      0x138 src/apparent.o
 .text.readOutProgramFlashSignatures
                0x00581234       0x28 src/apparent.o
 .text.displayFlashSignatures
                0x0058125c       0x3c src/apparent.o
 .text.getProcessorResetReason
                0x00581298       0x58 src/apparent.o
                0x00581298                getProcessorResetReason
 .text.initCraftInputBuffer
                0x005812f0       0x2c src/apparent.o
                0x005812f0                initCraftInputBuffer
 .text.writeToCraftInputBuffer
                0x0058131c       0x3c src/apparent.o
                0x0058131c                writeToCraftInputBuffer
 .text.initSbcComInputBuffer
                0x00581358       0x44 src/apparent.o
                0x00581358                initSbcComInputBuffer
 .text.initApparentSubsystemData
                0x0058139c       0x90 src/apparent.o
                0x0058139c                initApparentSubsystemData
 .text.writeToSbcComInputBuffer
                0x0058142c       0x54 src/apparent.o
                0x0058142c                writeToSbcComInputBuffer
 .text.checkCraftUserInput
                0x00581480       0x68 src/apparent.o
                0x00581480                checkCraftUserInput
 .text.checkSoftwareReset
                0x005814e8       0x48 src/apparent.o
                0x005814e8                checkSoftwareReset
 .text.displayApparentBootLoaderBanner
                0x00581530       0xbc src/apparent.o
                0x00581530                displayApparentBootLoaderBanner
 .text.pokeWatchdog
                0x005815ec       0x10 src/apparent.o
                0x005815ec                pokeWatchdog
 .text.displayEndOfOutput
                0x005815fc       0x38 src/apparent.o
                0x005815fc                displayEndOfOutput
 .text.displaySbcDebugGameOnNotice
                0x00581634       0x38 src/apparent.o
                0x00581634                displaySbcDebugGameOnNotice
 .text.pApparent_strstr
                0x0058166c       0x3c src/apparent.o
                0x0058166c                pApparent_strstr
 .text.checkSbcComUserInput
                0x005816a8      0x9bc src/apparent.o
                0x005816a8                checkSbcComUserInput
 .text.calcCrc32Checksum
                0x00582064       0x28 src/apparent.o
                0x00582064                calcCrc32Checksum
 .text.sysclk_init
                0x0058208c       0x70 src/ASF/common/services/clock/same70/sysclk.o
                0x0058208c                sysclk_init
 .text.usart_serial_write_packet
                0x005820fc       0xf0 src/ASF/common/services/serial/usart_serial.o
                0x005820fc                usart_serial_write_packet
 .text._read    0x005821ec       0x40 src/ASF/common/utils/stdio/read.o
                0x005821ec                _read
 .text._write   0x0058222c       0x44 src/ASF/common/utils/stdio/write.o
                0x0058222c                _write
 .text.ioport_set_pin_mode
                0x00582270       0x70 src/ASF/sam/boards/same70_xplained/init.o
 .text.board_init
                0x005822e0      0x274 src/ASF/sam/boards/same70_xplained/init.o
                0x005822e0                board_init
 .text.efc_get_result
                0x00582554        0x4 src/ASF/sam/drivers/efc/efc.o
                0x00582554                efc_get_result
 .text.efc_init
                0x00582558       0x1c src/ASF/sam/drivers/efc/efc.o
                0x00582558                efc_init
 .text.efc_set_wait_state
                0x00582574       0x18 src/ASF/sam/drivers/efc/efc.o
                0x00582574                efc_set_wait_state
 .text.efc_perform_command
                0x0058258c       0x58 src/ASF/sam/drivers/efc/efc.o
                0x0058258c                efc_perform_command
 .text.pio_set_peripheral
                0x005825e4       0x80 src/ASF/sam/drivers/pio/pio.o
                0x005825e4                pio_set_peripheral
 .text.pio_set_input
                0x00582664       0x30 src/ASF/sam/drivers/pio/pio.o
                0x00582664                pio_set_input
 .text.pio_set_output
                0x00582694       0x24 src/ASF/sam/drivers/pio/pio.o
                0x00582694                pio_set_output
 .text.pio_get_interrupt_status
                0x005826b8        0x4 src/ASF/sam/drivers/pio/pio.o
                0x005826b8                pio_get_interrupt_status
 .text.pio_get_interrupt_mask
                0x005826bc        0x4 src/ASF/sam/drivers/pio/pio.o
                0x005826bc                pio_get_interrupt_mask
 .text.pio_configure_pin
                0x005826c0       0xb0 src/ASF/sam/drivers/pio/pio.o
                0x005826c0                pio_configure_pin
 .text.pio_handler_process
                0x00582770       0x4c src/ASF/sam/drivers/pio/pio_handler.o
                0x00582770                pio_handler_process
 .text.PIOA_Handler
                0x005827bc       0x10 src/ASF/sam/drivers/pio/pio_handler.o
                0x005827bc                PIOA_Handler
 .text.PIOB_Handler
                0x005827cc       0x10 src/ASF/sam/drivers/pio/pio_handler.o
                0x005827cc                PIOB_Handler
 .text.PIOC_Handler
                0x005827dc       0x10 src/ASF/sam/drivers/pio/pio_handler.o
                0x005827dc                PIOC_Handler
 .text.PIOD_Handler
                0x005827ec       0x10 src/ASF/sam/drivers/pio/pio_handler.o
                0x005827ec                PIOD_Handler
 .text.PIOE_Handler
                0x005827fc       0x10 src/ASF/sam/drivers/pio/pio_handler.o
                0x005827fc                PIOE_Handler
 .text.pmc_mck_set_division
                0x0058280c       0x2c src/ASF/sam/drivers/pmc/pmc.o
                0x0058280c                pmc_mck_set_division
 .text.pmc_switch_mck_to_pllack
                0x00582838       0x44 src/ASF/sam/drivers/pmc/pmc.o
                0x00582838                pmc_switch_mck_to_pllack
 .text.pmc_switch_mainck_to_xtal
                0x0058287c       0x48 src/ASF/sam/drivers/pmc/pmc.o
                0x0058287c                pmc_switch_mainck_to_xtal
 .text.pmc_osc_is_ready_mainck
                0x005828c4       0x10 src/ASF/sam/drivers/pmc/pmc.o
                0x005828c4                pmc_osc_is_ready_mainck
 .text.pmc_disable_pllack
                0x005828d4       0x10 src/ASF/sam/drivers/pmc/pmc.o
                0x005828d4                pmc_disable_pllack
 .text.pmc_is_locked_pllack
                0x005828e4       0x10 src/ASF/sam/drivers/pmc/pmc.o
                0x005828e4                pmc_is_locked_pllack
 .text.pmc_enable_periph_clk
                0x005828f4       0x20 src/ASF/sam/drivers/pmc/pmc.o
                0x005828f4                pmc_enable_periph_clk
 .text.uart_init
                0x00582914       0x2c src/ASF/sam/drivers/uart/uart.o
                0x00582914                uart_init
 .text.uart_enable_interrupt
                0x00582940        0x4 src/ASF/sam/drivers/uart/uart.o
                0x00582940                uart_enable_interrupt
 .text.uart_disable_interrupt
                0x00582944        0x4 src/ASF/sam/drivers/uart/uart.o
                0x00582944                uart_disable_interrupt
 .text.uart_write
                0x00582948       0x40 src/ASF/sam/drivers/uart/uart.o
                0x00582948                uart_write
 .text.uart_read
                0x00582988       0x12 src/ASF/sam/drivers/uart/uart.o
                0x00582988                uart_read
 .text.usart_write
                0x0058299a       0x14 src/ASF/sam/drivers/usart/usart.o
                0x0058299a                usart_write
 .text.usart_read
                0x005829ae       0x16 src/ASF/sam/drivers/usart/usart.o
                0x005829ae                usart_read
 .text.flash_init
                0x005829c4       0x18 src/ASF/sam/flash_efc/flash_efc.o
                0x005829c4                flash_init
 .text.flash_set_wait_state
                0x005829dc       0x14 src/ASF/sam/flash_efc/flash_efc.o
                0x005829dc                flash_set_wait_state
 .text.flash_erase_page
                0x005829f0       0x38 src/ASF/sam/flash_efc/flash_efc.o
                0x005829f0                flash_erase_page
 .text.flash_write
                0x00582a28       0xac src/ASF/sam/flash_efc/flash_efc.o
                0x00582a28                flash_write
 .text.flash_lock
                0x00582ad4       0x54 src/ASF/sam/flash_efc/flash_efc.o
                0x00582ad4                flash_lock
 .text.flash_unlock
                0x00582b28       0x54 src/ASF/sam/flash_efc/flash_efc.o
                0x00582b28                flash_unlock
 .text.flash_is_gpnvm_set
                0x00582b7c       0x3c src/ASF/sam/flash_efc/flash_efc.o
                0x00582b7c                flash_is_gpnvm_set
 .text.flash_set_gpnvm
                0x00582bb8       0x38 src/ASF/sam/flash_efc/flash_efc.o
                0x00582bb8                flash_set_gpnvm
 .text.flash_enable_security_bit
                0x00582bf0        0xc src/ASF/sam/flash_efc/flash_efc.o
                0x00582bf0                flash_enable_security_bit
 .text.flash_is_security_bit_enabled
                0x00582bfc        0xc src/ASF/sam/flash_efc/flash_efc.o
                0x00582bfc                flash_is_security_bit_enabled
 .text.Dummy_Handler
                0x00582c08        0x2 src/ASF/sam/utils/cmsis/same70/source/templates/gcc/startup_same70.o
                0x00582c08                DACC_Handler
                0x00582c08                DebugMon_Handler
                0x00582c08                UART3_Handler
                0x00582c08                UART2_Handler
                0x00582c08                TRNG_Handler
                0x00582c08                HardFault_Handler
                0x00582c08                TC2_Handler
                0x00582c08                AFEC1_Handler
                0x00582c08                PendSV_Handler
                0x00582c08                NMI_Handler
                0x00582c08                TC7_Handler
                0x00582c08                QSPI_Handler
                0x00582c08                ISI_Handler
                0x00582c08                MCAN0_INT0_Handler
                0x00582c08                TC9_Handler
                0x00582c08                RSWDT_Handler
                0x00582c08                RTT_Handler
                0x00582c08                USBHS_Handler
                0x00582c08                IXC_Handler
                0x00582c08                CCF_Handler
                0x00582c08                RTC_Handler
                0x00582c08                UsageFault_Handler
                0x00582c08                TC6_Handler
                0x00582c08                WDT_Handler
                0x00582c08                MCAN1_INT1_Handler
                0x00582c08                TC4_Handler
                0x00582c08                TC1_Handler
                0x00582c08                HSMCI_Handler
                0x00582c08                TC3_Handler
                0x00582c08                Dummy_Handler
                0x00582c08                TWIHS1_Handler
                0x00582c08                XDMAC_Handler
                0x00582c08                UART4_Handler
                0x00582c08                PWM1_Handler
                0x00582c08                USART1_Handler
                0x00582c08                PWM0_Handler
                0x00582c08                AFEC0_Handler
                0x00582c08                CCW_Handler
                0x00582c08                SSC_Handler
                0x00582c08                TC11_Handler
                0x00582c08                ACC_Handler
                0x00582c08                PMC_Handler
                0x00582c08                GMAC_Handler
                0x00582c08                MCAN0_INT1_Handler
                0x00582c08                GMAC_Q5_Handler
                0x00582c08                MemManage_Handler
                0x00582c08                SUPC_Handler
                0x00582c08                SVC_Handler
                0x00582c08                TC8_Handler
                0x00582c08                MCAN1_INT0_Handler
                0x00582c08                EFC_Handler
                0x00582c08                GMAC_Q1_Handler
                0x00582c08                USART2_Handler
                0x00582c08                SDRAMC_Handler
                0x00582c08                GMAC_Q2_Handler
                0x00582c08                SPI1_Handler
                0x00582c08                TC10_Handler
                0x00582c08                GMAC_Q3_Handler
                0x00582c08                TWIHS2_Handler
                0x00582c08                I2SC0_Handler
                0x00582c08                I2SC1_Handler
                0x00582c08                GMAC_Q4_Handler
                0x00582c08                FPU_Handler
                0x00582c08                BusFault_Handler
                0x00582c08                RSTC_Handler
                0x00582c08                TC0_Handler
                0x00582c08                TC5_Handler
                0x00582c08                ICM_Handler
                0x00582c08                AES_Handler
                0x00582c08                TWIHS0_Handler
                0x00582c08                SPI0_Handler
 .text.USART0_Handler
                0x00582c0a        0x2 src/ASF/sam/utils/cmsis/same70/source/templates/gcc/startup_same70.o
                0x00582c0a                USART0_Handler
 .text.Reset_Handler
                0x00582c0c       0xa4 src/ASF/sam/utils/cmsis/same70/source/templates/gcc/startup_same70.o
                0x00582c0c                Reset_Handler
 .text.UART0_Handler
                0x00582cb0       0x5c src/ASF/sam/utils/cmsis/same70/source/templates/gcc/startup_same70.o
                0x00582cb0                UART0_Handler
 .text.UART1_Handler
                0x00582d0c       0x50 src/ASF/sam/utils/cmsis/same70/source/templates/gcc/startup_same70.o
                0x00582d0c                UART1_Handler
 .text.SystemCoreClockUpdate
                0x00582d5c       0xc8 src/ASF/sam/utils/cmsis/same70/source/templates/system_same70.o
                0x00582d5c                SystemCoreClockUpdate
 .text.system_init_flash
                0x00582e24       0x78 src/ASF/sam/utils/cmsis/same70/source/templates/system_same70.o
                0x00582e24                system_init_flash
 .text._sbrk    0x00582e9c       0x2c src/ASF/sam/utils/syscalls/gcc/syscalls.o
                0x00582e9c                _sbrk
 .text._close   0x00582ec8        0x6 src/ASF/sam/utils/syscalls/gcc/syscalls.o
                0x00582ec8                _close
 .text._fstat   0x00582ece        0xa src/ASF/sam/utils/syscalls/gcc/syscalls.o
                0x00582ece                _fstat
 .text._isatty  0x00582ed8        0x4 src/ASF/sam/utils/syscalls/gcc/syscalls.o
                0x00582ed8                _isatty
 .text._lseek   0x00582edc        0x4 src/ASF/sam/utils/syscalls/gcc/syscalls.o
                0x00582edc                _lseek
 .text.usart_serial_getchar
                0x00582ee0       0xc4 src/main.o
 .text.usart_serial_putchar
                0x00582fa4       0xbc src/main.o
 .text.SysTick_Handler
                0x00583060       0x10 src/main.o
                0x00583060                SysTick_Handler
 .text.startup.main
                0x00583070      0x180 src/main.o
                0x00583070                main
 .text.atoi     0x005831f0        0x8 c:/program files (x86)/atmel/studio/7.0/toolchain/arm/arm-gnu-toolchain/bin/../lib/gcc/arm-none-eabi/6.3.1/../../../../arm-none-eabi/lib/thumb/v7e-m\libc.a(lib_a-atoi.o)
                0x005831f0                atoi
 .text.__libc_init_array
                0x005831f8       0x50 c:/program files (x86)/atmel/studio/7.0/toolchain/arm/arm-gnu-toolchain/bin/../lib/gcc/arm-none-eabi/6.3.1/../../../../arm-none-eabi/lib/thumb/v7e-m\libc.a(lib_a-init.o)
                0x005831f8                __libc_init_array
 .text.iprintf  0x00583248       0x28 c:/program files (x86)/atmel/studio/7.0/toolchain/arm/arm-gnu-toolchain/bin/../lib/gcc/arm-none-eabi/6.3.1/../../../../arm-none-eabi/lib/thumb/v7e-m\libc.a(lib_a-iprintf.o)
                0x00583248                iprintf
 .text.memcmp   0x00583270       0x60 c:/program files (x86)/atmel/studio/7.0/toolchain/arm/arm-gnu-toolchain/bin/../lib/gcc/arm-none-eabi/6.3.1/../../../../arm-none-eabi/lib/thumb/v7e-m\libc.a(lib_a-memcmp.o)
                0x00583270                memcmp
 .text          0x005832d0      0x134 c:/program files (x86)/atmel/studio/7.0/toolchain/arm/arm-gnu-toolchain/bin/../lib/gcc/arm-none-eabi/6.3.1/../../../../arm-none-eabi/lib/thumb/v7e-m\libc.a(lib_a-memcpy.o)
                0x005832d0                memcpy
 .text.memset   0x00583404       0x9c c:/program files (x86)/atmel/studio/7.0/toolchain/arm/arm-gnu-toolchain/bin/../lib/gcc/arm-none-eabi/6.3.1/../../../../arm-none-eabi/lib/thumb/v7e-m\libc.a(lib_a-memset.o)
                0x00583404                memset
 .text.setbuf   0x005834a0       0x10 c:/program files (x86)/atmel/studio/7.0/toolchain/arm/arm-gnu-toolchain/bin/../lib/gcc/arm-none-eabi/6.3.1/../../../../arm-none-eabi/lib/thumb/v7e-m\libc.a(lib_a-setbuf.o)
                0x005834a0                setbuf
 .text.setvbuf  0x005834b0      0x190 c:/program files (x86)/atmel/studio/7.0/toolchain/arm/arm-gnu-toolchain/bin/../lib/gcc/arm-none-eabi/6.3.1/../../../../arm-none-eabi/lib/thumb/v7e-m\libc.a(lib_a-setvbuf.o)
                0x005834b0                setvbuf
 .text.sprintf  0x00583640       0x4c c:/program files (x86)/atmel/studio/7.0/toolchain/arm/arm-gnu-toolchain/bin/../lib/gcc/arm-none-eabi/6.3.1/../../../../arm-none-eabi/lib/thumb/v7e-m\libc.a(lib_a-sprintf.o)
                0x00583640                sprintf
 .text.strcpy   0x0058368c       0xbc c:/program files (x86)/atmel/studio/7.0/toolchain/arm/arm-gnu-toolchain/bin/../lib/gcc/arm-none-eabi/6.3.1/../../../../arm-none-eabi/lib/thumb/v7e-m\libc.a(lib_a-strcpy.o)
                0x0058368c                strcpy
 *fill*         0x00583748       0x38 
 .text          0x00583780       0xdc c:/program files (x86)/atmel/studio/7.0/toolchain/arm/arm-gnu-toolchain/bin/../lib/gcc/arm-none-eabi/6.3.1/../../../../arm-none-eabi/lib/thumb/v7e-m\libc.a(lib_a-strlen.o)
                0x00583780                strlen
 .text.strncmp  0x0058385c       0xa4 c:/program files (x86)/atmel/studio/7.0/toolchain/arm/arm-gnu-toolchain/bin/../lib/gcc/arm-none-eabi/6.3.1/../../../../arm-none-eabi/lib/thumb/v7e-m\libc.a(lib_a-strncmp.o)
                0x0058385c                strncmp
 .text._strtol_l.isra.0
                0x00583900      0x128 c:/program files (x86)/atmel/studio/7.0/toolchain/arm/arm-gnu-toolchain/bin/../lib/gcc/arm-none-eabi/6.3.1/../../../../arm-none-eabi/lib/thumb/v7e-m\libc.a(lib_a-strtol.o)
 .text.strtol   0x00583a28       0x2c c:/program files (x86)/atmel/studio/7.0/toolchain/arm/arm-gnu-toolchain/bin/../lib/gcc/arm-none-eabi/6.3.1/../../../../arm-none-eabi/lib/thumb/v7e-m\libc.a(lib_a-strtol.o)
                0x00583a28                strtol
 .text._svfprintf_r
                0x00583a54     0x145c c:/program files (x86)/atmel/studio/7.0/toolchain/arm/arm-gnu-toolchain/bin/../lib/gcc/arm-none-eabi/6.3.1/../../../../arm-none-eabi/lib/thumb/v7e-m\libc.a(lib_a-svfprintf.o)
                0x00583a54                _svfprintf_r
 .text.__sprint_r.part.0
                0x00584eb0       0x80 c:/program files (x86)/atmel/studio/7.0/toolchain/arm/arm-gnu-toolchain/bin/../lib/gcc/arm-none-eabi/6.3.1/../../../../arm-none-eabi/lib/thumb/v7e-m\libc.a(lib_a-vfiprintf.o)
 .text._vfiprintf_r
                0x00584f30      0xc90 c:/program files (x86)/atmel/studio/7.0/toolchain/arm/arm-gnu-toolchain/bin/../lib/gcc/arm-none-eabi/6.3.1/../../../../arm-none-eabi/lib/thumb/v7e-m\libc.a(lib_a-vfiprintf.o)
                0x00584f30                _vfiprintf_r
 .text.__sbprintf
                0x00585bc0       0x84 c:/program files (x86)/atmel/studio/7.0/toolchain/arm/arm-gnu-toolchain/bin/../lib/gcc/arm-none-eabi/6.3.1/../../../../arm-none-eabi/lib/thumb/v7e-m\libc.a(lib_a-vfiprintf.o)
 .text.__swsetup_r
                0x00585c44       0xc8 c:/program files (x86)/atmel/studio/7.0/toolchain/arm/arm-gnu-toolchain/bin/../lib/gcc/arm-none-eabi/6.3.1/../../../../arm-none-eabi/lib/thumb/v7e-m\libc.a(lib_a-wsetup.o)
                0x00585c44                __swsetup_r
 .text.startup.register_fini
                0x00585d0c       0x14 c:/program files (x86)/atmel/studio/7.0/toolchain/arm/arm-gnu-toolchain/bin/../lib/gcc/arm-none-eabi/6.3.1/../../../../arm-none-eabi/lib/thumb/v7e-m\libc.a(lib_a-__call_atexit.o)
 .text.atexit   0x00585d20        0xc c:/program files (x86)/atmel/studio/7.0/toolchain/arm/arm-gnu-toolchain/bin/../lib/gcc/arm-none-eabi/6.3.1/../../../../arm-none-eabi/lib/thumb/v7e-m\libc.a(lib_a-atexit.o)
                0x00585d20                atexit
 .text.quorem   0x00585d2c      0x128 c:/program files (x86)/atmel/studio/7.0/toolchain/arm/arm-gnu-toolchain/bin/../lib/gcc/arm-none-eabi/6.3.1/../../../../arm-none-eabi/lib/thumb/v7e-m\libc.a(lib_a-dtoa.o)
 *fill*         0x00585e54        0x4 
 .text._dtoa_r  0x00585e58      0xe54 c:/program files (x86)/atmel/studio/7.0/toolchain/arm/arm-gnu-toolchain/bin/../lib/gcc/arm-none-eabi/6.3.1/../../../../arm-none-eabi/lib/thumb/v7e-m\libc.a(lib_a-dtoa.o)
                0x00585e58                _dtoa_r
 .text.__sflush_r
                0x00586cac      0x140 c:/program files (x86)/atmel/studio/7.0/toolchain/arm/arm-gnu-toolchain/bin/../lib/gcc/arm-none-eabi/6.3.1/../../../../arm-none-eabi/lib/thumb/v7e-m\libc.a(lib_a-fflush.o)
                0x00586cac                __sflush_r
 .text._fflush_r
                0x00586dec       0x54 c:/program files (x86)/atmel/studio/7.0/toolchain/arm/arm-gnu-toolchain/bin/../lib/gcc/arm-none-eabi/6.3.1/../../../../arm-none-eabi/lib/thumb/v7e-m\libc.a(lib_a-fflush.o)
                0x00586dec                _fflush_r
 .text._cleanup_r
                0x00586e40        0xc c:/program files (x86)/atmel/studio/7.0/toolchain/arm/arm-gnu-toolchain/bin/../lib/gcc/arm-none-eabi/6.3.1/../../../../arm-none-eabi/lib/thumb/v7e-m\libc.a(lib_a-findfp.o)
                0x00586e40                _cleanup_r
 .text.std.isra.0
                0x00586e4c       0x50 c:/program files (x86)/atmel/studio/7.0/toolchain/arm/arm-gnu-toolchain/bin/../lib/gcc/arm-none-eabi/6.3.1/../../../../arm-none-eabi/lib/thumb/v7e-m\libc.a(lib_a-findfp.o)
 .text.__sinit  0x00586e9c       0x58 c:/program files (x86)/atmel/studio/7.0/toolchain/arm/arm-gnu-toolchain/bin/../lib/gcc/arm-none-eabi/6.3.1/../../../../arm-none-eabi/lib/thumb/v7e-m\libc.a(lib_a-findfp.o)
                0x00586e9c                __sinit
 .text.__sfp_lock_acquire
                0x00586ef4        0xc c:/program files (x86)/atmel/studio/7.0/toolchain/arm/arm-gnu-toolchain/bin/../lib/gcc/arm-none-eabi/6.3.1/../../../../arm-none-eabi/lib/thumb/v7e-m\libc.a(lib_a-findfp.o)
                0x00586ef4                __sfp_lock_acquire
 .text.__sfp_lock_release
                0x00586f00        0xc c:/program files (x86)/atmel/studio/7.0/toolchain/arm/arm-gnu-toolchain/bin/../lib/gcc/arm-none-eabi/6.3.1/../../../../arm-none-eabi/lib/thumb/v7e-m\libc.a(lib_a-findfp.o)
                0x00586f00                __sfp_lock_release
 .text.__libc_fini_array
                0x00586f0c       0x34 c:/program files (x86)/atmel/studio/7.0/toolchain/arm/arm-gnu-toolchain/bin/../lib/gcc/arm-none-eabi/6.3.1/../../../../arm-none-eabi/lib/thumb/v7e-m\libc.a(lib_a-fini.o)
                0x00586f0c                __libc_fini_array
 .text.__fputwc
                0x00586f40       0xa0 c:/program files (x86)/atmel/studio/7.0/toolchain/arm/arm-gnu-toolchain/bin/../lib/gcc/arm-none-eabi/6.3.1/../../../../arm-none-eabi/lib/thumb/v7e-m\libc.a(lib_a-fputwc.o)
                0x00586f40                __fputwc
 .text._fputwc_r
                0x00586fe0       0x68 c:/program files (x86)/atmel/studio/7.0/toolchain/arm/arm-gnu-toolchain/bin/../lib/gcc/arm-none-eabi/6.3.1/../../../../arm-none-eabi/lib/thumb/v7e-m\libc.a(lib_a-fputwc.o)
                0x00586fe0                _fputwc_r
 .text._malloc_trim_r
                0x00587048       0xa0 c:/program files (x86)/atmel/studio/7.0/toolchain/arm/arm-gnu-toolchain/bin/../lib/gcc/arm-none-eabi/6.3.1/../../../../arm-none-eabi/lib/thumb/v7e-m\libc.a(lib_a-freer.o)
                0x00587048                _malloc_trim_r
 .text._free_r  0x005870e8      0x1cc c:/program files (x86)/atmel/studio/7.0/toolchain/arm/arm-gnu-toolchain/bin/../lib/gcc/arm-none-eabi/6.3.1/../../../../arm-none-eabi/lib/thumb/v7e-m\libc.a(lib_a-freer.o)
                0x005870e8                _free_r
 .text.__sfvwrite_r
                0x005872b4      0x2f0 c:/program files (x86)/atmel/studio/7.0/toolchain/arm/arm-gnu-toolchain/bin/../lib/gcc/arm-none-eabi/6.3.1/../../../../arm-none-eabi/lib/thumb/v7e-m\libc.a(lib_a-fvwrite.o)
                0x005872b4                __sfvwrite_r
 .text._fwalk_reent
                0x005875a4       0x54 c:/program files (x86)/atmel/studio/7.0/toolchain/arm/arm-gnu-toolchain/bin/../lib/gcc/arm-none-eabi/6.3.1/../../../../arm-none-eabi/lib/thumb/v7e-m\libc.a(lib_a-fwalk.o)
                0x005875a4                _fwalk_reent
 .text.__locale_mb_cur_max
                0x005875f8       0x1c c:/program files (x86)/atmel/studio/7.0/toolchain/arm/arm-gnu-toolchain/bin/../lib/gcc/arm-none-eabi/6.3.1/../../../../arm-none-eabi/lib/thumb/v7e-m\libc.a(lib_a-locale.o)
                0x005875f8                __locale_mb_cur_max
 .text.__locale_ctype_ptr_l
                0x00587614        0x8 c:/program files (x86)/atmel/studio/7.0/toolchain/arm/arm-gnu-toolchain/bin/../lib/gcc/arm-none-eabi/6.3.1/../../../../arm-none-eabi/lib/thumb/v7e-m\libc.a(lib_a-locale.o)
                0x00587614                __locale_ctype_ptr_l
 .text._localeconv_r
                0x0058761c       0x1c c:/program files (x86)/atmel/studio/7.0/toolchain/arm/arm-gnu-toolchain/bin/../lib/gcc/arm-none-eabi/6.3.1/../../../../arm-none-eabi/lib/thumb/v7e-m\libc.a(lib_a-localeconv.o)
                0x0058761c                _localeconv_r
 .text.__retarget_lock_init_recursive
                0x00587638        0x4 c:/program files (x86)/atmel/studio/7.0/toolchain/arm/arm-gnu-toolchain/bin/../lib/gcc/arm-none-eabi/6.3.1/../../../../arm-none-eabi/lib/thumb/v7e-m\libc.a(lib_a-lock.o)
                0x00587638                __retarget_lock_init_recursive
 .text.__retarget_lock_close_recursive
                0x0058763c        0x4 c:/program files (x86)/atmel/studio/7.0/toolchain/arm/arm-gnu-toolchain/bin/../lib/gcc/arm-none-eabi/6.3.1/../../../../arm-none-eabi/lib/thumb/v7e-m\libc.a(lib_a-lock.o)
                0x0058763c                __retarget_lock_close_recursive
 .text.__retarget_lock_acquire_recursive
                0x00587640        0x4 c:/program files (x86)/atmel/studio/7.0/toolchain/arm/arm-gnu-toolchain/bin/../lib/gcc/arm-none-eabi/6.3.1/../../../../arm-none-eabi/lib/thumb/v7e-m\libc.a(lib_a-lock.o)
                0x00587640                __retarget_lock_acquire_recursive
 .text.__retarget_lock_release_recursive
                0x00587644        0x4 c:/program files (x86)/atmel/studio/7.0/toolchain/arm/arm-gnu-toolchain/bin/../lib/gcc/arm-none-eabi/6.3.1/../../../../arm-none-eabi/lib/thumb/v7e-m\libc.a(lib_a-lock.o)
                0x00587644                __retarget_lock_release_recursive
 .text.__swhatbuf_r
                0x00587648       0x5c c:/program files (x86)/atmel/studio/7.0/toolchain/arm/arm-gnu-toolchain/bin/../lib/gcc/arm-none-eabi/6.3.1/../../../../arm-none-eabi/lib/thumb/v7e-m\libc.a(lib_a-makebuf.o)
                0x00587648                __swhatbuf_r
 .text.__smakebuf_r
                0x005876a4       0x94 c:/program files (x86)/atmel/studio/7.0/toolchain/arm/arm-gnu-toolchain/bin/../lib/gcc/arm-none-eabi/6.3.1/../../../../arm-none-eabi/lib/thumb/v7e-m\libc.a(lib_a-makebuf.o)
                0x005876a4                __smakebuf_r
 .text.malloc   0x00587738       0x10 c:/program files (x86)/atmel/studio/7.0/toolchain/arm/arm-gnu-toolchain/bin/../lib/gcc/arm-none-eabi/6.3.1/../../../../arm-none-eabi/lib/thumb/v7e-m\libc.a(lib_a-malloc.o)
                0x00587738                malloc
 .text._malloc_r
                0x00587748      0x560 c:/program files (x86)/atmel/studio/7.0/toolchain/arm/arm-gnu-toolchain/bin/../lib/gcc/arm-none-eabi/6.3.1/../../../../arm-none-eabi/lib/thumb/v7e-m\libc.a(lib_a-mallocr.o)
                0x00587748                _malloc_r
 .text.__ascii_mbtowc
                0x00587ca8       0x2c c:/program files (x86)/atmel/studio/7.0/toolchain/arm/arm-gnu-toolchain/bin/../lib/gcc/arm-none-eabi/6.3.1/../../../../arm-none-eabi/lib/thumb/v7e-m\libc.a(lib_a-mbtowc_r.o)
                0x00587ca8                __ascii_mbtowc
 *fill*         0x00587cd4        0xc 
 .text          0x00587ce0       0xa0 c:/program files (x86)/atmel/studio/7.0/toolchain/arm/arm-gnu-toolchain/bin/../lib/gcc/arm-none-eabi/6.3.1/../../../../arm-none-eabi/lib/thumb/v7e-m\libc.a(lib_a-memchr.o)
                0x00587ce0                memchr
 .text.memmove  0x00587d80       0xc8 c:/program files (x86)/atmel/studio/7.0/toolchain/arm/arm-gnu-toolchain/bin/../lib/gcc/arm-none-eabi/6.3.1/../../../../arm-none-eabi/lib/thumb/v7e-m\libc.a(lib_a-memmove.o)
                0x00587d80                memmove
 .text.__malloc_lock
                0x00587e48        0xc c:/program files (x86)/atmel/studio/7.0/toolchain/arm/arm-gnu-toolchain/bin/../lib/gcc/arm-none-eabi/6.3.1/../../../../arm-none-eabi/lib/thumb/v7e-m\libc.a(lib_a-mlock.o)
                0x00587e48                __malloc_lock
 .text.__malloc_unlock
                0x00587e54        0xc c:/program files (x86)/atmel/studio/7.0/toolchain/arm/arm-gnu-toolchain/bin/../lib/gcc/arm-none-eabi/6.3.1/../../../../arm-none-eabi/lib/thumb/v7e-m\libc.a(lib_a-mlock.o)
                0x00587e54                __malloc_unlock
 .text._Balloc  0x00587e60       0x4c c:/program files (x86)/atmel/studio/7.0/toolchain/arm/arm-gnu-toolchain/bin/../lib/gcc/arm-none-eabi/6.3.1/../../../../arm-none-eabi/lib/thumb/v7e-m\libc.a(lib_a-mprec.o)
                0x00587e60                _Balloc
 .text._Bfree   0x00587eac       0x14 c:/program files (x86)/atmel/studio/7.0/toolchain/arm/arm-gnu-toolchain/bin/../lib/gcc/arm-none-eabi/6.3.1/../../../../arm-none-eabi/lib/thumb/v7e-m\libc.a(lib_a-mprec.o)
                0x00587eac                _Bfree
 .text.__multadd
                0x00587ec0       0x80 c:/program files (x86)/atmel/studio/7.0/toolchain/arm/arm-gnu-toolchain/bin/../lib/gcc/arm-none-eabi/6.3.1/../../../../arm-none-eabi/lib/thumb/v7e-m\libc.a(lib_a-mprec.o)
                0x00587ec0                __multadd
 .text.__hi0bits
                0x00587f40       0x40 c:/program files (x86)/atmel/studio/7.0/toolchain/arm/arm-gnu-toolchain/bin/../lib/gcc/arm-none-eabi/6.3.1/../../../../arm-none-eabi/lib/thumb/v7e-m\libc.a(lib_a-mprec.o)
                0x00587f40                __hi0bits
 .text.__lo0bits
                0x00587f80       0x60 c:/program files (x86)/atmel/studio/7.0/toolchain/arm/arm-gnu-toolchain/bin/../lib/gcc/arm-none-eabi/6.3.1/../../../../arm-none-eabi/lib/thumb/v7e-m\libc.a(lib_a-mprec.o)
                0x00587f80                __lo0bits
 .text.__i2b    0x00587fe0       0x14 c:/program files (x86)/atmel/studio/7.0/toolchain/arm/arm-gnu-toolchain/bin/../lib/gcc/arm-none-eabi/6.3.1/../../../../arm-none-eabi/lib/thumb/v7e-m\libc.a(lib_a-mprec.o)
                0x00587fe0                __i2b
 .text.__multiply
                0x00587ff4      0x124 c:/program files (x86)/atmel/studio/7.0/toolchain/arm/arm-gnu-toolchain/bin/../lib/gcc/arm-none-eabi/6.3.1/../../../../arm-none-eabi/lib/thumb/v7e-m\libc.a(lib_a-mprec.o)
                0x00587ff4                __multiply
 .text.__pow5mult
                0x00588118       0xa0 c:/program files (x86)/atmel/studio/7.0/toolchain/arm/arm-gnu-toolchain/bin/../lib/gcc/arm-none-eabi/6.3.1/../../../../arm-none-eabi/lib/thumb/v7e-m\libc.a(lib_a-mprec.o)
                0x00588118                __pow5mult
 .text.__lshift
                0x005881b8       0xa4 c:/program files (x86)/atmel/studio/7.0/toolchain/arm/arm-gnu-toolchain/bin/../lib/gcc/arm-none-eabi/6.3.1/../../../../arm-none-eabi/lib/thumb/v7e-m\libc.a(lib_a-mprec.o)
                0x005881b8                __lshift
 .text.__mcmp   0x0058825c       0x38 c:/program files (x86)/atmel/studio/7.0/toolchain/arm/arm-gnu-toolchain/bin/../lib/gcc/arm-none-eabi/6.3.1/../../../../arm-none-eabi/lib/thumb/v7e-m\libc.a(lib_a-mprec.o)
                0x0058825c                __mcmp
 .text.__mdiff  0x00588294      0x108 c:/program files (x86)/atmel/studio/7.0/toolchain/arm/arm-gnu-toolchain/bin/../lib/gcc/arm-none-eabi/6.3.1/../../../../arm-none-eabi/lib/thumb/v7e-m\libc.a(lib_a-mprec.o)
                0x00588294                __mdiff
 .text.__d2b    0x0058839c       0xb8 c:/program files (x86)/atmel/studio/7.0/toolchain/arm/arm-gnu-toolchain/bin/../lib/gcc/arm-none-eabi/6.3.1/../../../../arm-none-eabi/lib/thumb/v7e-m\libc.a(lib_a-mprec.o)
                0x0058839c                __d2b
 .text._realloc_r
                0x00588454      0x34c c:/program files (x86)/atmel/studio/7.0/toolchain/arm/arm-gnu-toolchain/bin/../lib/gcc/arm-none-eabi/6.3.1/../../../../arm-none-eabi/lib/thumb/v7e-m\libc.a(lib_a-reallocr.o)
                0x00588454                _realloc_r
 .text._sbrk_r  0x005887a0       0x24 c:/program files (x86)/atmel/studio/7.0/toolchain/arm/arm-gnu-toolchain/bin/../lib/gcc/arm-none-eabi/6.3.1/../../../../arm-none-eabi/lib/thumb/v7e-m\libc.a(lib_a-sbrkr.o)
                0x005887a0                _sbrk_r
 .text.__sread  0x005887c4       0x24 c:/program files (x86)/atmel/studio/7.0/toolchain/arm/arm-gnu-toolchain/bin/../lib/gcc/arm-none-eabi/6.3.1/../../../../arm-none-eabi/lib/thumb/v7e-m\libc.a(lib_a-stdio.o)
                0x005887c4                __sread
 .text.__swrite
                0x005887e8       0x3c c:/program files (x86)/atmel/studio/7.0/toolchain/arm/arm-gnu-toolchain/bin/../lib/gcc/arm-none-eabi/6.3.1/../../../../arm-none-eabi/lib/thumb/v7e-m\libc.a(lib_a-stdio.o)
                0x005887e8                __swrite
 .text.__sseek  0x00588824       0x20 c:/program files (x86)/atmel/studio/7.0/toolchain/arm/arm-gnu-toolchain/bin/../lib/gcc/arm-none-eabi/6.3.1/../../../../arm-none-eabi/lib/thumb/v7e-m\libc.a(lib_a-stdio.o)
                0x00588824                __sseek
 .text.__sclose
                0x00588844        0x8 c:/program files (x86)/atmel/studio/7.0/toolchain/arm/arm-gnu-toolchain/bin/../lib/gcc/arm-none-eabi/6.3.1/../../../../arm-none-eabi/lib/thumb/v7e-m\libc.a(lib_a-stdio.o)
                0x00588844                __sclose
 .text.__ssprint_r
                0x0058884c       0xfc c:/program files (x86)/atmel/studio/7.0/toolchain/arm/arm-gnu-toolchain/bin/../lib/gcc/arm-none-eabi/6.3.1/../../../../arm-none-eabi/lib/thumb/v7e-m\libc.a(lib_a-svfiprintf.o)
                0x0058884c                __ssprint_r
 .text.__swbuf_r
                0x00588948       0xb0 c:/program files (x86)/atmel/studio/7.0/toolchain/arm/arm-gnu-toolchain/bin/../lib/gcc/arm-none-eabi/6.3.1/../../../../arm-none-eabi/lib/thumb/v7e-m\libc.a(lib_a-wbuf.o)
                0x00588948                __swbuf_r
 .text._wcrtomb_r
                0x005889f8       0x54 c:/program files (x86)/atmel/studio/7.0/toolchain/arm/arm-gnu-toolchain/bin/../lib/gcc/arm-none-eabi/6.3.1/../../../../arm-none-eabi/lib/thumb/v7e-m\libc.a(lib_a-wcrtomb.o)
                0x005889f8                _wcrtomb_r
 .text.__ascii_wctomb
                0x00588a4c       0x1c c:/program files (x86)/atmel/studio/7.0/toolchain/arm/arm-gnu-toolchain/bin/../lib/gcc/arm-none-eabi/6.3.1/../../../../arm-none-eabi/lib/thumb/v7e-m\libc.a(lib_a-wctomb_r.o)
                0x00588a4c                __ascii_wctomb
 .text._write_r
                0x00588a68       0x2c c:/program files (x86)/atmel/studio/7.0/toolchain/arm/arm-gnu-toolchain/bin/../lib/gcc/arm-none-eabi/6.3.1/../../../../arm-none-eabi/lib/thumb/v7e-m\libc.a(lib_a-writer.o)
                0x00588a68                _write_r
 .text.__register_exitproc
                0x00588a94       0xc4 c:/program files (x86)/atmel/studio/7.0/toolchain/arm/arm-gnu-toolchain/bin/../lib/gcc/arm-none-eabi/6.3.1/../../../../arm-none-eabi/lib/thumb/v7e-m\libc.a(lib_a-__atexit.o)
                0x00588a94                __register_exitproc
 .text._calloc_r
                0x00588b58       0x60 c:/program files (x86)/atmel/studio/7.0/toolchain/arm/arm-gnu-toolchain/bin/../lib/gcc/arm-none-eabi/6.3.1/../../../../arm-none-eabi/lib/thumb/v7e-m\libc.a(lib_a-callocr.o)
                0x00588b58                _calloc_r
 .text._close_r
                0x00588bb8       0x24 c:/program files (x86)/atmel/studio/7.0/toolchain/arm/arm-gnu-toolchain/bin/../lib/gcc/arm-none-eabi/6.3.1/../../../../arm-none-eabi/lib/thumb/v7e-m\libc.a(lib_a-closer.o)
                0x00588bb8                _close_r
 .text._fclose_r
                0x00588bdc       0xc4 c:/program files (x86)/atmel/studio/7.0/toolchain/arm/arm-gnu-toolchain/bin/../lib/gcc/arm-none-eabi/6.3.1/../../../../arm-none-eabi/lib/thumb/v7e-m\libc.a(lib_a-fclose.o)
                0x00588bdc                _fclose_r
 .text._fstat_r
                0x00588ca0       0x28 c:/program files (x86)/atmel/studio/7.0/toolchain/arm/arm-gnu-toolchain/bin/../lib/gcc/arm-none-eabi/6.3.1/../../../../arm-none-eabi/lib/thumb/v7e-m\libc.a(lib_a-fstatr.o)
                0x00588ca0                _fstat_r
 .text._isatty_r
                0x00588cc8       0x24 c:/program files (x86)/atmel/studio/7.0/toolchain/arm/arm-gnu-toolchain/bin/../lib/gcc/arm-none-eabi/6.3.1/../../../../arm-none-eabi/lib/thumb/v7e-m\libc.a(lib_a-isattyr.o)
                0x00588cc8                _isatty_r
 .text._lseek_r
                0x00588cec       0x2c c:/program files (x86)/atmel/studio/7.0/toolchain/arm/arm-gnu-toolchain/bin/../lib/gcc/arm-none-eabi/6.3.1/../../../../arm-none-eabi/lib/thumb/v7e-m\libc.a(lib_a-lseekr.o)
                0x00588cec                _lseek_r
 .text._read_r  0x00588d18       0x2c c:/program files (x86)/atmel/studio/7.0/toolchain/arm/arm-gnu-toolchain/bin/../lib/gcc/arm-none-eabi/6.3.1/../../../../arm-none-eabi/lib/thumb/v7e-m\libc.a(lib_a-readr.o)
                0x00588d18                _read_r
 .text          0x00588d44      0x370 c:/program files (x86)/atmel/studio/7.0/toolchain/arm/arm-gnu-toolchain/bin/../lib/gcc/arm-none-eabi/6.3.1/thumb/v7e-m\libgcc.a(_arm_addsubdf3.o)
                0x00588d44                __aeabi_drsub
                0x00588d4c                __aeabi_dsub
                0x00588d4c                __subdf3
                0x00588d50                __aeabi_dadd
                0x00588d50                __adddf3
                0x00588fc8                __floatunsidf
                0x00588fc8                __aeabi_ui2d
                0x00588fe8                __floatsidf
                0x00588fe8                __aeabi_i2d
                0x0058900c                __aeabi_f2d
                0x0058900c                __extendsfdf2
                0x00589048                __floatundidf
                0x00589048                __aeabi_ul2d
                0x00589058                __floatdidf
                0x00589058                __aeabi_l2d
 .text          0x005890b4      0x424 c:/program files (x86)/atmel/studio/7.0/toolchain/arm/arm-gnu-toolchain/bin/../lib/gcc/arm-none-eabi/6.3.1/thumb/v7e-m\libgcc.a(_arm_muldivdf3.o)
                0x005890b4                __aeabi_dmul
                0x005890b4                __muldf3
                0x00589308                __divdf3
                0x00589308                __aeabi_ddiv
 .text          0x005894d8      0x110 c:/program files (x86)/atmel/studio/7.0/toolchain/arm/arm-gnu-toolchain/bin/../lib/gcc/arm-none-eabi/6.3.1/thumb/v7e-m\libgcc.a(_arm_cmpdf2.o)
                0x005894d8                __gtdf2
                0x005894d8                __gedf2
                0x005894e0                __ltdf2
                0x005894e0                __ledf2
                0x005894e8                __nedf2
                0x005894e8                __eqdf2
                0x005894e8                __cmpdf2
                0x00589564                __aeabi_cdrcmple
                0x00589574                __aeabi_cdcmpeq
                0x00589574                __aeabi_cdcmple
                0x00589584                __aeabi_dcmpeq
                0x00589598                __aeabi_dcmplt
                0x005895ac                __aeabi_dcmple
                0x005895c0                __aeabi_dcmpge
                0x005895d4                __aeabi_dcmpgt
 .text          0x005895e8       0x2c c:/program files (x86)/atmel/studio/7.0/toolchain/arm/arm-gnu-toolchain/bin/../lib/gcc/arm-none-eabi/6.3.1/thumb/v7e-m\libgcc.a(_arm_unorddf2.o)
                0x005895e8                __unorddf2
                0x005895e8                __aeabi_dcmpun
 .text          0x00589614       0x50 c:/program files (x86)/atmel/studio/7.0/toolchain/arm/arm-gnu-toolchain/bin/../lib/gcc/arm-none-eabi/6.3.1/thumb/v7e-m\libgcc.a(_arm_fixdfsi.o)
                0x00589614                __aeabi_d2iz
                0x00589614                __fixdfsi
 .text          0x00589664       0x30 c:/program files (x86)/atmel/studio/7.0/toolchain/arm/arm-gnu-toolchain/bin/../lib/gcc/arm-none-eabi/6.3.1/thumb/v7e-m\libgcc.a(_aeabi_uldivmod.o)
                0x00589664                __aeabi_uldivmod
 .text          0x00589694      0x2dc c:/program files (x86)/atmel/studio/7.0/toolchain/arm/arm-gnu-toolchain/bin/../lib/gcc/arm-none-eabi/6.3.1/thumb/v7e-m\libgcc.a(_udivmoddi4.o)
                0x00589694                __udivmoddi4
 .text          0x00589970        0x4 c:/program files (x86)/atmel/studio/7.0/toolchain/arm/arm-gnu-toolchain/bin/../lib/gcc/arm-none-eabi/6.3.1/thumb/v7e-m\libgcc.a(_dvmd_tls.o)
                0x00589970                __aeabi_idiv0
                0x00589970                __aeabi_ldiv0
 *(.glue_7t)
 .glue_7t       0x00589974        0x0 linker stubs
 *(.glue_7)
 .glue_7        0x00589974        0x0 linker stubs
 *(.rodata .rodata* .gnu.linkonce.r.*)
 .rodata.DEBUG_COLON_MISSING_STRING
                0x00589974       0x14 src/amu_common/flashinator.o
                0x00589974                DEBUG_COLON_MISSING_STRING
 .rodata.DEBUG_COMMIT_HOLD_TO_FLASH_STRING
                0x00589988       0x19 src/amu_common/flashinator.o
                0x00589988                DEBUG_COMMIT_HOLD_TO_FLASH_STRING
 .rodata.DEBUG_DROP_NEXT_INCOMING_DATA_PACKET_STRING
                0x005899a1       0x1a src/amu_common/flashinator.o
                0x005899a1                DEBUG_DROP_NEXT_INCOMING_DATA_PACKET_STRING
 .rodata.DEBUG_DROP_NEXT_OUTGOING_PACKET_ACK_STRING
                0x005899bb       0x1e src/amu_common/flashinator.o
                0x005899bb                DEBUG_DROP_NEXT_OUTGOING_PACKET_ACK_STRING
 .rodata.DEBUG_DROP_THIS_STRING
                0x005899d9       0x10 src/amu_common/flashinator.o
                0x005899d9                DEBUG_DROP_THIS_STRING
 .rodata.DEBUG_END_ADDR_WITHIN_BOOT_STRING
                0x005899e9       0x1a src/amu_common/flashinator.o
                0x005899e9                DEBUG_END_ADDR_WITHIN_BOOT_STRING
 .rodata.DEBUG_EXT_SEGMENT_ADDRESS_STRING
                0x00589a03       0x11 src/amu_common/flashinator.o
                0x00589a03                DEBUG_EXT_SEGMENT_ADDRESS_STRING
 .rodata.DEBUG_FINAL_APP_COMMIT_STRING
                0x00589a14       0x15 src/amu_common/flashinator.o
                0x00589a14                DEBUG_FINAL_APP_COMMIT_STRING
 .rodata.DEBUG_FLASH_FLASH_CRC_FAILED_STRING
                0x00589a29       0x22 src/amu_common/flashinator.o
                0x00589a29                DEBUG_FLASH_FLASH_CRC_FAILED_STRING
 .rodata.DEBUG_FLASH_HOLD_CRC_FAILED_STRING
                0x00589a4b       0x20 src/amu_common/flashinator.o
                0x00589a4b                DEBUG_FLASH_HOLD_CRC_FAILED_STRING
 .rodata.DEBUG_HOLDING_TO_FLASH_STRING
                0x00589a6b       0x17 src/amu_common/flashinator.o
                0x00589a6b                DEBUG_HOLDING_TO_FLASH_STRING
 .rodata.DEBUG_LAST_HOLDING_TO_FLASH_STRING
                0x00589a82       0x1c src/amu_common/flashinator.o
                0x00589a82                DEBUG_LAST_HOLDING_TO_FLASH_STRING
 .rodata.DEBUG_PRINT_ACK_DROPPED_NOTICE_STRING
                0x00589a9e       0x13 src/amu_common/flashinator.o
                0x00589a9e                DEBUG_PRINT_ACK_DROPPED_NOTICE_STRING
 .rodata.DEBUG_RECEIVED_END_COMMAND_RESENT_STRING
                0x00589ab1       0x1f src/amu_common/flashinator.o
                0x00589ab1                DEBUG_RECEIVED_END_COMMAND_RESENT_STRING
 .rodata.DEBUG_RECEIVED_END_COMMAND_STRING
                0x00589ad0       0x16 src/amu_common/flashinator.o
                0x00589ad0                DEBUG_RECEIVED_END_COMMAND_STRING
 .rodata.DEBUG_RELATIVE_ADDR_OOS_STRING
                0x00589ae6       0x27 src/amu_common/flashinator.o
                0x00589ae6                DEBUG_RELATIVE_ADDR_OOS_STRING
 .rodata.DEBUG_RELATIVE_ADDR_RESEND_STRING
                0x00589b0d       0x19 src/amu_common/flashinator.o
                0x00589b0d                DEBUG_RELATIVE_ADDR_RESEND_STRING
 .rodata.DEBUG_SET_WAIT_STATE_1_FAILED_STRING
                0x00589b26       0x17 src/amu_common/flashinator.o
                0x00589b26                DEBUG_SET_WAIT_STATE_1_FAILED_STRING
 .rodata.DEBUG_START_ADDR_WITHIN_BOOT_STRING
                0x00589b3d       0x1d src/amu_common/flashinator.o
                0x00589b3d                DEBUG_START_ADDR_WITHIN_BOOT_STRING
 .rodata.DEBUG_STATE_MACHINE_TIMEOUT_STRING
                0x00589b5a       0x17 src/amu_common/flashinator.o
                0x00589b5a                DEBUG_STATE_MACHINE_TIMEOUT_STRING
 .rodata.DEBUG_UPGRADE_START_NOTICE_STRING
                0x00589b71        0xf src/amu_common/flashinator.o
                0x00589b71                DEBUG_UPGRADE_START_NOTICE_STRING
 .rodata.DEBUG_WAIT_FOR_END_COMMAND_STRING
                0x00589b80       0x12 src/amu_common/flashinator.o
                0x00589b80                DEBUG_WAIT_FOR_END_COMMAND_STRING
 .rodata.DEBUG_WHBTF_ERASE_PAGE_FAILED_STRING
                0x00589b92       0x10 src/amu_common/flashinator.o
                0x00589b92                DEBUG_WHBTF_ERASE_PAGE_FAILED_STRING
 .rodata.DEBUG_WHBTF_FAILED_STRING
                0x00589ba2       0x15 src/amu_common/flashinator.o
                0x00589ba2                DEBUG_WHBTF_FAILED_STRING
 .rodata.DEBUG_WHBTF_LOCK_FAILED_STRING
                0x00589bb7        0xa src/amu_common/flashinator.o
                0x00589bb7                DEBUG_WHBTF_LOCK_FAILED_STRING
 .rodata.DEBUG_WHBTF_SECURITY_BIT_FAILED_STRING
                0x00589bc1       0x13 src/amu_common/flashinator.o
                0x00589bc1                DEBUG_WHBTF_SECURITY_BIT_FAILED_STRING
 .rodata.DEBUG_WHBTF_SEC_ENABLE_OK_STRING
                0x00589bd4       0x12 src/amu_common/flashinator.o
                0x00589bd4                DEBUG_WHBTF_SEC_ENABLE_OK_STRING
 .rodata.DEBUG_WHBTF_SEC_WAS_ENABLED_STRING
                0x00589be6       0x1a src/amu_common/flashinator.o
                0x00589be6                DEBUG_WHBTF_SEC_WAS_ENABLED_STRING
 .rodata.DEBUG_WHBTF_UNLOCK_FAILED_STRING
                0x00589c00        0xd src/amu_common/flashinator.o
                0x00589c00                DEBUG_WHBTF_UNLOCK_FAILED_STRING
 .rodata.DEBUG_WRITE_LOW_LEVEL_ZONE_REJECT_STRING
                0x00589c0d       0x22 src/amu_common/flashinator.o
                0x00589c0d                DEBUG_WRITE_LOW_LEVEL_ZONE_REJECT_STRING
 .rodata.DEBUG_WRITE_TO_HOLDING_STRING
                0x00589c2f        0xd src/amu_common/flashinator.o
                0x00589c2f                DEBUG_WRITE_TO_HOLDING_STRING
 .rodata.END_OF_FILE_PACKET_DATA
                0x00589c3c        0x5 src/amu_common/flashinator.o
                0x00589c3c                END_OF_FILE_PACKET_DATA
 .rodata.displayUpgradeStateMachineInfo.str1.1
                0x00589c41        0x6 src/amu_common/flashinator.o
 .rodata.displayUpgradeStats.str1.1
                0x00589c47       0x85 src/amu_common/flashinator.o
 .rodata.dropUpgradeSomething.str1.1
                0x00589ccc       0x2e src/amu_common/flashinator.o
 .rodata.printToDebugPort.str1.1
                0x00589cfa        0x9 src/amu_common/flashinator.o
 .rodata.printUpgradeResponse.str1.1
                0x00589d03       0x2c src/amu_common/flashinator.o
 .rodata.upgradeHexInfoOutputOnOff.str1.1
                0x00589d2f       0x49 src/amu_common/flashinator.o
 .rodata.upgradeInfoOutputOnOff.str1.1
                0x00589d78       0x44 src/amu_common/flashinator.o
 .rodata.upgradeStateMachine.str1.1
                0x00589dbc       0x18 src/amu_common/flashinator.o
                                 0x1d (size before relaxing)
 .rodata.COUNTERS_CMD
                0x00589dd4        0x9 src/apparent.o
                0x00589dd4                COUNTERS_CMD
 *fill*         0x00589ddd        0x3 
 .rodata.CRC32_TABLE
                0x00589de0      0x400 src/apparent.o
 .rodata.DISABLE_UPGRADE_HEX_INFO_CMD
                0x0058a1e0       0x19 src/apparent.o
                0x0058a1e0                DISABLE_UPGRADE_HEX_INFO_CMD
 .rodata.DISABLE_UPGRADE_INFO_CMD
                0x0058a1f9       0x15 src/apparent.o
                0x0058a1f9                DISABLE_UPGRADE_INFO_CMD
 .rodata.DISPLAY_BOOTLOADER_BANNER_CMD
                0x0058a20e        0x7 src/apparent.o
                0x0058a20e                DISPLAY_BOOTLOADER_BANNER_CMD
 .rodata.DISPLAY_HELP_CMD
                0x0058a215        0x9 src/apparent.o
                0x0058a215                DISPLAY_HELP_CMD
 .rodata.DISPLAY_PROGRAM_SIGNATURES_CMD
                0x0058a21e       0x1b src/apparent.o
                0x0058a21e                DISPLAY_PROGRAM_SIGNATURES_CMD
 .rodata.DROP_UPGRADE_DATA_PACKET_CMD
                0x0058a239       0x19 src/apparent.o
                0x0058a239                DROP_UPGRADE_DATA_PACKET_CMD
 .rodata.DROP_UPGRADE_PACKET_ACK_CMD
                0x0058a252       0x18 src/apparent.o
                0x0058a252                DROP_UPGRADE_PACKET_ACK_CMD
 .rodata.ENABLE_UPGRADE_HEX_INFO_CMD
                0x0058a26a       0x18 src/apparent.o
                0x0058a26a                ENABLE_UPGRADE_HEX_INFO_CMD
 .rodata.ENABLE_UPGRADE_INFO_CMD
                0x0058a282       0x14 src/apparent.o
                0x0058a282                ENABLE_UPGRADE_INFO_CMD
 .rodata.GET_AUTONOMOUS_EVENTS_CMD
                0x0058a296       0x10 src/apparent.o
                0x0058a296                GET_AUTONOMOUS_EVENTS_CMD
 .rodata.KEEP_ALIVE_HELLO_CMD
                0x0058a2a6        0x6 src/apparent.o
                0x0058a2a6                KEEP_ALIVE_HELLO_CMD
 .rodata.NOP_CMD
                0x0058a2ac        0x9 src/apparent.o
                0x0058a2ac                NOP_CMD
 .rodata.PROGRAM_CMD
                0x0058a2b5        0x8 src/apparent.o
                0x0058a2b5                PROGRAM_CMD
 .rodata.RESET_CMD
                0x0058a2bd        0x6 src/apparent.o
                0x0058a2bd                RESET_CMD
 .rodata.SET_LOCAL_TESTING_CMD
                0x0058a2c3       0x12 src/apparent.o
                0x0058a2c3                SET_LOCAL_TESTING_CMD
 .rodata.UPGRADE_CMD
                0x0058a2d5        0x8 src/apparent.o
                0x0058a2d5                UPGRADE_CMD
 .rodata.checkCraftUserInput.str1.1
                0x0058a2dd       0x16 src/apparent.o
                                 0x19 (size before relaxing)
 .rodata.checkSbcComUserInput.str1.1
                0x0058a2f3      0x479 src/apparent.o
                                0x4c6 (size before relaxing)
 .rodata.displayApparentBootLoaderBanner.str1.1
                0x0058a76c      0x158 src/apparent.o
 .rodata.displayEndOfOutput.str1.1
                0x0058a8c4       0x10 src/apparent.o
 .rodata.displayFlashSignatures.str1.1
                0x0058a8d4       0x1f src/apparent.o
 .rodata.displaySbcDebugGameOnNotice.str1.1
                0x0058a8f3       0x10 src/apparent.o
 .rodata.readOneProgramFlashSignature.str1.1
                0x0058a903       0x49 src/apparent.o
 .rodata.AMU_CODING_ERROR_STRING
                0x0058a94c       0x1a src/apparent_strings.o
                0x0058a94c                AMU_CODING_ERROR_STRING
 .rodata.AMU_COUNTERS_STRING
                0x0058a966        0xf src/apparent_strings.o
                0x0058a966                AMU_COUNTERS_STRING
 .rodata.APPLICATION_STRING
                0x0058a975        0xe src/apparent_strings.o
                0x0058a975                APPLICATION_STRING
 .rodata.ARGUMENTS_STRING
                0x0058a983        0xc src/apparent_strings.o
                0x0058a983                ARGUMENTS_STRING
 .rodata.AUTONOMOUS_EVENTS_LIST_STRING
                0x0058a98f       0x13 src/apparent_strings.o
                0x0058a98f                AUTONOMOUS_EVENTS_LIST_STRING
 .rodata.BOOTLOADER_STRING
                0x0058a9a2        0xd src/apparent_strings.o
                0x0058a9a2                BOOTLOADER_STRING
 .rodata.CANCEL_DATA_PKT_STATE_ACK_STRING
                0x0058a9af       0x22 src/apparent_strings.o
                0x0058a9af                CANCEL_DATA_PKT_STATE_ACK_STRING
 .rodata.CANCEL_IDLE_STATE_ACK_STRING
                0x0058a9d1       0x1b src/apparent_strings.o
                0x0058a9d1                CANCEL_IDLE_STATE_ACK_STRING
 .rodata.CANCEL_WAIT_COMMIT_STATE_ACK_STRING
                0x0058a9ec       0x22 src/apparent_strings.o
                0x0058a9ec                CANCEL_WAIT_COMMIT_STATE_ACK_STRING
 .rodata.CANCEL_WAIT_END_TRANSFER_STATE_ACK_STRING
                0x0058aa0e       0x28 src/apparent_strings.o
                0x0058aa0e                CANCEL_WAIT_END_TRANSFER_STATE_ACK_STRING
 .rodata.CLI_ARG_COMMAND_STRING
                0x0058aa36        0x8 src/apparent_strings.o
                0x0058aa36                CLI_ARG_COMMAND_STRING
 .rodata.CLI_ARG_DATA_EQUAL_STRING
                0x0058aa3e        0x6 src/apparent_strings.o
                0x0058aa3e                CLI_ARG_DATA_EQUAL_STRING
 .rodata.CLI_ARG_UPGRADE_CANCEL_STRING
                0x0058aa44        0x7 src/apparent_strings.o
                0x0058aa44                CLI_ARG_UPGRADE_CANCEL_STRING
 .rodata.CLI_ARG_UPGRADE_COMMIT_STRING
                0x0058aa4b        0x7 src/apparent_strings.o
                0x0058aa4b                CLI_ARG_UPGRADE_COMMIT_STRING
 .rodata.CLI_ARG_UPGRADE_DATA_STRING
                0x0058aa52        0x5 src/apparent_strings.o
                0x0058aa52                CLI_ARG_UPGRADE_DATA_STRING
 .rodata.CLI_ARG_UPGRADE_END_STRING
                0x0058aa57        0x4 src/apparent_strings.o
                0x0058aa57                CLI_ARG_UPGRADE_END_STRING
 .rodata.CLI_ARG_UPGRADE_START_STRING
                0x0058aa5b        0x6 src/apparent_strings.o
                0x0058aa5b                CLI_ARG_UPGRADE_START_STRING
 .rodata.CLI_ARG_UPGRADE_STATS_STRING
                0x0058aa61        0x6 src/apparent_strings.o
                0x0058aa61                CLI_ARG_UPGRADE_STATS_STRING
 .rodata.CLI_COMMAND_EQUAL_NOT_FOUND_STRING
                0x0058aa67       0x1a src/apparent_strings.o
                0x0058aa67                CLI_COMMAND_EQUAL_NOT_FOUND_STRING
 .rodata.CLI_DATA_EQUAL_NOT_FOUND_STRING
                0x0058aa81       0x17 src/apparent_strings.o
                0x0058aa81                CLI_DATA_EQUAL_NOT_FOUND_STRING
 .rodata.CLI_DATA_FIELD_TOO_LONG_STRING
                0x0058aa98       0x16 src/apparent_strings.o
                0x0058aa98                CLI_DATA_FIELD_TOO_LONG_STRING
 .rodata.CLI_INVALID_UPGRADE_COMMAND_STRING
                0x0058aaae       0x1a src/apparent_strings.o
                0x0058aaae                CLI_INVALID_UPGRADE_COMMAND_STRING
 .rodata.CLI_STRING
                0x0058aac8        0x6 src/apparent_strings.o
                0x0058aac8                CLI_STRING
 .rodata.CODE_STRING
                0x0058aace        0x7 src/apparent_strings.o
                0x0058aace                CODE_STRING
 .rodata.COMMAND_STRING
                0x0058aad5        0xa src/apparent_strings.o
                0x0058aad5                COMMAND_STRING
 .rodata.COMMIT_FAIL_NACK_STRING
                0x0058aadf       0x13 src/apparent_strings.o
                0x0058aadf                COMMIT_FAIL_NACK_STRING
 .rodata.COUNT_STRING
                0x0058aaf2        0x8 src/apparent_strings.o
                0x0058aaf2                COUNT_STRING
 .rodata.DATA_RECORD_NOT_WHOLE_LONGS_NACK_STRING
                0x0058aafa       0x23 src/apparent_strings.o
                0x0058aafa                DATA_RECORD_NOT_WHOLE_LONGS_NACK_STRING
 .rodata.DATA_START_ADDRESS_NOT_ZERO_NACK_STRING
                0x0058ab1d       0x23 src/apparent_strings.o
                0x0058ab1d                DATA_START_ADDRESS_NOT_ZERO_NACK_STRING
 .rodata.DATA_START_INVALID_LENGTH_NACK_STRING
                0x0058ab40       0x2d src/apparent_strings.o
                0x0058ab40                DATA_START_INVALID_LENGTH_NACK_STRING
 .rodata.END_ACK_STRING
                0x0058ab6d        0xa src/apparent_strings.o
                0x0058ab6d                END_ACK_STRING
 .rodata.END_ADDRESS_WITHIN_BOOT_ZONE_NACK_STRING
                0x0058ab77       0x24 src/apparent_strings.o
                0x0058ab77                END_ADDRESS_WITHIN_BOOT_ZONE_NACK_STRING
 .rodata.END_OF_INPUT_SIGNATURE_STRING
                0x0058ab9b        0xd src/apparent_strings.o
                0x0058ab9b                END_OF_INPUT_SIGNATURE_STRING
 .rodata.END_OF_OUTPUT_SIGNATURE_STRING
                0x0058aba8        0xe src/apparent_strings.o
                0x0058aba8                END_OF_OUTPUT_SIGNATURE_STRING
 .rodata.EOF_RECORD_INVALID_STRUCTURE_NACK_STRING
                0x0058abb6       0x24 src/apparent_strings.o
                0x0058abb6                EOF_RECORD_INVALID_STRUCTURE_NACK_STRING
 .rodata.EXPECTED_DATA_RECORD_NACK_STRING
                0x0058abda       0x20 src/apparent_strings.o
                0x0058abda                EXPECTED_DATA_RECORD_NACK_STRING
 .rodata.EXPECTED_END_OF_FILE_RECORD_NACK_STRING
                0x0058abfa       0x27 src/apparent_strings.o
                0x0058abfa                EXPECTED_END_OF_FILE_RECORD_NACK_STRING
 .rodata.EXPECTED_EXT_SEG_ADDR_RECORD_NACK_STRING
                0x0058ac21       0x28 src/apparent_strings.o
                0x0058ac21                EXPECTED_EXT_SEG_ADDR_RECORD_NACK_STRING
 .rodata.FAIL_STRING
                0x0058ac49        0x7 src/apparent_strings.o
                0x0058ac49                FAIL_STRING
 .rodata.FINAL_COMMIT_ACK_STRING
                0x0058ac50        0xd src/apparent_strings.o
                0x0058ac50                FINAL_COMMIT_ACK_STRING
 .rodata.FLASH_ADDRESS_LOW_ZONE_NACK_STRING
                0x0058ac5d       0x1e src/apparent_strings.o
                0x0058ac5d                FLASH_ADDRESS_LOW_ZONE_NACK_STRING
 .rodata.FLASH_ADDR_CRC_STRING
                0x0058ac7b       0x11 src/apparent_strings.o
                0x0058ac7b                FLASH_ADDR_CRC_STRING
 .rodata.FLASH_APP_SIGNATURE_ERASE_FAIL_NACK_STRING
                0x0058ac8c       0x26 src/apparent_strings.o
                0x0058ac8c                FLASH_APP_SIGNATURE_ERASE_FAIL_NACK_STRING
 .rodata.FLASH_LOAD_ADDRESS_STRING
                0x0058acb2       0x15 src/apparent_strings.o
                0x0058acb2                FLASH_LOAD_ADDRESS_STRING
 .rodata.FLASH_SIGNATURES_STRING
                0x0058acc7       0x13 src/apparent_strings.o
                0x0058acc7                FLASH_SIGNATURES_STRING
 .rodata.HEX_CHARACTER_NOT_HEX_NACK_STRING
                0x0058acda       0x1d src/apparent_strings.o
                0x0058acda                HEX_CHARACTER_NOT_HEX_NACK_STRING
 .rodata.INTERIM_HOLDING_BLOCK_COMMIT_FAIL_NACK_STRING
                0x0058acf7       0x2d src/apparent_strings.o
                0x0058acf7                INTERIM_HOLDING_BLOCK_COMMIT_FAIL_NACK_STRING
 .rodata.INVALID_COMMAND_IN_COMMIT_STATE_NACK_STRING
                0x0058ad24       0x2f src/apparent_strings.o
                0x0058ad24                INVALID_COMMAND_IN_COMMIT_STATE_NACK_STRING
 .rodata.INVALID_COMMAND_STRING
                0x0058ad53       0x12 src/apparent_strings.o
                0x0058ad53                INVALID_COMMAND_STRING
 .rodata.INVAL_CMD_END_TRANSFER_STATE_NACK_STRING
                0x0058ad65       0x35 src/apparent_strings.o
                0x0058ad65                INVAL_CMD_END_TRANSFER_STATE_NACK_STRING
 .rodata.INVAL_CMD_IDLE_STATE_NACK_STRING
                0x0058ad9a       0x2d src/apparent_strings.o
                0x0058ad9a                INVAL_CMD_IDLE_STATE_NACK_STRING
 .rodata.INVAL_CMD_NEXT_DATA_PKT_STATE_NACK_STRING
                0x0058adc7       0x36 src/apparent_strings.o
                0x0058adc7                INVAL_CMD_NEXT_DATA_PKT_STATE_NACK_STRING
 .rodata.INVAL_STATE_MACHINE_COMMAND_NACK_STRING
                0x0058adfd       0x25 src/apparent_strings.o
                0x0058adfd                INVAL_STATE_MACHINE_COMMAND_NACK_STRING
 .rodata.LAST_HOLDING_BLOCK_COMMIT_FAIL_NACK_STRING
                0x0058ae22       0x2a src/apparent_strings.o
                0x0058ae22                LAST_HOLDING_BLOCK_COMMIT_FAIL_NACK_STRING
 .rodata.NONE_STRING
                0x0058ae4c        0x7 src/apparent_strings.o
                0x0058ae4c                NONE_STRING
 .rodata.PROGRAM_STRING
                0x0058ae53        0xa src/apparent_strings.o
                0x0058ae53                PROGRAM_STRING
 .rodata.RANK_STRING
                0x0058ae5d        0x7 src/apparent_strings.o
                0x0058ae5d                RANK_STRING
 .rodata.READ_FLASH_TO_HOLDING_FAIL_NACK_STRING
                0x0058ae64       0x22 src/apparent_strings.o
                0x0058ae64                READ_FLASH_TO_HOLDING_FAIL_NACK_STRING
 .rodata.RECEIVE_ACK_STRING
                0x0058ae86        0xe src/apparent_strings.o
                0x0058ae86                RECEIVE_ACK_STRING
 .rodata.RELATIVE_ADDR_NOT_ZERO_NACK_STRING
                0x0058ae94       0x1e src/apparent_strings.o
                0x0058ae94                RELATIVE_ADDR_NOT_ZERO_NACK_STRING
 .rodata.RELATIVE_ADDR_OUT_OF_SEQUENCE_NACK_STRING
                0x0058aeb2       0x25 src/apparent_strings.o
                0x0058aeb2                RELATIVE_ADDR_OUT_OF_SEQUENCE_NACK_STRING
 .rodata.RELEASE_STRING
                0x0058aed7        0xa src/apparent_strings.o
                0x0058aed7                RELEASE_STRING
 .rodata.RESET_INFO_STRING
                0x0058aee1        0xd src/apparent_strings.o
                0x0058aee1                RESET_INFO_STRING
 .rodata.RESET_IN_5_SECONDS_STRING
                0x0058aeee       0x15 src/apparent_strings.o
                0x0058aeee                RESET_IN_5_SECONDS_STRING
 .rodata.RESET_REASON_BACKUP_STRING
                0x0058af03        0x9 src/apparent_strings.o
                0x0058af03                RESET_REASON_BACKUP_STRING
 .rodata.RESET_REASON_GENERAL_STRING
                0x0058af0c        0xa src/apparent_strings.o
                0x0058af0c                RESET_REASON_GENERAL_STRING
 .rodata.RESET_REASON_NRST_LOW_STRING
                0x0058af16        0xb src/apparent_strings.o
                0x0058af16                RESET_REASON_NRST_LOW_STRING
 .rodata.RESET_REASON_SOFTWARE_STRING
                0x0058af21        0xb src/apparent_strings.o
                0x0058af21                RESET_REASON_SOFTWARE_STRING
 .rodata.RESET_REASON_UNKNOWN_STRING
                0x0058af2c        0xa src/apparent_strings.o
                0x0058af2c                RESET_REASON_UNKNOWN_STRING
 .rodata.RESET_REASON_WATCHDOG_STRING
                0x0058af36        0xb src/apparent_strings.o
                0x0058af36                RESET_REASON_WATCHDOG_STRING
 .rodata.RESET_STRING
                0x0058af41        0x8 src/apparent_strings.o
                0x0058af41                RESET_STRING
 .rodata.RESPONSE_STRING
                0x0058af49        0xb src/apparent_strings.o
                0x0058af49                RESPONSE_STRING
 .rodata.RESULT_STRING
                0x0058af54        0x9 src/apparent_strings.o
                0x0058af54                RESULT_STRING
 .rodata.SAME70_RESET_REASON_STRING
                0x0058af5d       0x16 src/apparent_strings.o
                0x0058af5d                SAME70_RESET_REASON_STRING
 .rodata.SEGMENT_ADDRESS_INVAL_LENGTH_NACK_STRING
                0x0058af73       0x24 src/apparent_strings.o
                0x0058af73                SEGMENT_ADDRESS_INVAL_LENGTH_NACK_STRING
 .rodata.SEG_ADDR_BUT_HOLD_BUFF_NOT_EMPTY_NACK_STRING
                0x0058af97       0x30 src/apparent_strings.o
                0x0058af97                SEG_ADDR_BUT_HOLD_BUFF_NOT_EMPTY_NACK_STRING
 .rodata.SEG_ADDR_INVALID_LENGTH_NACK_STRING
                0x0058afc7       0x2b src/apparent_strings.o
                0x0058afc7                SEG_ADDR_INVALID_LENGTH_NACK_STRING
 .rodata.SM_IDLE_STATE_STRING
                0x0058aff2        0x7 src/apparent_strings.o
                0x0058aff2                SM_IDLE_STATE_STRING
 .rodata.SM_INVALID_STATE_STRING
                0x0058aff9        0xa src/apparent_strings.o
                0x0058aff9                SM_INVALID_STATE_STRING
 .rodata.SM_WAIT_APP_FINAL_COMMIT_STATE_STRING
                0x0058b003       0x18 src/apparent_strings.o
                0x0058b003                SM_WAIT_APP_FINAL_COMMIT_STATE_STRING
 .rodata.SM_WAIT_END_TRANSFER_STATE_STRING
                0x0058b01b       0x14 src/apparent_strings.o
                0x0058b01b                SM_WAIT_END_TRANSFER_STATE_STRING
 .rodata.SM_WAIT_NEXT_DATA_PACKET_STATE_STRING
                0x0058b02f       0x18 src/apparent_strings.o
                0x0058b02f                SM_WAIT_NEXT_DATA_PACKET_STATE_STRING
 .rodata.START_ACK_STRING
                0x0058b047        0xc src/apparent_strings.o
                0x0058b047                START_ACK_STRING
 .rodata.START_ADDRESS_WITHIN_BOOT_ZONE_NACK_STRING
                0x0058b053       0x26 src/apparent_strings.o
                0x0058b053                START_ADDRESS_WITHIN_BOOT_ZONE_NACK_STRING
 .rodata.START_EXT_SEG_ADDR_INVALID_NACK_STRING
                0x0058b079       0x2e src/apparent_strings.o
                0x0058b079                START_EXT_SEG_ADDR_INVALID_NACK_STRING
 .rodata.STATE_STRING
                0x0058b0a7        0x8 src/apparent_strings.o
                0x0058b0a7                STATE_STRING
 .rodata.STATS_ACK_STRING
                0x0058b0af        0xc src/apparent_strings.o
                0x0058b0af                STATS_ACK_STRING
 .rodata.SUCCESS_STRING
                0x0058b0bb        0xa src/apparent_strings.o
                0x0058b0bb                SUCCESS_STRING
 .rodata.UNEXPECTED_SLA_RECORD_NACK_STRING
                0x0058b0c5       0x2f src/apparent_strings.o
                0x0058b0c5                UNEXPECTED_SLA_RECORD_NACK_STRING
 .rodata.UPGRADE_PACKET_SIZE_STRING
                0x0058b0f4       0x16 src/apparent_strings.o
                0x0058b0f4                UPGRADE_PACKET_SIZE_STRING
 .rodata.UPGRADE_STATE_MACHINE_STRING
                0x0058b10a       0x18 src/apparent_strings.o
                0x0058b10a                UPGRADE_STATE_MACHINE_STRING
 .rodata.UPTIME_STRING
                0x0058b122       0x10 src/apparent_strings.o
                0x0058b122                UPTIME_STRING
 .rodata.WRITE_HOLD_TO_FLASH_GENERIC_FAIL_NACK_STRING
                0x0058b132       0x28 src/apparent_strings.o
                0x0058b132                WRITE_HOLD_TO_FLASH_GENERIC_FAIL_NACK_STRING
 .rodata.XFER_COMPONENT_CHECKSUM_FAIL_NACK_STRING
                0x0058b15a       0x24 src/apparent_strings.o
                0x0058b15a                XFER_COMPONENT_CHECKSUM_FAIL_NACK_STRING
 .rodata.XFER_COMPONENT_EVEN_LENGTH_NACK_STRING
                0x0058b17e       0x22 src/apparent_strings.o
                0x0058b17e                XFER_COMPONENT_EVEN_LENGTH_NACK_STRING
 .rodata.XFER_COMPONENT_HEX_CONVERT_FAIL_NACK_STRING
                0x0058b1a0       0x27 src/apparent_strings.o
                0x0058b1a0                XFER_COMPONENT_HEX_CONVERT_FAIL_NACK_STRING
 .rodata.XFER_COMPONENT_MISSING_COLON_NACK_STRING
                0x0058b1c7       0x24 src/apparent_strings.o
                0x0058b1c7                XFER_COMPONENT_MISSING_COLON_NACK_STRING
 .rodata.XFER_PACKET_COMPONENT_TOO_LONG_NACK_STRING
                0x0058b1eb       0x26 src/apparent_strings.o
                0x0058b1eb                XFER_PACKET_COMPONENT_TOO_LONG_NACK_STRING
 *fill*         0x0058b211        0x1 
 .rodata.CSWTCH.4
                0x0058b212        0x6 src/ASF/sam/drivers/pmc/pmc.o
 .rodata._global_impure_ptr
                0x0058b218        0x4 c:/program files (x86)/atmel/studio/7.0/toolchain/arm/arm-gnu-toolchain/bin/../lib/gcc/arm-none-eabi/6.3.1/../../../../arm-none-eabi/lib/thumb/v7e-m\libc.a(lib_a-impure.o)
                0x0058b218                _global_impure_ptr
 .rodata._svfprintf_r.str1.4
                0x0058b21c       0x42 c:/program files (x86)/atmel/studio/7.0/toolchain/arm/arm-gnu-toolchain/bin/../lib/gcc/arm-none-eabi/6.3.1/../../../../arm-none-eabi/lib/thumb/v7e-m\libc.a(lib_a-svfprintf.o)
 *fill*         0x0058b25e        0x2 
 .rodata.blanks.7223
                0x0058b260       0x10 c:/program files (x86)/atmel/studio/7.0/toolchain/arm/arm-gnu-toolchain/bin/../lib/gcc/arm-none-eabi/6.3.1/../../../../arm-none-eabi/lib/thumb/v7e-m\libc.a(lib_a-svfprintf.o)
 .rodata.zeroes.7224
                0x0058b270       0x10 c:/program files (x86)/atmel/studio/7.0/toolchain/arm/arm-gnu-toolchain/bin/../lib/gcc/arm-none-eabi/6.3.1/../../../../arm-none-eabi/lib/thumb/v7e-m\libc.a(lib_a-svfprintf.o)
 .rodata._vfiprintf_r.str1.4
                0x0058b280       0x2f c:/program files (x86)/atmel/studio/7.0/toolchain/arm/arm-gnu-toolchain/bin/../lib/gcc/arm-none-eabi/6.3.1/../../../../arm-none-eabi/lib/thumb/v7e-m\libc.a(lib_a-vfiprintf.o)
 .rodata.blanks.7217
                0x0058b280       0x10 c:/program files (x86)/atmel/studio/7.0/toolchain/arm/arm-gnu-toolchain/bin/../lib/gcc/arm-none-eabi/6.3.1/../../../../arm-none-eabi/lib/thumb/v7e-m\libc.a(lib_a-vfiprintf.o)
 .rodata.zeroes.7218
                0x0058b290       0x10 c:/program files (x86)/atmel/studio/7.0/toolchain/arm/arm-gnu-toolchain/bin/../lib/gcc/arm-none-eabi/6.3.1/../../../../arm-none-eabi/lib/thumb/v7e-m\libc.a(lib_a-vfiprintf.o)
 .rodata._dtoa_r.str1.4
                0x0058b2a0       0x10 c:/program files (x86)/atmel/studio/7.0/toolchain/arm/arm-gnu-toolchain/bin/../lib/gcc/arm-none-eabi/6.3.1/../../../../arm-none-eabi/lib/thumb/v7e-m\libc.a(lib_a-dtoa.o)
                                 0x12 (size before relaxing)
 .rodata._setlocale_r.str1.4
                0x0058b2b0        0xa c:/program files (x86)/atmel/studio/7.0/toolchain/arm/arm-gnu-toolchain/bin/../lib/gcc/arm-none-eabi/6.3.1/../../../../arm-none-eabi/lib/thumb/v7e-m\libc.a(lib_a-locale.o)
                                  0xd (size before relaxing)
 *fill*         0x0058b2ba        0x2 
 .rodata.str1.4
                0x0058b2bc        0x4 c:/program files (x86)/atmel/studio/7.0/toolchain/arm/arm-gnu-toolchain/bin/../lib/gcc/arm-none-eabi/6.3.1/../../../../arm-none-eabi/lib/thumb/v7e-m\libc.a(lib_a-locale.o)
                                  0x2 (size before relaxing)
 .rodata.__mprec_bigtens
                0x0058b2c0       0x28 c:/program files (x86)/atmel/studio/7.0/toolchain/arm/arm-gnu-toolchain/bin/../lib/gcc/arm-none-eabi/6.3.1/../../../../arm-none-eabi/lib/thumb/v7e-m\libc.a(lib_a-mprec.o)
                0x0058b2c0                __mprec_bigtens
 .rodata.__mprec_tens
                0x0058b2e8       0xc8 c:/program files (x86)/atmel/studio/7.0/toolchain/arm/arm-gnu-toolchain/bin/../lib/gcc/arm-none-eabi/6.3.1/../../../../arm-none-eabi/lib/thumb/v7e-m\libc.a(lib_a-mprec.o)
                0x0058b2e8                __mprec_tens
 .rodata.p05.6055
                0x0058b3b0        0xc c:/program files (x86)/atmel/studio/7.0/toolchain/arm/arm-gnu-toolchain/bin/../lib/gcc/arm-none-eabi/6.3.1/../../../../arm-none-eabi/lib/thumb/v7e-m\libc.a(lib_a-mprec.o)
 .rodata._ctype_
                0x0058b3bc      0x101 c:/program files (x86)/atmel/studio/7.0/toolchain/arm/arm-gnu-toolchain/bin/../lib/gcc/arm-none-eabi/6.3.1/../../../../arm-none-eabi/lib/thumb/v7e-m\libc.a(lib_a-ctype_.o)
                0x0058b3bc                _ctype_
 *(.ARM.extab* .gnu.linkonce.armextab.*)
                0x0058b4c0                . = ALIGN (0x4)
 *fill*         0x0058b4bd        0x3 
 *(.init)
 .init          0x0058b4c0        0x4 c:/program files (x86)/atmel/studio/7.0/toolchain/arm/arm-gnu-toolchain/bin/../lib/gcc/arm-none-eabi/6.3.1/thumb/v7e-m/crti.o
                0x0058b4c0                _init
 .init          0x0058b4c4        0x8 c:/program files (x86)/atmel/studio/7.0/toolchain/arm/arm-gnu-toolchain/bin/../lib/gcc/arm-none-eabi/6.3.1/thumb/v7e-m/crtn.o
                0x0058b4cc                . = ALIGN (0x4)
                0x0058b4cc                __preinit_array_start = .
 *(.preinit_array)
                0x0058b4cc                __preinit_array_end = .
                0x0058b4cc                . = ALIGN (0x4)
                0x0058b4cc                __init_array_start = .
 *(SORT(.init_array.*))
 .init_array.00000
                0x0058b4cc        0x4 c:/program files (x86)/atmel/studio/7.0/toolchain/arm/arm-gnu-toolchain/bin/../lib/gcc/arm-none-eabi/6.3.1/../../../../arm-none-eabi/lib/thumb/v7e-m\libc.a(lib_a-__call_atexit.o)
 *(.init_array)
 .init_array    0x0058b4d0        0x4 c:/program files (x86)/atmel/studio/7.0/toolchain/arm/arm-gnu-toolchain/bin/../lib/gcc/arm-none-eabi/6.3.1/thumb/v7e-m/crtbegin.o
                0x0058b4d4                __init_array_end = .
                0x0058b4d4                . = ALIGN (0x4)
 *crtbegin.o(.ctors)
 *(EXCLUDE_FILE(*crtend.o) .ctors)
 *(SORT(.ctors.*))
 *crtend.o(.ctors)
                0x0058b4d4                . = ALIGN (0x4)
 *(.fini)
 .fini          0x0058b4d4        0x4 c:/program files (x86)/atmel/studio/7.0/toolchain/arm/arm-gnu-toolchain/bin/../lib/gcc/arm-none-eabi/6.3.1/thumb/v7e-m/crti.o
                0x0058b4d4                _fini
 .fini          0x0058b4d8        0x8 c:/program files (x86)/atmel/studio/7.0/toolchain/arm/arm-gnu-toolchain/bin/../lib/gcc/arm-none-eabi/6.3.1/thumb/v7e-m/crtn.o
                0x0058b4e0                . = ALIGN (0x4)
                0x0058b4e0                __fini_array_start = .
 *(.fini_array)
 .fini_array    0x0058b4e0        0x4 c:/program files (x86)/atmel/studio/7.0/toolchain/arm/arm-gnu-toolchain/bin/../lib/gcc/arm-none-eabi/6.3.1/thumb/v7e-m/crtbegin.o
 *(SORT(.fini_array.*))
                0x0058b4e4                __fini_array_end = .
 *crtbegin.o(.dtors)
 *(EXCLUDE_FILE(*crtend.o) .dtors)
 *(SORT(.dtors.*))
 *crtend.o(.dtors)
                0x0058b4e4                . = ALIGN (0x4)
                0x0058b4e4                _efixed = .
                [!provide]                PROVIDE (__exidx_start, .)

.vfp11_veneer   0x0058b4e4        0x0
 .vfp11_veneer  0x0058b4e4        0x0 linker stubs

.v4_bx          0x0058b4e4        0x0
 .v4_bx         0x0058b4e4        0x0 linker stubs

.iplt           0x0058b4e4        0x0
 .iplt          0x0058b4e4        0x0 c:/program files (x86)/atmel/studio/7.0/toolchain/arm/arm-gnu-toolchain/bin/../lib/gcc/arm-none-eabi/6.3.1/thumb/v7e-m/crtbegin.o

.ARM.exidx      0x0058b4e4        0x8
 *(.ARM.exidx* .gnu.linkonce.armexidx.*)
 .ARM.exidx     0x0058b4e4        0x8 c:/program files (x86)/atmel/studio/7.0/toolchain/arm/arm-gnu-toolchain/bin/../lib/gcc/arm-none-eabi/6.3.1/thumb/v7e-m\libgcc.a(_udivmoddi4.o)
                [!provide]                PROVIDE (__exidx_end, .)

.eh_frame       0x0058b4ec        0x0
 .eh_frame      0x0058b4ec        0x0 c:/program files (x86)/atmel/studio/7.0/toolchain/arm/arm-gnu-toolchain/bin/../lib/gcc/arm-none-eabi/6.3.1/thumb/v7e-m/crtbegin.o

.rel.dyn        0x0058b4ec        0x0
 .rel.iplt      0x0058b4ec        0x0 c:/program files (x86)/atmel/studio/7.0/toolchain/arm/arm-gnu-toolchain/bin/../lib/gcc/arm-none-eabi/6.3.1/thumb/v7e-m/crtbegin.o

.jcr            0x0058b4ec        0x0
 .jcr           0x0058b4ec        0x0 c:/program files (x86)/atmel/studio/7.0/toolchain/arm/arm-gnu-toolchain/bin/../lib/gcc/arm-none-eabi/6.3.1/thumb/v7e-m/crtbegin.o

.igot.plt       0x0058b4ec        0x0
 .igot.plt      0x0058b4ec        0x0 c:/program files (x86)/atmel/studio/7.0/toolchain/arm/arm-gnu-toolchain/bin/../lib/gcc/arm-none-eabi/6.3.1/thumb/v7e-m/crtbegin.o
                0x0058b4ec                . = ALIGN (0x4)
                0x0058b4ec                _etext = .

.relocate       0x20400000      0xb10 load address 0x0058b4ec
                0x20400000                . = ALIGN (0x4)
                0x20400000                _srelocate = .
 *(.ramfunc .ramfunc.*)
 .ramfunc       0x20400000       0x7c src/ASF/sam/drivers/efc/efc.o
                0x20400000                efc_perform_read_sequence
                0x2040005c                efc_write_fmr
                0x20400060                efc_perform_fcr
 *(.data .data.*)
 .data.UPGRADE_ARG_STRING_LOOKUP
                0x2040007c       0x1c src/amu_common/flashinator.o
                0x2040007c                UPGRADE_ARG_STRING_LOOKUP
 .data.UPGRADE_RESPONSE_STRING_LOOKUP
                0x20400098       0xb0 src/amu_common/flashinator.o
                0x20400098                UPGRADE_RESPONSE_STRING_LOOKUP
 .data.UPGRADE_SM_STATE_STRING_LOOKUP
                0x20400148       0x14 src/amu_common/flashinator.o
                0x20400148                UPGRADE_SM_STATE_STRING_LOOKUP
 .data.g_interrupt_enabled
                0x2040015c        0x1 src/ASF/common/utils/interrupt/interrupt_sam_nvic.o
                0x2040015c                g_interrupt_enabled
 *fill*         0x2040015d        0x3 
 .data.SystemCoreClock
                0x20400160        0x4 src/ASF/sam/utils/cmsis/same70/source/templates/system_same70.o
                0x20400160                SystemCoreClock
 .data._impure_ptr
                0x20400164        0x4 c:/program files (x86)/atmel/studio/7.0/toolchain/arm/arm-gnu-toolchain/bin/../lib/gcc/arm-none-eabi/6.3.1/../../../../arm-none-eabi/lib/thumb/v7e-m\libc.a(lib_a-impure.o)
                0x20400164                _impure_ptr
 .data.impure_data
                0x20400168      0x428 c:/program files (x86)/atmel/studio/7.0/toolchain/arm/arm-gnu-toolchain/bin/../lib/gcc/arm-none-eabi/6.3.1/../../../../arm-none-eabi/lib/thumb/v7e-m\libc.a(lib_a-impure.o)
 .data.__atexit_recursive_mutex
                0x20400590        0x4 c:/program files (x86)/atmel/studio/7.0/toolchain/arm/arm-gnu-toolchain/bin/../lib/gcc/arm-none-eabi/6.3.1/../../../../arm-none-eabi/lib/thumb/v7e-m\libc.a(lib_a-__call_atexit.o)
                0x20400590                __atexit_recursive_mutex
 .data.__global_locale
                0x20400594      0x16c c:/program files (x86)/atmel/studio/7.0/toolchain/arm/arm-gnu-toolchain/bin/../lib/gcc/arm-none-eabi/6.3.1/../../../../arm-none-eabi/lib/thumb/v7e-m\libc.a(lib_a-locale.o)
                0x20400594                __global_locale
 .data.__malloc_av_
                0x20400700      0x408 c:/program files (x86)/atmel/studio/7.0/toolchain/arm/arm-gnu-toolchain/bin/../lib/gcc/arm-none-eabi/6.3.1/../../../../arm-none-eabi/lib/thumb/v7e-m\libc.a(lib_a-mallocr.o)
                0x20400700                __malloc_av_
 .data.__malloc_sbrk_base
                0x20400b08        0x4 c:/program files (x86)/atmel/studio/7.0/toolchain/arm/arm-gnu-toolchain/bin/../lib/gcc/arm-none-eabi/6.3.1/../../../../arm-none-eabi/lib/thumb/v7e-m\libc.a(lib_a-mallocr.o)
                0x20400b08                __malloc_sbrk_base
 .data.__malloc_trim_threshold
                0x20400b0c        0x4 c:/program files (x86)/atmel/studio/7.0/toolchain/arm/arm-gnu-toolchain/bin/../lib/gcc/arm-none-eabi/6.3.1/../../../../arm-none-eabi/lib/thumb/v7e-m\libc.a(lib_a-mallocr.o)
                0x20400b0c                __malloc_trim_threshold
                0x20400b10                . = ALIGN (0x4)
                0x20400b10                _erelocate = .

.bss            0x20400b10     0x2e54 load address 0x0058bffc
                0x20400b10                . = ALIGN (0x4)
                0x20400b10                _sbss = .
                0x20400b10                _szero = .
 *(.bss .bss.*)
 .bss           0x20400b10       0x1c c:/program files (x86)/atmel/studio/7.0/toolchain/arm/arm-gnu-toolchain/bin/../lib/gcc/arm-none-eabi/6.3.1/thumb/v7e-m/crtbegin.o
 .bss.pDebugString
                0x20400b2c       0x40 src/amu_common/flashinator.o
 .bss.amuBadEventsCountersBlock
                0x20400b6c       0x24 src/apparent.o
 .bss.inputChecksumRequired
                0x20400b90        0x1 src/apparent.o
 .bss.pCraftInputBuffer
                0x20400b91      0x100 src/apparent.o
 .bss.pSbcComInputBuffer
                0x20400c91      0x800 src/apparent.o
 *fill*         0x20401491        0x3 
 .bss.gs_interrupt_sources
                0x20401494       0x70 src/ASF/sam/drivers/pio/pio_handler.o
 .bss.gs_ul_page_buffer
                0x20401504      0x200 src/ASF/sam/flash_efc/flash_efc.o
 .bss.oneChar.10421
                0x20401704        0x1 src/ASF/sam/utils/cmsis/same70/source/templates/gcc/startup_same70.o
 .bss.oneChar.10425
                0x20401705        0x1 src/ASF/sam/utils/cmsis/same70/source/templates/gcc/startup_same70.o
 *fill*         0x20401706        0x2 
 .bss.heap.6420
                0x20401708        0x4 src/ASF/sam/utils/syscalls/gcc/syscalls.o
 .bss.g_ul_ms_ticks
                0x2040170c        0x4 src/main.o
                0x2040170c                g_ul_ms_ticks
 .bss.systemIsReady
                0x20401710        0x1 src/main.o
                0x20401710                systemIsReady
 *fill*         0x20401711        0x3 
 .bss.__malloc_current_mallinfo
                0x20401714       0x28 c:/program files (x86)/atmel/studio/7.0/toolchain/arm/arm-gnu-toolchain/bin/../lib/gcc/arm-none-eabi/6.3.1/../../../../arm-none-eabi/lib/thumb/v7e-m\libc.a(lib_a-mallocr.o)
                0x20401714                __malloc_current_mallinfo
 .bss.__malloc_max_sbrked_mem
                0x2040173c        0x4 c:/program files (x86)/atmel/studio/7.0/toolchain/arm/arm-gnu-toolchain/bin/../lib/gcc/arm-none-eabi/6.3.1/../../../../arm-none-eabi/lib/thumb/v7e-m\libc.a(lib_a-mallocr.o)
                0x2040173c                __malloc_max_sbrked_mem
 .bss.__malloc_max_total_mem
                0x20401740        0x4 c:/program files (x86)/atmel/studio/7.0/toolchain/arm/arm-gnu-toolchain/bin/../lib/gcc/arm-none-eabi/6.3.1/../../../../arm-none-eabi/lib/thumb/v7e-m\libc.a(lib_a-mallocr.o)
                0x20401740                __malloc_max_total_mem
 .bss.__malloc_top_pad
                0x20401744        0x4 c:/program files (x86)/atmel/studio/7.0/toolchain/arm/arm-gnu-toolchain/bin/../lib/gcc/arm-none-eabi/6.3.1/../../../../arm-none-eabi/lib/thumb/v7e-m\libc.a(lib_a-mallocr.o)
                0x20401744                __malloc_top_pad
 *(COMMON)
 COMMON         0x20401748     0x2186 src/amu_common/flashinator.o
                0x20401748                debugDropTheNextOutgoingPacketAck
                0x20401749                debugDropTheNextIncomingDataPacket
                0x2040174c                upgradeSmCb
                0x204018cc                flashHoldingBuffer
                0x204038cc                debugInfoOutputEnabled
                0x204038cd                debugHexRecordOutputEnabled
 *fill*         0x204038ce        0x2 
 COMMON         0x204038d0       0x1c src/amu_common/rgbLedActivity.o
                0x204038d0                ledActivityCb
                0x204038d8                rgbLedFlashingDemoCb
 COMMON         0x204038ec       0x44 src/apparent.o
                0x204038ec                same70ResetInfoDb
                0x204038f8                amuOutputChecksum
                0x204038fc                craftInputReady
                0x204038fe                charsWrittenByInterrupt
                0x20403900                inputActivelyProcessed
                0x20403904                softwareResetTimestamp
                0x20403908                softwareResetPlease
                0x2040390c                applicationLoadFlashAddress
                0x20403910                bootloaderFlashSignature
                0x20403914                sbcComInputReady
                0x20403918                bootloaderLoadFlashAddress
                0x2040391c                applicationFlashSignature
                0x20403920                sbcComEchoChar
                0x20403924                craftInputBufferRank
                0x20403928                totalUartCharsWritten
                0x2040392c                sbcComInputBufferRank
 COMMON         0x20403930        0x4 src/ASF/common/utils/stdio/read.o
                0x20403930                ptr_get
 COMMON         0x20403934        0x8 src/ASF/common/utils/stdio/write.o
                0x20403934                ptr_put
                0x20403938                stdio_base
 COMMON         0x2040393c       0x21 c:/program files (x86)/atmel/studio/7.0/toolchain/arm/arm-gnu-toolchain/bin/../lib/gcc/arm-none-eabi/6.3.1/../../../../arm-none-eabi/lib/thumb/v7e-m\libc.a(lib_a-lock.o)
                0x2040393c                __lock___atexit_recursive_mutex
                0x20403940                __lock___arc4random_mutex
                0x20403944                __lock___env_recursive_mutex
                0x20403948                __lock___sinit_recursive_mutex
                0x2040394c                __lock___malloc_recursive_mutex
                0x20403950                __lock___at_quick_exit_mutex
                0x20403954                __lock___dd_hash_mutex
                0x20403958                __lock___tz_mutex
                0x2040395c                __lock___sfp_recursive_mutex
 *fill*         0x2040395d        0x3 
 COMMON         0x20403960        0x4 c:/program files (x86)/atmel/studio/7.0/toolchain/arm/arm-gnu-toolchain/bin/../lib/gcc/arm-none-eabi/6.3.1/../../../../arm-none-eabi/lib/thumb/v7e-m\libc.a(lib_a-reent.o)
                0x20403960                errno
                0x20403964                . = ALIGN (0x4)
                0x20403964                _ebss = .
                0x20403964                _ezero = .

.stack          0x20403964     0x2004 load address 0x0058ee50
                0x20403968                . = ALIGN (0x8)
 *fill*         0x20403964        0x4 
                0x20403968                _sstack = .
                0x20405968                . = (. + STACK_SIZE)
 *fill*         0x20403968     0x2000 
                0x20405968                . = ALIGN (0x8)
                0x20405968                _estack = .

.heap           0x20405968      0x200 load address 0x00590e54
                0x20405968                . = ALIGN (0x8)
                0x20405968                _sheap = .
                0x20405b68                . = (. + HEAP_SIZE)
 *fill*         0x20405968      0x200 
                0x20405b68                . = ALIGN (0x8)
                0x20405b68                _eheap = .
                0x20405b68                . = ALIGN (0x4)
                0x20405b68                _end = .
                0x2045ffff                _ram_end_ = ((ORIGIN (ram) + LENGTH (ram)) - 0x1)
OUTPUT(AMU.elf elf32-littlearm)

.ARM.attributes
                0x00000000       0x2e
 .ARM.attributes
                0x00000000       0x1e c:/program files (x86)/atmel/studio/7.0/toolchain/arm/arm-gnu-toolchain/bin/../lib/gcc/arm-none-eabi/6.3.1/thumb/v7e-m/crti.o
 .ARM.attributes
                0x0000001e       0x2e c:/program files (x86)/atmel/studio/7.0/toolchain/arm/arm-gnu-toolchain/bin/../lib/gcc/arm-none-eabi/6.3.1/thumb/v7e-m/crtbegin.o
 .ARM.attributes
                0x0000004c       0x37 src/amu_common/flashinator.o
 .ARM.attributes
                0x00000083       0x37 src/amu_common/rgbLedActivity.o
 .ARM.attributes
                0x000000ba       0x37 src/apparent.o
 .ARM.attributes
                0x000000f1       0x37 src/apparent_strings.o
 .ARM.attributes
                0x00000128       0x37 src/ASF/common/services/clock/same70/sysclk.o
 .ARM.attributes
                0x0000015f       0x37 src/ASF/common/services/serial/usart_serial.o
 .ARM.attributes
                0x00000196       0x37 src/ASF/common/utils/interrupt/interrupt_sam_nvic.o
 .ARM.attributes
                0x000001cd       0x37 src/ASF/common/utils/stdio/read.o
 .ARM.attributes
                0x00000204       0x37 src/ASF/common/utils/stdio/write.o
 .ARM.attributes
                0x0000023b       0x37 src/ASF/sam/boards/same70_xplained/init.o
 .ARM.attributes
                0x00000272       0x37 src/ASF/sam/drivers/efc/efc.o
 .ARM.attributes
                0x000002a9       0x37 src/ASF/sam/drivers/pio/pio.o
 .ARM.attributes
                0x000002e0       0x37 src/ASF/sam/drivers/pio/pio_handler.o
 .ARM.attributes
                0x00000317       0x37 src/ASF/sam/drivers/pmc/pmc.o
 .ARM.attributes
                0x0000034e       0x37 src/ASF/sam/drivers/uart/uart.o
 .ARM.attributes
                0x00000385       0x37 src/ASF/sam/drivers/usart/usart.o
 .ARM.attributes
                0x000003bc       0x37 src/ASF/sam/flash_efc/flash_efc.o
 .ARM.attributes
                0x000003f3       0x37 src/ASF/sam/utils/cmsis/same70/source/templates/gcc/startup_same70.o
 .ARM.attributes
                0x0000042a       0x37 src/ASF/sam/utils/cmsis/same70/source/templates/system_same70.o
 .ARM.attributes
                0x00000461       0x37 src/ASF/sam/utils/syscalls/gcc/syscalls.o
 .ARM.attributes
                0x00000498       0x37 src/main.o
 .ARM.attributes
                0x000004cf       0x2e c:/program files (x86)/atmel/studio/7.0/toolchain/arm/arm-gnu-toolchain/bin/../lib/gcc/arm-none-eabi/6.3.1/../../../../arm-none-eabi/lib/thumb/v7e-m\libc.a(lib_a-atoi.o)
 .ARM.attributes
                0x000004fd       0x2e c:/program files (x86)/atmel/studio/7.0/toolchain/arm/arm-gnu-toolchain/bin/../lib/gcc/arm-none-eabi/6.3.1/../../../../arm-none-eabi/lib/thumb/v7e-m\libc.a(lib_a-impure.o)
 .ARM.attributes
                0x0000052b       0x2e c:/program files (x86)/atmel/studio/7.0/toolchain/arm/arm-gnu-toolchain/bin/../lib/gcc/arm-none-eabi/6.3.1/../../../../arm-none-eabi/lib/thumb/v7e-m\libc.a(lib_a-init.o)
 .ARM.attributes
                0x00000559       0x2e c:/program files (x86)/atmel/studio/7.0/toolchain/arm/arm-gnu-toolchain/bin/../lib/gcc/arm-none-eabi/6.3.1/../../../../arm-none-eabi/lib/thumb/v7e-m\libc.a(lib_a-iprintf.o)
 .ARM.attributes
                0x00000587       0x2e c:/program files (x86)/atmel/studio/7.0/toolchain/arm/arm-gnu-toolchain/bin/../lib/gcc/arm-none-eabi/6.3.1/../../../../arm-none-eabi/lib/thumb/v7e-m\libc.a(lib_a-memcmp.o)
 .ARM.attributes
                0x000005b5       0x1c c:/program files (x86)/atmel/studio/7.0/toolchain/arm/arm-gnu-toolchain/bin/../lib/gcc/arm-none-eabi/6.3.1/../../../../arm-none-eabi/lib/thumb/v7e-m\libc.a(lib_a-memcpy.o)
 .ARM.attributes
                0x000005d1       0x2e c:/program files (x86)/atmel/studio/7.0/toolchain/arm/arm-gnu-toolchain/bin/../lib/gcc/arm-none-eabi/6.3.1/../../../../arm-none-eabi/lib/thumb/v7e-m\libc.a(lib_a-memset.o)
 .ARM.attributes
                0x000005ff       0x2e c:/program files (x86)/atmel/studio/7.0/toolchain/arm/arm-gnu-toolchain/bin/../lib/gcc/arm-none-eabi/6.3.1/../../../../arm-none-eabi/lib/thumb/v7e-m\libc.a(lib_a-setbuf.o)
 .ARM.attributes
                0x0000062d       0x2e c:/program files (x86)/atmel/studio/7.0/toolchain/arm/arm-gnu-toolchain/bin/../lib/gcc/arm-none-eabi/6.3.1/../../../../arm-none-eabi/lib/thumb/v7e-m\libc.a(lib_a-setvbuf.o)
 .ARM.attributes
                0x0000065b       0x2e c:/program files (x86)/atmel/studio/7.0/toolchain/arm/arm-gnu-toolchain/bin/../lib/gcc/arm-none-eabi/6.3.1/../../../../arm-none-eabi/lib/thumb/v7e-m\libc.a(lib_a-sprintf.o)
 .ARM.attributes
                0x00000689       0x2e c:/program files (x86)/atmel/studio/7.0/toolchain/arm/arm-gnu-toolchain/bin/../lib/gcc/arm-none-eabi/6.3.1/../../../../arm-none-eabi/lib/thumb/v7e-m\libc.a(lib_a-strcpy.o)
 .ARM.attributes
                0x000006b7       0x1c c:/program files (x86)/atmel/studio/7.0/toolchain/arm/arm-gnu-toolchain/bin/../lib/gcc/arm-none-eabi/6.3.1/../../../../arm-none-eabi/lib/thumb/v7e-m\libc.a(lib_a-strlen.o)
 .ARM.attributes
                0x000006d3       0x2e c:/program files (x86)/atmel/studio/7.0/toolchain/arm/arm-gnu-toolchain/bin/../lib/gcc/arm-none-eabi/6.3.1/../../../../arm-none-eabi/lib/thumb/v7e-m\libc.a(lib_a-strncmp.o)
 .ARM.attributes
                0x00000701       0x2e c:/program files (x86)/atmel/studio/7.0/toolchain/arm/arm-gnu-toolchain/bin/../lib/gcc/arm-none-eabi/6.3.1/../../../../arm-none-eabi/lib/thumb/v7e-m\libc.a(lib_a-strtol.o)
 .ARM.attributes
                0x0000072f       0x2e c:/program files (x86)/atmel/studio/7.0/toolchain/arm/arm-gnu-toolchain/bin/../lib/gcc/arm-none-eabi/6.3.1/../../../../arm-none-eabi/lib/thumb/v7e-m\libc.a(lib_a-svfprintf.o)
 .ARM.attributes
                0x0000075d       0x2e c:/program files (x86)/atmel/studio/7.0/toolchain/arm/arm-gnu-toolchain/bin/../lib/gcc/arm-none-eabi/6.3.1/../../../../arm-none-eabi/lib/thumb/v7e-m\libc.a(lib_a-vfiprintf.o)
 .ARM.attributes
                0x0000078b       0x2e c:/program files (x86)/atmel/studio/7.0/toolchain/arm/arm-gnu-toolchain/bin/../lib/gcc/arm-none-eabi/6.3.1/../../../../arm-none-eabi/lib/thumb/v7e-m\libc.a(lib_a-wsetup.o)
 .ARM.attributes
                0x000007b9       0x2e c:/program files (x86)/atmel/studio/7.0/toolchain/arm/arm-gnu-toolchain/bin/../lib/gcc/arm-none-eabi/6.3.1/../../../../arm-none-eabi/lib/thumb/v7e-m\libc.a(lib_a-__call_atexit.o)
 .ARM.attributes
                0x000007e7       0x2e c:/program files (x86)/atmel/studio/7.0/toolchain/arm/arm-gnu-toolchain/bin/../lib/gcc/arm-none-eabi/6.3.1/../../../../arm-none-eabi/lib/thumb/v7e-m\libc.a(lib_a-atexit.o)
 .ARM.attributes
                0x00000815       0x2e c:/program files (x86)/atmel/studio/7.0/toolchain/arm/arm-gnu-toolchain/bin/../lib/gcc/arm-none-eabi/6.3.1/../../../../arm-none-eabi/lib/thumb/v7e-m\libc.a(lib_a-dtoa.o)
 .ARM.attributes
                0x00000843       0x2e c:/program files (x86)/atmel/studio/7.0/toolchain/arm/arm-gnu-toolchain/bin/../lib/gcc/arm-none-eabi/6.3.1/../../../../arm-none-eabi/lib/thumb/v7e-m\libc.a(lib_a-fflush.o)
 .ARM.attributes
                0x00000871       0x2e c:/program files (x86)/atmel/studio/7.0/toolchain/arm/arm-gnu-toolchain/bin/../lib/gcc/arm-none-eabi/6.3.1/../../../../arm-none-eabi/lib/thumb/v7e-m\libc.a(lib_a-findfp.o)
 .ARM.attributes
                0x0000089f       0x2e c:/program files (x86)/atmel/studio/7.0/toolchain/arm/arm-gnu-toolchain/bin/../lib/gcc/arm-none-eabi/6.3.1/../../../../arm-none-eabi/lib/thumb/v7e-m\libc.a(lib_a-fini.o)
 .ARM.attributes
                0x000008cd       0x2e c:/program files (x86)/atmel/studio/7.0/toolchain/arm/arm-gnu-toolchain/bin/../lib/gcc/arm-none-eabi/6.3.1/../../../../arm-none-eabi/lib/thumb/v7e-m\libc.a(lib_a-fputwc.o)
 .ARM.attributes
                0x000008fb       0x2e c:/program files (x86)/atmel/studio/7.0/toolchain/arm/arm-gnu-toolchain/bin/../lib/gcc/arm-none-eabi/6.3.1/../../../../arm-none-eabi/lib/thumb/v7e-m\libc.a(lib_a-freer.o)
 .ARM.attributes
                0x00000929       0x2e c:/program files (x86)/atmel/studio/7.0/toolchain/arm/arm-gnu-toolchain/bin/../lib/gcc/arm-none-eabi/6.3.1/../../../../arm-none-eabi/lib/thumb/v7e-m\libc.a(lib_a-fvwrite.o)
 .ARM.attributes
                0x00000957       0x2e c:/program files (x86)/atmel/studio/7.0/toolchain/arm/arm-gnu-toolchain/bin/../lib/gcc/arm-none-eabi/6.3.1/../../../../arm-none-eabi/lib/thumb/v7e-m\libc.a(lib_a-fwalk.o)
 .ARM.attributes
                0x00000985       0x2e c:/program files (x86)/atmel/studio/7.0/toolchain/arm/arm-gnu-toolchain/bin/../lib/gcc/arm-none-eabi/6.3.1/../../../../arm-none-eabi/lib/thumb/v7e-m\libc.a(lib_a-locale.o)
 .ARM.attributes
                0x000009b3       0x2e c:/program files (x86)/atmel/studio/7.0/toolchain/arm/arm-gnu-toolchain/bin/../lib/gcc/arm-none-eabi/6.3.1/../../../../arm-none-eabi/lib/thumb/v7e-m\libc.a(lib_a-localeconv.o)
 .ARM.attributes
                0x000009e1       0x2e c:/program files (x86)/atmel/studio/7.0/toolchain/arm/arm-gnu-toolchain/bin/../lib/gcc/arm-none-eabi/6.3.1/../../../../arm-none-eabi/lib/thumb/v7e-m\libc.a(lib_a-lock.o)
 .ARM.attributes
                0x00000a0f       0x2e c:/program files (x86)/atmel/studio/7.0/toolchain/arm/arm-gnu-toolchain/bin/../lib/gcc/arm-none-eabi/6.3.1/../../../../arm-none-eabi/lib/thumb/v7e-m\libc.a(lib_a-makebuf.o)
 .ARM.attributes
                0x00000a3d       0x2e c:/program files (x86)/atmel/studio/7.0/toolchain/arm/arm-gnu-toolchain/bin/../lib/gcc/arm-none-eabi/6.3.1/../../../../arm-none-eabi/lib/thumb/v7e-m\libc.a(lib_a-malloc.o)
 .ARM.attributes
                0x00000a6b       0x2e c:/program files (x86)/atmel/studio/7.0/toolchain/arm/arm-gnu-toolchain/bin/../lib/gcc/arm-none-eabi/6.3.1/../../../../arm-none-eabi/lib/thumb/v7e-m\libc.a(lib_a-mallocr.o)
 .ARM.attributes
                0x00000a99       0x2e c:/program files (x86)/atmel/studio/7.0/toolchain/arm/arm-gnu-toolchain/bin/../lib/gcc/arm-none-eabi/6.3.1/../../../../arm-none-eabi/lib/thumb/v7e-m\libc.a(lib_a-mbtowc_r.o)
 .ARM.attributes
                0x00000ac7       0x1c c:/program files (x86)/atmel/studio/7.0/toolchain/arm/arm-gnu-toolchain/bin/../lib/gcc/arm-none-eabi/6.3.1/../../../../arm-none-eabi/lib/thumb/v7e-m\libc.a(lib_a-memchr.o)
 .ARM.attributes
                0x00000ae3       0x2e c:/program files (x86)/atmel/studio/7.0/toolchain/arm/arm-gnu-toolchain/bin/../lib/gcc/arm-none-eabi/6.3.1/../../../../arm-none-eabi/lib/thumb/v7e-m\libc.a(lib_a-memmove.o)
 .ARM.attributes
                0x00000b11       0x2e c:/program files (x86)/atmel/studio/7.0/toolchain/arm/arm-gnu-toolchain/bin/../lib/gcc/arm-none-eabi/6.3.1/../../../../arm-none-eabi/lib/thumb/v7e-m\libc.a(lib_a-mlock.o)
 .ARM.attributes
                0x00000b3f       0x2e c:/program files (x86)/atmel/studio/7.0/toolchain/arm/arm-gnu-toolchain/bin/../lib/gcc/arm-none-eabi/6.3.1/../../../../arm-none-eabi/lib/thumb/v7e-m\libc.a(lib_a-mprec.o)
 .ARM.attributes
                0x00000b6d       0x2e c:/program files (x86)/atmel/studio/7.0/toolchain/arm/arm-gnu-toolchain/bin/../lib/gcc/arm-none-eabi/6.3.1/../../../../arm-none-eabi/lib/thumb/v7e-m\libc.a(lib_a-reallocr.o)
 .ARM.attributes
                0x00000b9b       0x2e c:/program files (x86)/atmel/studio/7.0/toolchain/arm/arm-gnu-toolchain/bin/../lib/gcc/arm-none-eabi/6.3.1/../../../../arm-none-eabi/lib/thumb/v7e-m\libc.a(lib_a-sbrkr.o)
 .ARM.attributes
                0x00000bc9       0x2e c:/program files (x86)/atmel/studio/7.0/toolchain/arm/arm-gnu-toolchain/bin/../lib/gcc/arm-none-eabi/6.3.1/../../../../arm-none-eabi/lib/thumb/v7e-m\libc.a(lib_a-stdio.o)
 .ARM.attributes
                0x00000bf7       0x2e c:/program files (x86)/atmel/studio/7.0/toolchain/arm/arm-gnu-toolchain/bin/../lib/gcc/arm-none-eabi/6.3.1/../../../../arm-none-eabi/lib/thumb/v7e-m\libc.a(lib_a-svfiprintf.o)
 .ARM.attributes
                0x00000c25       0x2e c:/program files (x86)/atmel/studio/7.0/toolchain/arm/arm-gnu-toolchain/bin/../lib/gcc/arm-none-eabi/6.3.1/../../../../arm-none-eabi/lib/thumb/v7e-m\libc.a(lib_a-wbuf.o)
 .ARM.attributes
                0x00000c53       0x2e c:/program files (x86)/atmel/studio/7.0/toolchain/arm/arm-gnu-toolchain/bin/../lib/gcc/arm-none-eabi/6.3.1/../../../../arm-none-eabi/lib/thumb/v7e-m\libc.a(lib_a-wcrtomb.o)
 .ARM.attributes
                0x00000c81       0x2e c:/program files (x86)/atmel/studio/7.0/toolchain/arm/arm-gnu-toolchain/bin/../lib/gcc/arm-none-eabi/6.3.1/../../../../arm-none-eabi/lib/thumb/v7e-m\libc.a(lib_a-wctomb_r.o)
 .ARM.attributes
                0x00000caf       0x2e c:/program files (x86)/atmel/studio/7.0/toolchain/arm/arm-gnu-toolchain/bin/../lib/gcc/arm-none-eabi/6.3.1/../../../../arm-none-eabi/lib/thumb/v7e-m\libc.a(lib_a-writer.o)
 .ARM.attributes
                0x00000cdd       0x2e c:/program files (x86)/atmel/studio/7.0/toolchain/arm/arm-gnu-toolchain/bin/../lib/gcc/arm-none-eabi/6.3.1/../../../../arm-none-eabi/lib/thumb/v7e-m\libc.a(lib_a-__atexit.o)
 .ARM.attributes
                0x00000d0b       0x2e c:/program files (x86)/atmel/studio/7.0/toolchain/arm/arm-gnu-toolchain/bin/../lib/gcc/arm-none-eabi/6.3.1/../../../../arm-none-eabi/lib/thumb/v7e-m\libc.a(lib_a-callocr.o)
 .ARM.attributes
                0x00000d39       0x2e c:/program files (x86)/atmel/studio/7.0/toolchain/arm/arm-gnu-toolchain/bin/../lib/gcc/arm-none-eabi/6.3.1/../../../../arm-none-eabi/lib/thumb/v7e-m\libc.a(lib_a-closer.o)
 .ARM.attributes
                0x00000d67       0x2e c:/program files (x86)/atmel/studio/7.0/toolchain/arm/arm-gnu-toolchain/bin/../lib/gcc/arm-none-eabi/6.3.1/../../../../arm-none-eabi/lib/thumb/v7e-m\libc.a(lib_a-ctype_.o)
 .ARM.attributes
                0x00000d95       0x2e c:/program files (x86)/atmel/studio/7.0/toolchain/arm/arm-gnu-toolchain/bin/../lib/gcc/arm-none-eabi/6.3.1/../../../../arm-none-eabi/lib/thumb/v7e-m\libc.a(lib_a-fclose.o)
 .ARM.attributes
                0x00000dc3       0x2e c:/program files (x86)/atmel/studio/7.0/toolchain/arm/arm-gnu-toolchain/bin/../lib/gcc/arm-none-eabi/6.3.1/../../../../arm-none-eabi/lib/thumb/v7e-m\libc.a(lib_a-fstatr.o)
 .ARM.attributes
                0x00000df1       0x2e c:/program files (x86)/atmel/studio/7.0/toolchain/arm/arm-gnu-toolchain/bin/../lib/gcc/arm-none-eabi/6.3.1/../../../../arm-none-eabi/lib/thumb/v7e-m\libc.a(lib_a-isattyr.o)
 .ARM.attributes
                0x00000e1f       0x2e c:/program files (x86)/atmel/studio/7.0/toolchain/arm/arm-gnu-toolchain/bin/../lib/gcc/arm-none-eabi/6.3.1/../../../../arm-none-eabi/lib/thumb/v7e-m\libc.a(lib_a-lseekr.o)
 .ARM.attributes
                0x00000e4d       0x2e c:/program files (x86)/atmel/studio/7.0/toolchain/arm/arm-gnu-toolchain/bin/../lib/gcc/arm-none-eabi/6.3.1/../../../../arm-none-eabi/lib/thumb/v7e-m\libc.a(lib_a-readr.o)
 .ARM.attributes
                0x00000e7b       0x2e c:/program files (x86)/atmel/studio/7.0/toolchain/arm/arm-gnu-toolchain/bin/../lib/gcc/arm-none-eabi/6.3.1/../../../../arm-none-eabi/lib/thumb/v7e-m\libc.a(lib_a-reent.o)
 .ARM.attributes
                0x00000ea9       0x1e c:/program files (x86)/atmel/studio/7.0/toolchain/arm/arm-gnu-toolchain/bin/../lib/gcc/arm-none-eabi/6.3.1/thumb/v7e-m\libgcc.a(_arm_addsubdf3.o)
 .ARM.attributes
                0x00000ec7       0x1e c:/program files (x86)/atmel/studio/7.0/toolchain/arm/arm-gnu-toolchain/bin/../lib/gcc/arm-none-eabi/6.3.1/thumb/v7e-m\libgcc.a(_arm_muldivdf3.o)
 .ARM.attributes
                0x00000ee5       0x1e c:/program files (x86)/atmel/studio/7.0/toolchain/arm/arm-gnu-toolchain/bin/../lib/gcc/arm-none-eabi/6.3.1/thumb/v7e-m\libgcc.a(_arm_cmpdf2.o)
 .ARM.attributes
                0x00000f03       0x1e c:/program files (x86)/atmel/studio/7.0/toolchain/arm/arm-gnu-toolchain/bin/../lib/gcc/arm-none-eabi/6.3.1/thumb/v7e-m\libgcc.a(_arm_unorddf2.o)
 .ARM.attributes
                0x00000f21       0x1e c:/program files (x86)/atmel/studio/7.0/toolchain/arm/arm-gnu-toolchain/bin/../lib/gcc/arm-none-eabi/6.3.1/thumb/v7e-m\libgcc.a(_arm_fixdfsi.o)
 .ARM.attributes
                0x00000f3f       0x1e c:/program files (x86)/atmel/studio/7.0/toolchain/arm/arm-gnu-toolchain/bin/../lib/gcc/arm-none-eabi/6.3.1/thumb/v7e-m\libgcc.a(_aeabi_uldivmod.o)
 .ARM.attributes
                0x00000f5d       0x2e c:/program files (x86)/atmel/studio/7.0/toolchain/arm/arm-gnu-toolchain/bin/../lib/gcc/arm-none-eabi/6.3.1/thumb/v7e-m\libgcc.a(_udivmoddi4.o)
 .ARM.attributes
                0x00000f8b       0x1e c:/program files (x86)/atmel/studio/7.0/toolchain/arm/arm-gnu-toolchain/bin/../lib/gcc/arm-none-eabi/6.3.1/thumb/v7e-m\libgcc.a(_dvmd_tls.o)
 .ARM.attributes
                0x00000fa9       0x1e c:/program files (x86)/atmel/studio/7.0/toolchain/arm/arm-gnu-toolchain/bin/../lib/gcc/arm-none-eabi/6.3.1/thumb/v7e-m/crtn.o

.comment        0x00000000       0x59
 .comment       0x00000000       0x59 src/amu_common/flashinator.o
                                 0x5a (size before relaxing)
 .comment       0x00000059       0x5a src/amu_common/rgbLedActivity.o
 .comment       0x00000059       0x5a src/apparent.o
 .comment       0x00000059       0x5a src/apparent_strings.o
 .comment       0x00000059       0x5a src/ASF/common/services/clock/same70/sysclk.o
 .comment       0x00000059       0x5a src/ASF/common/services/serial/usart_serial.o
 .comment       0x00000059       0x5a src/ASF/common/utils/interrupt/interrupt_sam_nvic.o
 .comment       0x00000059       0x5a src/ASF/common/utils/stdio/read.o
 .comment       0x00000059       0x5a src/ASF/common/utils/stdio/write.o
 .comment       0x00000059       0x5a src/ASF/sam/boards/same70_xplained/init.o
 .comment       0x00000059       0x5a src/ASF/sam/drivers/efc/efc.o
 .comment       0x00000059       0x5a src/ASF/sam/drivers/pio/pio.o
 .comment       0x00000059       0x5a src/ASF/sam/drivers/pio/pio_handler.o
 .comment       0x00000059       0x5a src/ASF/sam/drivers/pmc/pmc.o
 .comment       0x00000059       0x5a src/ASF/sam/drivers/uart/uart.o
 .comment       0x00000059       0x5a src/ASF/sam/drivers/usart/usart.o
 .comment       0x00000059       0x5a src/ASF/sam/flash_efc/flash_efc.o
 .comment       0x00000059       0x5a src/ASF/sam/utils/cmsis/same70/source/templates/gcc/startup_same70.o
 .comment       0x00000059       0x5a src/ASF/sam/utils/cmsis/same70/source/templates/system_same70.o
 .comment       0x00000059       0x5a src/ASF/sam/utils/syscalls/gcc/syscalls.o
 .comment       0x00000059       0x5a src/main.o

.debug_frame    0x00000000     0x1538
 .debug_frame   0x00000000       0x30 c:/program files (x86)/atmel/studio/7.0/toolchain/arm/arm-gnu-toolchain/bin/../lib/gcc/arm-none-eabi/6.3.1/../../../../arm-none-eabi/lib/thumb/v7e-m\libc.a(lib_a-atoi.o)
 .debug_frame   0x00000030       0x2c c:/program files (x86)/atmel/studio/7.0/toolchain/arm/arm-gnu-toolchain/bin/../lib/gcc/arm-none-eabi/6.3.1/../../../../arm-none-eabi/lib/thumb/v7e-m\libc.a(lib_a-init.o)
 .debug_frame   0x0000005c       0x74 c:/program files (x86)/atmel/studio/7.0/toolchain/arm/arm-gnu-toolchain/bin/../lib/gcc/arm-none-eabi/6.3.1/../../../../arm-none-eabi/lib/thumb/v7e-m\libc.a(lib_a-iprintf.o)
 .debug_frame   0x000000d0       0x3c c:/program files (x86)/atmel/studio/7.0/toolchain/arm/arm-gnu-toolchain/bin/../lib/gcc/arm-none-eabi/6.3.1/../../../../arm-none-eabi/lib/thumb/v7e-m\libc.a(lib_a-memcmp.o)
 .debug_frame   0x0000010c       0x34 c:/program files (x86)/atmel/studio/7.0/toolchain/arm/arm-gnu-toolchain/bin/../lib/gcc/arm-none-eabi/6.3.1/../../../../arm-none-eabi/lib/thumb/v7e-m\libc.a(lib_a-memset.o)
 .debug_frame   0x00000140       0x20 c:/program files (x86)/atmel/studio/7.0/toolchain/arm/arm-gnu-toolchain/bin/../lib/gcc/arm-none-eabi/6.3.1/../../../../arm-none-eabi/lib/thumb/v7e-m\libc.a(lib_a-setbuf.o)
 .debug_frame   0x00000160       0x48 c:/program files (x86)/atmel/studio/7.0/toolchain/arm/arm-gnu-toolchain/bin/../lib/gcc/arm-none-eabi/6.3.1/../../../../arm-none-eabi/lib/thumb/v7e-m\libc.a(lib_a-setvbuf.o)
 .debug_frame   0x000001a8       0x84 c:/program files (x86)/atmel/studio/7.0/toolchain/arm/arm-gnu-toolchain/bin/../lib/gcc/arm-none-eabi/6.3.1/../../../../arm-none-eabi/lib/thumb/v7e-m\libc.a(lib_a-sprintf.o)
 .debug_frame   0x0000022c       0x20 c:/program files (x86)/atmel/studio/7.0/toolchain/arm/arm-gnu-toolchain/bin/../lib/gcc/arm-none-eabi/6.3.1/../../../../arm-none-eabi/lib/thumb/v7e-m\libc.a(lib_a-strcpy.o)
 .debug_frame   0x0000024c       0x54 c:/program files (x86)/atmel/studio/7.0/toolchain/arm/arm-gnu-toolchain/bin/../lib/gcc/arm-none-eabi/6.3.1/../../../../arm-none-eabi/lib/thumb/v7e-m\libc.a(lib_a-strncmp.o)
 .debug_frame   0x000002a0       0x98 c:/program files (x86)/atmel/studio/7.0/toolchain/arm/arm-gnu-toolchain/bin/../lib/gcc/arm-none-eabi/6.3.1/../../../../arm-none-eabi/lib/thumb/v7e-m\libc.a(lib_a-strtol.o)
 .debug_frame   0x00000338       0x40 c:/program files (x86)/atmel/studio/7.0/toolchain/arm/arm-gnu-toolchain/bin/../lib/gcc/arm-none-eabi/6.3.1/../../../../arm-none-eabi/lib/thumb/v7e-m\libc.a(lib_a-svfprintf.o)
 .debug_frame   0x00000378       0xd8 c:/program files (x86)/atmel/studio/7.0/toolchain/arm/arm-gnu-toolchain/bin/../lib/gcc/arm-none-eabi/6.3.1/../../../../arm-none-eabi/lib/thumb/v7e-m\libc.a(lib_a-vfiprintf.o)
 .debug_frame   0x00000450       0x2c c:/program files (x86)/atmel/studio/7.0/toolchain/arm/arm-gnu-toolchain/bin/../lib/gcc/arm-none-eabi/6.3.1/../../../../arm-none-eabi/lib/thumb/v7e-m\libc.a(lib_a-wsetup.o)
 .debug_frame   0x0000047c       0x5c c:/program files (x86)/atmel/studio/7.0/toolchain/arm/arm-gnu-toolchain/bin/../lib/gcc/arm-none-eabi/6.3.1/../../../../arm-none-eabi/lib/thumb/v7e-m\libc.a(lib_a-__call_atexit.o)
 .debug_frame   0x000004d8       0x20 c:/program files (x86)/atmel/studio/7.0/toolchain/arm/arm-gnu-toolchain/bin/../lib/gcc/arm-none-eabi/6.3.1/../../../../arm-none-eabi/lib/thumb/v7e-m\libc.a(lib_a-atexit.o)
 .debug_frame   0x000004f8       0x88 c:/program files (x86)/atmel/studio/7.0/toolchain/arm/arm-gnu-toolchain/bin/../lib/gcc/arm-none-eabi/6.3.1/../../../../arm-none-eabi/lib/thumb/v7e-m\libc.a(lib_a-dtoa.o)
 .debug_frame   0x00000580       0x5c c:/program files (x86)/atmel/studio/7.0/toolchain/arm/arm-gnu-toolchain/bin/../lib/gcc/arm-none-eabi/6.3.1/../../../../arm-none-eabi/lib/thumb/v7e-m\libc.a(lib_a-fflush.o)
 .debug_frame   0x000005dc      0x148 c:/program files (x86)/atmel/studio/7.0/toolchain/arm/arm-gnu-toolchain/bin/../lib/gcc/arm-none-eabi/6.3.1/../../../../arm-none-eabi/lib/thumb/v7e-m\libc.a(lib_a-findfp.o)
 .debug_frame   0x00000724       0x34 c:/program files (x86)/atmel/studio/7.0/toolchain/arm/arm-gnu-toolchain/bin/../lib/gcc/arm-none-eabi/6.3.1/../../../../arm-none-eabi/lib/thumb/v7e-m\libc.a(lib_a-fini.o)
 .debug_frame   0x00000758       0x94 c:/program files (x86)/atmel/studio/7.0/toolchain/arm/arm-gnu-toolchain/bin/../lib/gcc/arm-none-eabi/6.3.1/../../../../arm-none-eabi/lib/thumb/v7e-m\libc.a(lib_a-fputwc.o)
 .debug_frame   0x000007ec       0x74 c:/program files (x86)/atmel/studio/7.0/toolchain/arm/arm-gnu-toolchain/bin/../lib/gcc/arm-none-eabi/6.3.1/../../../../arm-none-eabi/lib/thumb/v7e-m\libc.a(lib_a-freer.o)
 .debug_frame   0x00000860       0x68 c:/program files (x86)/atmel/studio/7.0/toolchain/arm/arm-gnu-toolchain/bin/../lib/gcc/arm-none-eabi/6.3.1/../../../../arm-none-eabi/lib/thumb/v7e-m\libc.a(lib_a-fvwrite.o)
 .debug_frame   0x000008c8       0x54 c:/program files (x86)/atmel/studio/7.0/toolchain/arm/arm-gnu-toolchain/bin/../lib/gcc/arm-none-eabi/6.3.1/../../../../arm-none-eabi/lib/thumb/v7e-m\libc.a(lib_a-fwalk.o)
 .debug_frame   0x0000091c       0x6c c:/program files (x86)/atmel/studio/7.0/toolchain/arm/arm-gnu-toolchain/bin/../lib/gcc/arm-none-eabi/6.3.1/../../../../arm-none-eabi/lib/thumb/v7e-m\libc.a(lib_a-locale.o)
 .debug_frame   0x00000988       0x40 c:/program files (x86)/atmel/studio/7.0/toolchain/arm/arm-gnu-toolchain/bin/../lib/gcc/arm-none-eabi/6.3.1/../../../../arm-none-eabi/lib/thumb/v7e-m\libc.a(lib_a-localeconv.o)
 .debug_frame   0x000009c8       0xb0 c:/program files (x86)/atmel/studio/7.0/toolchain/arm/arm-gnu-toolchain/bin/../lib/gcc/arm-none-eabi/6.3.1/../../../../arm-none-eabi/lib/thumb/v7e-m\libc.a(lib_a-lock.o)
 .debug_frame   0x00000a78       0x68 c:/program files (x86)/atmel/studio/7.0/toolchain/arm/arm-gnu-toolchain/bin/../lib/gcc/arm-none-eabi/6.3.1/../../../../arm-none-eabi/lib/thumb/v7e-m\libc.a(lib_a-makebuf.o)
 .debug_frame   0x00000ae0       0x30 c:/program files (x86)/atmel/studio/7.0/toolchain/arm/arm-gnu-toolchain/bin/../lib/gcc/arm-none-eabi/6.3.1/../../../../arm-none-eabi/lib/thumb/v7e-m\libc.a(lib_a-malloc.o)
 .debug_frame   0x00000b10       0x58 c:/program files (x86)/atmel/studio/7.0/toolchain/arm/arm-gnu-toolchain/bin/../lib/gcc/arm-none-eabi/6.3.1/../../../../arm-none-eabi/lib/thumb/v7e-m\libc.a(lib_a-mallocr.o)
 .debug_frame   0x00000b68       0x4c c:/program files (x86)/atmel/studio/7.0/toolchain/arm/arm-gnu-toolchain/bin/../lib/gcc/arm-none-eabi/6.3.1/../../../../arm-none-eabi/lib/thumb/v7e-m\libc.a(lib_a-mbtowc_r.o)
 .debug_frame   0x00000bb4       0x30 c:/program files (x86)/atmel/studio/7.0/toolchain/arm/arm-gnu-toolchain/bin/../lib/gcc/arm-none-eabi/6.3.1/../../../../arm-none-eabi/lib/thumb/v7e-m\libc.a(lib_a-memmove.o)
 .debug_frame   0x00000be4       0x30 c:/program files (x86)/atmel/studio/7.0/toolchain/arm/arm-gnu-toolchain/bin/../lib/gcc/arm-none-eabi/6.3.1/../../../../arm-none-eabi/lib/thumb/v7e-m\libc.a(lib_a-mlock.o)
 .debug_frame   0x00000c14      0x25c c:/program files (x86)/atmel/studio/7.0/toolchain/arm/arm-gnu-toolchain/bin/../lib/gcc/arm-none-eabi/6.3.1/../../../../arm-none-eabi/lib/thumb/v7e-m\libc.a(lib_a-mprec.o)
 .debug_frame   0x00000e70       0x68 c:/program files (x86)/atmel/studio/7.0/toolchain/arm/arm-gnu-toolchain/bin/../lib/gcc/arm-none-eabi/6.3.1/../../../../arm-none-eabi/lib/thumb/v7e-m\libc.a(lib_a-reallocr.o)
 .debug_frame   0x00000ed8       0x2c c:/program files (x86)/atmel/studio/7.0/toolchain/arm/arm-gnu-toolchain/bin/../lib/gcc/arm-none-eabi/6.3.1/../../../../arm-none-eabi/lib/thumb/v7e-m\libc.a(lib_a-sbrkr.o)
 .debug_frame   0x00000f04       0x88 c:/program files (x86)/atmel/studio/7.0/toolchain/arm/arm-gnu-toolchain/bin/../lib/gcc/arm-none-eabi/6.3.1/../../../../arm-none-eabi/lib/thumb/v7e-m\libc.a(lib_a-stdio.o)
 .debug_frame   0x00000f8c       0x78 c:/program files (x86)/atmel/studio/7.0/toolchain/arm/arm-gnu-toolchain/bin/../lib/gcc/arm-none-eabi/6.3.1/../../../../arm-none-eabi/lib/thumb/v7e-m\libc.a(lib_a-svfiprintf.o)
 .debug_frame   0x00001004       0x40 c:/program files (x86)/atmel/studio/7.0/toolchain/arm/arm-gnu-toolchain/bin/../lib/gcc/arm-none-eabi/6.3.1/../../../../arm-none-eabi/lib/thumb/v7e-m\libc.a(lib_a-wbuf.o)
 .debug_frame   0x00001044       0x5c c:/program files (x86)/atmel/studio/7.0/toolchain/arm/arm-gnu-toolchain/bin/../lib/gcc/arm-none-eabi/6.3.1/../../../../arm-none-eabi/lib/thumb/v7e-m\libc.a(lib_a-wcrtomb.o)
 .debug_frame   0x000010a0       0x3c c:/program files (x86)/atmel/studio/7.0/toolchain/arm/arm-gnu-toolchain/bin/../lib/gcc/arm-none-eabi/6.3.1/../../../../arm-none-eabi/lib/thumb/v7e-m\libc.a(lib_a-wctomb_r.o)
 .debug_frame   0x000010dc       0x2c c:/program files (x86)/atmel/studio/7.0/toolchain/arm/arm-gnu-toolchain/bin/../lib/gcc/arm-none-eabi/6.3.1/../../../../arm-none-eabi/lib/thumb/v7e-m\libc.a(lib_a-writer.o)
 .debug_frame   0x00001108       0x34 c:/program files (x86)/atmel/studio/7.0/toolchain/arm/arm-gnu-toolchain/bin/../lib/gcc/arm-none-eabi/6.3.1/../../../../arm-none-eabi/lib/thumb/v7e-m\libc.a(lib_a-__atexit.o)
 .debug_frame   0x0000113c       0x28 c:/program files (x86)/atmel/studio/7.0/toolchain/arm/arm-gnu-toolchain/bin/../lib/gcc/arm-none-eabi/6.3.1/../../../../arm-none-eabi/lib/thumb/v7e-m\libc.a(lib_a-callocr.o)
 .debug_frame   0x00001164       0x2c c:/program files (x86)/atmel/studio/7.0/toolchain/arm/arm-gnu-toolchain/bin/../lib/gcc/arm-none-eabi/6.3.1/../../../../arm-none-eabi/lib/thumb/v7e-m\libc.a(lib_a-closer.o)
 .debug_frame   0x00001190       0x3c c:/program files (x86)/atmel/studio/7.0/toolchain/arm/arm-gnu-toolchain/bin/../lib/gcc/arm-none-eabi/6.3.1/../../../../arm-none-eabi/lib/thumb/v7e-m\libc.a(lib_a-fclose.o)
 .debug_frame   0x000011cc       0x2c c:/program files (x86)/atmel/studio/7.0/toolchain/arm/arm-gnu-toolchain/bin/../lib/gcc/arm-none-eabi/6.3.1/../../../../arm-none-eabi/lib/thumb/v7e-m\libc.a(lib_a-fstatr.o)
 .debug_frame   0x000011f8       0x2c c:/program files (x86)/atmel/studio/7.0/toolchain/arm/arm-gnu-toolchain/bin/../lib/gcc/arm-none-eabi/6.3.1/../../../../arm-none-eabi/lib/thumb/v7e-m\libc.a(lib_a-isattyr.o)
 .debug_frame   0x00001224       0x2c c:/program files (x86)/atmel/studio/7.0/toolchain/arm/arm-gnu-toolchain/bin/../lib/gcc/arm-none-eabi/6.3.1/../../../../arm-none-eabi/lib/thumb/v7e-m\libc.a(lib_a-lseekr.o)
 .debug_frame   0x00001250       0x2c c:/program files (x86)/atmel/studio/7.0/toolchain/arm/arm-gnu-toolchain/bin/../lib/gcc/arm-none-eabi/6.3.1/../../../../arm-none-eabi/lib/thumb/v7e-m\libc.a(lib_a-readr.o)
 .debug_frame   0x0000127c       0x58 c:/program files (x86)/atmel/studio/7.0/toolchain/arm/arm-gnu-toolchain/bin/../lib/gcc/arm-none-eabi/6.3.1/../../../../arm-none-eabi/lib/thumb/v7e-m\libc.a(lib_a-reent.o)
 .debug_frame   0x000012d4       0xac c:/program files (x86)/atmel/studio/7.0/toolchain/arm/arm-gnu-toolchain/bin/../lib/gcc/arm-none-eabi/6.3.1/thumb/v7e-m\libgcc.a(_arm_addsubdf3.o)
 .debug_frame   0x00001380       0x50 c:/program files (x86)/atmel/studio/7.0/toolchain/arm/arm-gnu-toolchain/bin/../lib/gcc/arm-none-eabi/6.3.1/thumb/v7e-m\libgcc.a(_arm_muldivdf3.o)
 .debug_frame   0x000013d0       0xc4 c:/program files (x86)/atmel/studio/7.0/toolchain/arm/arm-gnu-toolchain/bin/../lib/gcc/arm-none-eabi/6.3.1/thumb/v7e-m\libgcc.a(_arm_cmpdf2.o)
 .debug_frame   0x00001494       0x20 c:/program files (x86)/atmel/studio/7.0/toolchain/arm/arm-gnu-toolchain/bin/../lib/gcc/arm-none-eabi/6.3.1/thumb/v7e-m\libgcc.a(_arm_unorddf2.o)
 .debug_frame   0x000014b4       0x24 c:/program files (x86)/atmel/studio/7.0/toolchain/arm/arm-gnu-toolchain/bin/../lib/gcc/arm-none-eabi/6.3.1/thumb/v7e-m\libgcc.a(_arm_fixdfsi.o)
 .debug_frame   0x000014d8       0x2c c:/program files (x86)/atmel/studio/7.0/toolchain/arm/arm-gnu-toolchain/bin/../lib/gcc/arm-none-eabi/6.3.1/thumb/v7e-m\libgcc.a(_aeabi_uldivmod.o)
 .debug_frame   0x00001504       0x34 c:/program files (x86)/atmel/studio/7.0/toolchain/arm/arm-gnu-toolchain/bin/../lib/gcc/arm-none-eabi/6.3.1/thumb/v7e-m\libgcc.a(_udivmoddi4.o)

Cross Reference Table

Symbol                                            File
ACC_Handler                                       src/ASF/sam/utils/cmsis/same70/source/templates/gcc/startup_same70.o
AES_Handler                                       src/ASF/sam/utils/cmsis/same70/source/templates/gcc/startup_same70.o
AFEC0_Handler                                     src/ASF/sam/utils/cmsis/same70/source/templates/gcc/startup_same70.o
AFEC1_Handler                                     src/ASF/sam/utils/cmsis/same70/source/templates/gcc/startup_same70.o
AMU_CODING_ERROR_STRING                           src/apparent_strings.o
                                                  src/amu_common/flashinator.o
AMU_COUNTERS_STRING                               src/apparent_strings.o
                                                  src/apparent.o
AMU_STARTUP_STRING                                src/apparent_strings.o
APPLICATION_STRING                                src/apparent_strings.o
                                                  src/apparent.o
APP_SIG_ERASED_STRING                             src/apparent_strings.o
ARGUMENTS_STRING                                  src/apparent_strings.o
                                                  src/apparent.o
                                                  src/amu_common/flashinator.o
AUTONOMOUS_EVENTS_LIST_STRING                     src/apparent_strings.o
                                                  src/apparent.o
BOOTLOADER_STRING                                 src/apparent_strings.o
                                                  src/apparent.o
BusFault_Handler                                  src/ASF/sam/utils/cmsis/same70/source/templates/gcc/startup_same70.o
CANCEL_DATA_PKT_STATE_ACK_STRING                  src/apparent_strings.o
                                                  src/amu_common/flashinator.o
CANCEL_IDLE_STATE_ACK_STRING                      src/apparent_strings.o
                                                  src/amu_common/flashinator.o
CANCEL_WAIT_COMMIT_STATE_ACK_STRING               src/apparent_strings.o
                                                  src/amu_common/flashinator.o
CANCEL_WAIT_END_TRANSFER_STATE_ACK_STRING         src/apparent_strings.o
                                                  src/amu_common/flashinator.o
CCF_Handler                                       src/ASF/sam/utils/cmsis/same70/source/templates/gcc/startup_same70.o
CCW_Handler                                       src/ASF/sam/utils/cmsis/same70/source/templates/gcc/startup_same70.o
CLI_ARG_ADDR_STRING                               src/apparent_strings.o
CLI_ARG_COMMAND_STRING                            src/apparent_strings.o
                                                  src/apparent.o
CLI_ARG_COMPONENT_APP_STRING                      src/apparent_strings.o
CLI_ARG_COMPONENT_BOOT_STRING                     src/apparent_strings.o
CLI_ARG_CONFIG_STRING                             src/apparent_strings.o
CLI_ARG_DATA_EQUAL_STRING                         src/apparent_strings.o
                                                  src/apparent.o
CLI_ARG_LENGTH_STRING                             src/apparent_strings.o
CLI_ARG_LONG_STRING                               src/apparent_strings.o
CLI_ARG_PORT_STRING                               src/apparent_strings.o
CLI_ARG_UPGRADE_CANCEL_STRING                     src/apparent_strings.o
                                                  src/apparent.o
                                                  src/amu_common/flashinator.o
CLI_ARG_UPGRADE_COMMIT_STRING                     src/apparent_strings.o
                                                  src/apparent.o
                                                  src/amu_common/flashinator.o
CLI_ARG_UPGRADE_DATA_STRING                       src/apparent_strings.o
                                                  src/apparent.o
                                                  src/amu_common/flashinator.o
CLI_ARG_UPGRADE_END_STRING                        src/apparent_strings.o
                                                  src/apparent.o
                                                  src/amu_common/flashinator.o
CLI_ARG_UPGRADE_START_STRING                      src/apparent_strings.o
                                                  src/apparent.o
                                                  src/amu_common/flashinator.o
CLI_ARG_UPGRADE_STATS_STRING                      src/apparent_strings.o
                                                  src/apparent.o
                                                  src/amu_common/flashinator.o
CLI_ARG_VALUE_STRING                              src/apparent_strings.o
CLI_COMMAND_EQUAL_NOT_FOUND_STRING                src/apparent_strings.o
                                                  src/apparent.o
CLI_DATA_EQUAL_NOT_FOUND_STRING                   src/apparent_strings.o
                                                  src/apparent.o
CLI_DATA_FIELD_TOO_LONG_STRING                    src/apparent_strings.o
                                                  src/apparent.o
CLI_INPUT_COMMAND_TOO_LONG_STRING                 src/apparent_strings.o
CLI_INVALID_UPGRADE_COMMAND_STRING                src/apparent_strings.o
                                                  src/apparent.o
CLI_STRING                                        src/apparent_strings.o
                                                  src/apparent.o
                                                  src/amu_common/flashinator.o
CODE_STRING                                       src/apparent_strings.o
                                                  src/apparent.o
                                                  src/amu_common/flashinator.o
COMMAND_STRING                                    src/apparent_strings.o
                                                  src/apparent.o
                                                  src/amu_common/flashinator.o
COMMIT_FAIL_NACK_STRING                           src/apparent_strings.o
                                                  src/amu_common/flashinator.o
COUNTERS_CMD                                      src/apparent.o
COUNT_STRING                                      src/apparent_strings.o
                                                  src/apparent.o
CRC_FLASH_BLOCK_CMD                               src/apparent.o
DACC_Handler                                      src/ASF/sam/utils/cmsis/same70/source/templates/gcc/startup_same70.o
DATA_RECORD_NOT_WHOLE_LONGS_NACK_STRING           src/apparent_strings.o
                                                  src/amu_common/flashinator.o
DATA_START_ADDRESS_NOT_ZERO_NACK_STRING           src/apparent_strings.o
                                                  src/amu_common/flashinator.o
DATA_START_INVALID_LENGTH_NACK_STRING             src/apparent_strings.o
                                                  src/amu_common/flashinator.o
DEBUG_COLON_MISSING_STRING                        src/amu_common/flashinator.o
DEBUG_COMMIT_HOLD_TO_FLASH_STRING                 src/amu_common/flashinator.o
DEBUG_DROP_NEXT_INCOMING_DATA_PACKET_STRING       src/amu_common/flashinator.o
DEBUG_DROP_NEXT_OUTGOING_PACKET_ACK_STRING        src/amu_common/flashinator.o
DEBUG_DROP_THIS_STRING                            src/amu_common/flashinator.o
DEBUG_END_ADDR_WITHIN_BOOT_STRING                 src/amu_common/flashinator.o
DEBUG_EXT_SEGMENT_ADDRESS_STRING                  src/amu_common/flashinator.o
DEBUG_FINAL_APP_COMMIT_STRING                     src/amu_common/flashinator.o
DEBUG_FINAL_BOOT_0_COMMIT_STRING                  src/amu_common/flashinator.o
DEBUG_FINAL_BOOT_1_COMMIT_STRING                  src/amu_common/flashinator.o
DEBUG_FLASH_FLASH_CRC_FAILED_STRING               src/amu_common/flashinator.o
DEBUG_FLASH_HOLD_CRC_FAILED_STRING                src/amu_common/flashinator.o
DEBUG_HOLDING_TO_FLASH_STRING                     src/amu_common/flashinator.o
DEBUG_LAST_HOLDING_TO_FLASH_STRING                src/amu_common/flashinator.o
DEBUG_PRINT_ACK_DROPPED_NOTICE_STRING             src/amu_common/flashinator.o
DEBUG_RECEIVED_END_COMMAND_RESENT_STRING          src/amu_common/flashinator.o
DEBUG_RECEIVED_END_COMMAND_STRING                 src/amu_common/flashinator.o
DEBUG_RELATIVE_ADDR_OOS_STRING                    src/amu_common/flashinator.o
DEBUG_RELATIVE_ADDR_RESEND_STRING                 src/amu_common/flashinator.o
DEBUG_SET_WAIT_STATE_1_FAILED_STRING              src/amu_common/flashinator.o
DEBUG_SET_WAIT_STATE_2_FAILED_STRING              src/amu_common/flashinator.o
DEBUG_START_ADDR_WITHIN_BOOT_STRING               src/amu_common/flashinator.o
DEBUG_STATE_MACHINE_TIMEOUT_STRING                src/amu_common/flashinator.o
DEBUG_UPGRADE_START_NOTICE_STRING                 src/amu_common/flashinator.o
DEBUG_WAIT_FOR_END_COMMAND_STRING                 src/amu_common/flashinator.o
DEBUG_WHBTF_ERASE_PAGE_FAILED_STRING              src/amu_common/flashinator.o
DEBUG_WHBTF_FAILED_STRING                         src/amu_common/flashinator.o
DEBUG_WHBTF_LOCK_FAILED_STRING                    src/amu_common/flashinator.o
DEBUG_WHBTF_SECURITY_BIT_FAILED_STRING            src/amu_common/flashinator.o
DEBUG_WHBTF_SEC_ENABLE_OK_STRING                  src/amu_common/flashinator.o
DEBUG_WHBTF_SEC_WAS_ENABLED_STRING                src/amu_common/flashinator.o
DEBUG_WHBTF_UNLOCK_FAILED_STRING                  src/amu_common/flashinator.o
DEBUG_WRITE_LOW_LEVEL_ZONE_REJECT_STRING          src/amu_common/flashinator.o
DEBUG_WRITE_TO_HOLDING_STRING                     src/amu_common/flashinator.o
DISABLE_UPGRADE_HEX_INFO_CMD                      src/apparent.o
DISABLE_UPGRADE_INFO_CMD                          src/apparent.o
                                                  src/amu_common/flashinator.o
DISPLAY_BOOTLOADER_BANNER_CMD                     src/apparent.o
DISPLAY_HELP_CMD                                  src/apparent.o
DISPLAY_PROGRAM_SIGNATURES_CMD                    src/apparent.o
DROP_UPGRADE_DATA_PACKET_CMD                      src/apparent.o
                                                  src/amu_common/flashinator.o
DROP_UPGRADE_PACKET_ACK_CMD                       src/apparent.o
                                                  src/amu_common/flashinator.o
DebugMon_Handler                                  src/ASF/sam/utils/cmsis/same70/source/templates/gcc/startup_same70.o
Dummy_Handler                                     src/ASF/sam/utils/cmsis/same70/source/templates/gcc/startup_same70.o
EFC_Handler                                       src/ASF/sam/utils/cmsis/same70/source/templates/gcc/startup_same70.o
ENABLE_SECURITY_FAIL_STRING                       src/apparent_strings.o
ENABLE_UPGRADE_HEX_INFO_CMD                       src/apparent.o
                                                  src/amu_common/flashinator.o
ENABLE_UPGRADE_INFO_CMD                           src/apparent.o
                                                  src/amu_common/flashinator.o
END_ACK_STRING                                    src/apparent_strings.o
                                                  src/amu_common/flashinator.o
END_ADDRESS_WITHIN_BOOT_ZONE_NACK_STRING          src/apparent_strings.o
                                                  src/amu_common/flashinator.o
END_OF_FILE_PACKET_DATA                           src/amu_common/flashinator.o
END_OF_INPUT_SIGNATURE_STRING                     src/apparent_strings.o
                                                  src/apparent.o
END_OF_OUTPUT_SIGNATURE_STRING                    src/apparent_strings.o
                                                  src/apparent.o
EOF_RECORD_INVALID_STRUCTURE_NACK_STRING          src/apparent_strings.o
                                                  src/amu_common/flashinator.o
ERASE_PAGE_FAIL_STRING                            src/apparent_strings.o
EXPECTED_DATA_RECORD_NACK_STRING                  src/apparent_strings.o
                                                  src/amu_common/flashinator.o
EXPECTED_END_OF_FILE_RECORD_NACK_STRING           src/apparent_strings.o
                                                  src/amu_common/flashinator.o
EXPECTED_EXT_SEG_ADDR_RECORD_NACK_STRING          src/apparent_strings.o
                                                  src/amu_common/flashinator.o
FAIL_STRING                                       src/apparent_strings.o
                                                  src/apparent.o
FINAL_COMMIT_ACK_STRING                           src/apparent_strings.o
                                                  src/amu_common/flashinator.o
FLASH_ADDRESS_LOW_ZONE_NACK_STRING                src/apparent_strings.o
                                                  src/amu_common/flashinator.o
FLASH_ADDR_CRC_STRING                             src/apparent_strings.o
                                                  src/amu_common/flashinator.o
FLASH_APP_SIGNATURE_ERASE_FAIL_NACK_STRING        src/apparent_strings.o
                                                  src/amu_common/flashinator.o
FLASH_LOAD_ADDRESS_STRING                         src/apparent_strings.o
                                                  src/apparent.o
FLASH_SIGNATURES_STRING                           src/apparent_strings.o
                                                  src/apparent.o
FPU_Handler                                       src/ASF/sam/utils/cmsis/same70/source/templates/gcc/startup_same70.o
GET_AUTONOMOUS_EVENTS_CMD                         src/apparent.o
GMAC_Handler                                      src/ASF/sam/utils/cmsis/same70/source/templates/gcc/startup_same70.o
GMAC_Q1_Handler                                   src/ASF/sam/utils/cmsis/same70/source/templates/gcc/startup_same70.o
GMAC_Q2_Handler                                   src/ASF/sam/utils/cmsis/same70/source/templates/gcc/startup_same70.o
GMAC_Q3_Handler                                   src/ASF/sam/utils/cmsis/same70/source/templates/gcc/startup_same70.o
GMAC_Q4_Handler                                   src/ASF/sam/utils/cmsis/same70/source/templates/gcc/startup_same70.o
GMAC_Q5_Handler                                   src/ASF/sam/utils/cmsis/same70/source/templates/gcc/startup_same70.o
HEX_CHARACTER_NOT_HEX_NACK_STRING                 src/apparent_strings.o
                                                  src/amu_common/flashinator.o
HSMCI_Handler                                     src/ASF/sam/utils/cmsis/same70/source/templates/gcc/startup_same70.o
HardFault_Handler                                 src/ASF/sam/utils/cmsis/same70/source/templates/gcc/startup_same70.o
I2SC0_Handler                                     src/ASF/sam/utils/cmsis/same70/source/templates/gcc/startup_same70.o
I2SC1_Handler                                     src/ASF/sam/utils/cmsis/same70/source/templates/gcc/startup_same70.o
ICM_Handler                                       src/ASF/sam/utils/cmsis/same70/source/templates/gcc/startup_same70.o
INTERIM_HOLDING_BLOCK_COMMIT_FAIL_NACK_STRING     src/apparent_strings.o
                                                  src/amu_common/flashinator.o
INVALID_COMMAND_IN_COMMIT_STATE_NACK_STRING       src/apparent_strings.o
                                                  src/amu_common/flashinator.o
INVALID_COMMAND_STRING                            src/apparent_strings.o
                                                  src/apparent.o
INVAL_CMD_END_TRANSFER_STATE_NACK_STRING          src/apparent_strings.o
                                                  src/amu_common/flashinator.o
INVAL_CMD_IDLE_STATE_NACK_STRING                  src/apparent_strings.o
                                                  src/amu_common/flashinator.o
INVAL_CMD_NEXT_DATA_PKT_STATE_NACK_STRING         src/apparent_strings.o
                                                  src/amu_common/flashinator.o
INVAL_STATE_MACHINE_COMMAND_NACK_STRING           src/apparent_strings.o
                                                  src/amu_common/flashinator.o
ISI_Handler                                       src/ASF/sam/utils/cmsis/same70/source/templates/gcc/startup_same70.o
IS_FLASH_RANGE_ERASED_CMD                         src/apparent.o
IXC_Handler                                       src/ASF/sam/utils/cmsis/same70/source/templates/gcc/startup_same70.o
KEEP_ALIVE_HELLO_CMD                              src/apparent.o
LAST_HOLDING_BLOCK_COMMIT_FAIL_NACK_STRING        src/apparent_strings.o
                                                  src/amu_common/flashinator.o
LAST_TICK_STRING                                  src/apparent_strings.o
LOCK_FAIL_STRING                                  src/apparent_strings.o
MCAN0_INT0_Handler                                src/ASF/sam/utils/cmsis/same70/source/templates/gcc/startup_same70.o
MCAN0_INT1_Handler                                src/ASF/sam/utils/cmsis/same70/source/templates/gcc/startup_same70.o
MCAN1_INT0_Handler                                src/ASF/sam/utils/cmsis/same70/source/templates/gcc/startup_same70.o
MCAN1_INT1_Handler                                src/ASF/sam/utils/cmsis/same70/source/templates/gcc/startup_same70.o
MemManage_Handler                                 src/ASF/sam/utils/cmsis/same70/source/templates/gcc/startup_same70.o
NMI_Handler                                       src/ASF/sam/utils/cmsis/same70/source/templates/gcc/startup_same70.o
NONE_STRING                                       src/apparent_strings.o
                                                  src/apparent.o
                                                  src/amu_common/flashinator.o
NOP_CMD                                           src/apparent.o
PIOA_Handler                                      src/ASF/sam/drivers/pio/pio_handler.o
PIOB_Handler                                      src/ASF/sam/drivers/pio/pio_handler.o
PIOC_Handler                                      src/ASF/sam/drivers/pio/pio_handler.o
PIOD_Handler                                      src/ASF/sam/drivers/pio/pio_handler.o
PIOE_Handler                                      src/ASF/sam/drivers/pio/pio_handler.o
PMC_Handler                                       src/ASF/sam/utils/cmsis/same70/source/templates/gcc/startup_same70.o
PRINT_FH_CMD                                      src/apparent.o
PROGRAM_CMD                                       src/apparent.o
PROGRAM_STRING                                    src/apparent_strings.o
                                                  src/apparent.o
PWM0_Handler                                      src/ASF/sam/utils/cmsis/same70/source/templates/gcc/startup_same70.o
PWM1_Handler                                      src/ASF/sam/utils/cmsis/same70/source/templates/gcc/startup_same70.o
PendSV_Handler                                    src/ASF/sam/utils/cmsis/same70/source/templates/gcc/startup_same70.o
QSPI_Handler                                      src/ASF/sam/utils/cmsis/same70/source/templates/gcc/startup_same70.o
RANK_STRING                                       src/apparent_strings.o
                                                  src/apparent.o
READ_FLASH_BLOCK_CMD                              src/apparent.o
READ_FLASH_LONG_CMD                               src/apparent.o
READ_FLASH_TO_HOLDING_FAIL_NACK_STRING            src/apparent_strings.o
                                                  src/amu_common/flashinator.o
RECEIVE_ACK_STRING                                src/apparent_strings.o
                                                  src/amu_common/flashinator.o
RELATIVE_ADDR_NOT_ZERO_NACK_STRING                src/apparent_strings.o
                                                  src/amu_common/flashinator.o
RELATIVE_ADDR_OUT_OF_SEQUENCE_NACK_STRING         src/apparent_strings.o
                                                  src/amu_common/flashinator.o
RELEASE_STRING                                    src/apparent_strings.o
                                                  src/apparent.o
RESET_CMD                                         src/apparent.o
RESET_INFO_STRING                                 src/apparent_strings.o
                                                  src/apparent.o
RESET_IN_5_SECONDS_STRING                         src/apparent_strings.o
                                                  src/apparent.o
RESET_REASON_BACKUP_STRING                        src/apparent_strings.o
                                                  src/apparent.o
RESET_REASON_GENERAL_STRING                       src/apparent_strings.o
                                                  src/apparent.o
RESET_REASON_NRST_LOW_STRING                      src/apparent_strings.o
                                                  src/apparent.o
RESET_REASON_SOFTWARE_STRING                      src/apparent_strings.o
                                                  src/apparent.o
RESET_REASON_UNKNOWN_STRING                       src/apparent_strings.o
                                                  src/apparent.o
RESET_REASON_WATCHDOG_STRING                      src/apparent_strings.o
                                                  src/apparent.o
RESET_STRING                                      src/apparent_strings.o
                                                  src/apparent.o
RESPONSE_STRING                                   src/apparent_strings.o
                                                  src/apparent.o
                                                  src/amu_common/flashinator.o
RESULT_STRING                                     src/apparent_strings.o
                                                  src/apparent.o
                                                  src/amu_common/flashinator.o
RSTC_Handler                                      src/ASF/sam/utils/cmsis/same70/source/templates/gcc/startup_same70.o
RSWDT_Handler                                     src/ASF/sam/utils/cmsis/same70/source/templates/gcc/startup_same70.o
RTC_Handler                                       src/ASF/sam/utils/cmsis/same70/source/templates/gcc/startup_same70.o
RTT_Handler                                       src/ASF/sam/utils/cmsis/same70/source/templates/gcc/startup_same70.o
Reset_Handler                                     src/ASF/sam/utils/cmsis/same70/source/templates/gcc/startup_same70.o
SAME70_RESET_REASON_STRING                        src/apparent_strings.o
                                                  src/apparent.o
SDRAMC_Handler                                    src/ASF/sam/utils/cmsis/same70/source/templates/gcc/startup_same70.o
SEGMENT_ADDRESS_INVAL_LENGTH_NACK_STRING          src/apparent_strings.o
                                                  src/amu_common/flashinator.o
SEG_ADDR_BUT_HOLD_BUFF_NOT_EMPTY_NACK_STRING      src/apparent_strings.o
                                                  src/amu_common/flashinator.o
SEG_ADDR_INVALID_LENGTH_NACK_STRING               src/apparent_strings.o
                                                  src/amu_common/flashinator.o
SET_FH_PATTERN_CMD                                src/apparent.o
SET_LOCAL_TESTING_CMD                             src/apparent.o
SET_SIGNATURE_RESULT_STRING                       src/apparent_strings.o
SM_IDLE_STATE_STRING                              src/apparent_strings.o
                                                  src/amu_common/flashinator.o
SM_INVALID_STATE_STRING                           src/apparent_strings.o
                                                  src/amu_common/flashinator.o
SM_WAIT_APP_FINAL_COMMIT_STATE_STRING             src/apparent_strings.o
                                                  src/amu_common/flashinator.o
SM_WAIT_END_TRANSFER_STATE_STRING                 src/apparent_strings.o
                                                  src/amu_common/flashinator.o
SM_WAIT_NEXT_DATA_PACKET_STATE_STRING             src/apparent_strings.o
                                                  src/amu_common/flashinator.o
SPI0_Handler                                      src/ASF/sam/utils/cmsis/same70/source/templates/gcc/startup_same70.o
SPI1_Handler                                      src/ASF/sam/utils/cmsis/same70/source/templates/gcc/startup_same70.o
SSC_Handler                                       src/ASF/sam/utils/cmsis/same70/source/templates/gcc/startup_same70.o
START_ACK_STRING                                  src/apparent_strings.o
                                                  src/amu_common/flashinator.o
START_ADDRESS_WITHIN_BOOT_ZONE_NACK_STRING        src/apparent_strings.o
                                                  src/amu_common/flashinator.o
START_EXT_SEG_ADDR_INVALID_NACK_STRING            src/apparent_strings.o
                                                  src/amu_common/flashinator.o
STATE_STRING                                      src/apparent_strings.o
                                                  src/amu_common/flashinator.o
STATS_ACK_STRING                                  src/apparent_strings.o
                                                  src/amu_common/flashinator.o
SUCCESS_STRING                                    src/apparent_strings.o
                                                  src/apparent.o
                                                  src/amu_common/flashinator.o
SUPC_Handler                                      src/ASF/sam/utils/cmsis/same70/source/templates/gcc/startup_same70.o
SVC_Handler                                       src/ASF/sam/utils/cmsis/same70/source/templates/gcc/startup_same70.o
SysTick_Handler                                   src/main.o
                                                  src/ASF/sam/utils/cmsis/same70/source/templates/gcc/startup_same70.o
SystemCoreClock                                   src/ASF/sam/utils/cmsis/same70/source/templates/system_same70.o
SystemCoreClockUpdate                             src/ASF/sam/utils/cmsis/same70/source/templates/system_same70.o
                                                  src/ASF/common/services/clock/same70/sysclk.o
SystemInit                                        src/ASF/sam/utils/cmsis/same70/source/templates/system_same70.o
TC0_Handler                                       src/ASF/sam/utils/cmsis/same70/source/templates/gcc/startup_same70.o
TC10_Handler                                      src/ASF/sam/utils/cmsis/same70/source/templates/gcc/startup_same70.o
TC11_Handler                                      src/ASF/sam/utils/cmsis/same70/source/templates/gcc/startup_same70.o
TC1_Handler                                       src/ASF/sam/utils/cmsis/same70/source/templates/gcc/startup_same70.o
TC2_Handler                                       src/ASF/sam/utils/cmsis/same70/source/templates/gcc/startup_same70.o
TC3_Handler                                       src/ASF/sam/utils/cmsis/same70/source/templates/gcc/startup_same70.o
TC4_Handler                                       src/ASF/sam/utils/cmsis/same70/source/templates/gcc/startup_same70.o
TC5_Handler                                       src/ASF/sam/utils/cmsis/same70/source/templates/gcc/startup_same70.o
TC6_Handler                                       src/ASF/sam/utils/cmsis/same70/source/templates/gcc/startup_same70.o
TC7_Handler                                       src/ASF/sam/utils/cmsis/same70/source/templates/gcc/startup_same70.o
TC8_Handler                                       src/ASF/sam/utils/cmsis/same70/source/templates/gcc/startup_same70.o
TC9_Handler                                       src/ASF/sam/utils/cmsis/same70/source/templates/gcc/startup_same70.o
TRNG_Handler                                      src/ASF/sam/utils/cmsis/same70/source/templates/gcc/startup_same70.o
TWIHS0_Handler                                    src/ASF/sam/utils/cmsis/same70/source/templates/gcc/startup_same70.o
TWIHS1_Handler                                    src/ASF/sam/utils/cmsis/same70/source/templates/gcc/startup_same70.o
TWIHS2_Handler                                    src/ASF/sam/utils/cmsis/same70/source/templates/gcc/startup_same70.o
UART0_Handler                                     src/ASF/sam/utils/cmsis/same70/source/templates/gcc/startup_same70.o
UART1_Handler                                     src/ASF/sam/utils/cmsis/same70/source/templates/gcc/startup_same70.o
UART2_Handler                                     src/ASF/sam/utils/cmsis/same70/source/templates/gcc/startup_same70.o
UART3_Handler                                     src/ASF/sam/utils/cmsis/same70/source/templates/gcc/startup_same70.o
UART4_Handler                                     src/ASF/sam/utils/cmsis/same70/source/templates/gcc/startup_same70.o
UNEXPECTED_SLA_RECORD_NACK_STRING                 src/apparent_strings.o
                                                  src/amu_common/flashinator.o
UNLOCK_FAIL_STRING                                src/apparent_strings.o
UPGRADE_ARG_STRING_LOOKUP                         src/amu_common/flashinator.o
UPGRADE_CMD                                       src/apparent.o
                                                  src/amu_common/flashinator.o
UPGRADE_PACKET_SIZE_STRING                        src/apparent_strings.o
                                                  src/apparent.o
UPGRADE_RESPONSE_STRING_LOOKUP                    src/amu_common/flashinator.o
UPGRADE_SM_STATE_STRING_LOOKUP                    src/amu_common/flashinator.o
UPGRADE_STATE_MACHINE_STRING                      src/apparent_strings.o
                                                  src/amu_common/flashinator.o
UPTIME_STRING                                     src/apparent_strings.o
                                                  src/apparent.o
USART0_Handler                                    src/ASF/sam/utils/cmsis/same70/source/templates/gcc/startup_same70.o
USART1_Handler                                    src/ASF/sam/utils/cmsis/same70/source/templates/gcc/startup_same70.o
USART2_Handler                                    src/ASF/sam/utils/cmsis/same70/source/templates/gcc/startup_same70.o
USBHS_Handler                                     src/ASF/sam/utils/cmsis/same70/source/templates/gcc/startup_same70.o
UsageFault_Handler                                src/ASF/sam/utils/cmsis/same70/source/templates/gcc/startup_same70.o
WDT_Handler                                       src/ASF/sam/utils/cmsis/same70/source/templates/gcc/startup_same70.o
WRITE_FLASH_BLOCK_CMD                             src/apparent.o
WRITE_FLASH_LONG_CMD                              src/apparent.o
WRITE_HOLD_TO_FLASH_GENERIC_FAIL_NACK_STRING      src/apparent_strings.o
                                                  src/amu_common/flashinator.o
WRITE_LONG_FAIL_STRING                            src/apparent_strings.o
XDMAC_Handler                                     src/ASF/sam/utils/cmsis/same70/source/templates/gcc/startup_same70.o
XFER_COMPONENT_CHECKSUM_FAIL_NACK_STRING          src/apparent_strings.o
                                                  src/amu_common/flashinator.o
XFER_COMPONENT_EVEN_LENGTH_NACK_STRING            src/apparent_strings.o
                                                  src/amu_common/flashinator.o
XFER_COMPONENT_HEX_CONVERT_FAIL_NACK_STRING       src/apparent_strings.o
                                                  src/amu_common/flashinator.o
XFER_COMPONENT_MISSING_COLON_NACK_STRING          src/apparent_strings.o
                                                  src/amu_common/flashinator.o
XFER_PACKET_COMPONENT_TOO_LONG_NACK_STRING        src/apparent_strings.o
                                                  src/amu_common/flashinator.o
_Balloc                                           c:/program files (x86)/atmel/studio/7.0/toolchain/arm/arm-gnu-toolchain/bin/../lib/gcc/arm-none-eabi/6.3.1/../../../../arm-none-eabi/lib/thumb/v7e-m\libc.a(lib_a-mprec.o)
                                                  c:/program files (x86)/atmel/studio/7.0/toolchain/arm/arm-gnu-toolchain/bin/../lib/gcc/arm-none-eabi/6.3.1/../../../../arm-none-eabi/lib/thumb/v7e-m\libc.a(lib_a-dtoa.o)
_Bfree                                            c:/program files (x86)/atmel/studio/7.0/toolchain/arm/arm-gnu-toolchain/bin/../lib/gcc/arm-none-eabi/6.3.1/../../../../arm-none-eabi/lib/thumb/v7e-m\libc.a(lib_a-mprec.o)
                                                  c:/program files (x86)/atmel/studio/7.0/toolchain/arm/arm-gnu-toolchain/bin/../lib/gcc/arm-none-eabi/6.3.1/../../../../arm-none-eabi/lib/thumb/v7e-m\libc.a(lib_a-dtoa.o)
_Jv_RegisterClasses                               c:/program files (x86)/atmel/studio/7.0/toolchain/arm/arm-gnu-toolchain/bin/../lib/gcc/arm-none-eabi/6.3.1/thumb/v7e-m/crtbegin.o
_PathLocale                                       c:/program files (x86)/atmel/studio/7.0/toolchain/arm/arm-gnu-toolchain/bin/../lib/gcc/arm-none-eabi/6.3.1/../../../../arm-none-eabi/lib/thumb/v7e-m\libc.a(lib_a-locale.o)
__adddf3                                          c:/program files (x86)/atmel/studio/7.0/toolchain/arm/arm-gnu-toolchain/bin/../lib/gcc/arm-none-eabi/6.3.1/thumb/v7e-m\libgcc.a(_arm_addsubdf3.o)
__aeabi_cdcmpeq                                   c:/program files (x86)/atmel/studio/7.0/toolchain/arm/arm-gnu-toolchain/bin/../lib/gcc/arm-none-eabi/6.3.1/thumb/v7e-m\libgcc.a(_arm_cmpdf2.o)
__aeabi_cdcmple                                   c:/program files (x86)/atmel/studio/7.0/toolchain/arm/arm-gnu-toolchain/bin/../lib/gcc/arm-none-eabi/6.3.1/thumb/v7e-m\libgcc.a(_arm_cmpdf2.o)
__aeabi_cdrcmple                                  c:/program files (x86)/atmel/studio/7.0/toolchain/arm/arm-gnu-toolchain/bin/../lib/gcc/arm-none-eabi/6.3.1/thumb/v7e-m\libgcc.a(_arm_cmpdf2.o)
__aeabi_d2iz                                      c:/program files (x86)/atmel/studio/7.0/toolchain/arm/arm-gnu-toolchain/bin/../lib/gcc/arm-none-eabi/6.3.1/thumb/v7e-m\libgcc.a(_arm_fixdfsi.o)
                                                  c:/program files (x86)/atmel/studio/7.0/toolchain/arm/arm-gnu-toolchain/bin/../lib/gcc/arm-none-eabi/6.3.1/../../../../arm-none-eabi/lib/thumb/v7e-m\libc.a(lib_a-dtoa.o)
__aeabi_dadd                                      c:/program files (x86)/atmel/studio/7.0/toolchain/arm/arm-gnu-toolchain/bin/../lib/gcc/arm-none-eabi/6.3.1/thumb/v7e-m\libgcc.a(_arm_addsubdf3.o)
                                                  c:/program files (x86)/atmel/studio/7.0/toolchain/arm/arm-gnu-toolchain/bin/../lib/gcc/arm-none-eabi/6.3.1/../../../../arm-none-eabi/lib/thumb/v7e-m\libc.a(lib_a-dtoa.o)
__aeabi_dcmpeq                                    c:/program files (x86)/atmel/studio/7.0/toolchain/arm/arm-gnu-toolchain/bin/../lib/gcc/arm-none-eabi/6.3.1/thumb/v7e-m\libgcc.a(_arm_cmpdf2.o)
                                                  c:/program files (x86)/atmel/studio/7.0/toolchain/arm/arm-gnu-toolchain/bin/../lib/gcc/arm-none-eabi/6.3.1/../../../../arm-none-eabi/lib/thumb/v7e-m\libc.a(lib_a-dtoa.o)
                                                  c:/program files (x86)/atmel/studio/7.0/toolchain/arm/arm-gnu-toolchain/bin/../lib/gcc/arm-none-eabi/6.3.1/../../../../arm-none-eabi/lib/thumb/v7e-m\libc.a(lib_a-svfprintf.o)
__aeabi_dcmpge                                    c:/program files (x86)/atmel/studio/7.0/toolchain/arm/arm-gnu-toolchain/bin/../lib/gcc/arm-none-eabi/6.3.1/thumb/v7e-m\libgcc.a(_arm_cmpdf2.o)
                                                  c:/program files (x86)/atmel/studio/7.0/toolchain/arm/arm-gnu-toolchain/bin/../lib/gcc/arm-none-eabi/6.3.1/../../../../arm-none-eabi/lib/thumb/v7e-m\libc.a(lib_a-dtoa.o)
__aeabi_dcmpgt                                    c:/program files (x86)/atmel/studio/7.0/toolchain/arm/arm-gnu-toolchain/bin/../lib/gcc/arm-none-eabi/6.3.1/thumb/v7e-m\libgcc.a(_arm_cmpdf2.o)
                                                  c:/program files (x86)/atmel/studio/7.0/toolchain/arm/arm-gnu-toolchain/bin/../lib/gcc/arm-none-eabi/6.3.1/../../../../arm-none-eabi/lib/thumb/v7e-m\libc.a(lib_a-dtoa.o)
__aeabi_dcmple                                    c:/program files (x86)/atmel/studio/7.0/toolchain/arm/arm-gnu-toolchain/bin/../lib/gcc/arm-none-eabi/6.3.1/thumb/v7e-m\libgcc.a(_arm_cmpdf2.o)
                                                  c:/program files (x86)/atmel/studio/7.0/toolchain/arm/arm-gnu-toolchain/bin/../lib/gcc/arm-none-eabi/6.3.1/../../../../arm-none-eabi/lib/thumb/v7e-m\libc.a(lib_a-svfprintf.o)
__aeabi_dcmplt                                    c:/program files (x86)/atmel/studio/7.0/toolchain/arm/arm-gnu-toolchain/bin/../lib/gcc/arm-none-eabi/6.3.1/thumb/v7e-m\libgcc.a(_arm_cmpdf2.o)
                                                  c:/program files (x86)/atmel/studio/7.0/toolchain/arm/arm-gnu-toolchain/bin/../lib/gcc/arm-none-eabi/6.3.1/../../../../arm-none-eabi/lib/thumb/v7e-m\libc.a(lib_a-dtoa.o)
                                                  c:/program files (x86)/atmel/studio/7.0/toolchain/arm/arm-gnu-toolchain/bin/../lib/gcc/arm-none-eabi/6.3.1/../../../../arm-none-eabi/lib/thumb/v7e-m\libc.a(lib_a-svfprintf.o)
__aeabi_dcmpun                                    c:/program files (x86)/atmel/studio/7.0/toolchain/arm/arm-gnu-toolchain/bin/../lib/gcc/arm-none-eabi/6.3.1/thumb/v7e-m\libgcc.a(_arm_unorddf2.o)
                                                  c:/program files (x86)/atmel/studio/7.0/toolchain/arm/arm-gnu-toolchain/bin/../lib/gcc/arm-none-eabi/6.3.1/../../../../arm-none-eabi/lib/thumb/v7e-m\libc.a(lib_a-svfprintf.o)
__aeabi_ddiv                                      c:/program files (x86)/atmel/studio/7.0/toolchain/arm/arm-gnu-toolchain/bin/../lib/gcc/arm-none-eabi/6.3.1/thumb/v7e-m\libgcc.a(_arm_muldivdf3.o)
                                                  c:/program files (x86)/atmel/studio/7.0/toolchain/arm/arm-gnu-toolchain/bin/../lib/gcc/arm-none-eabi/6.3.1/../../../../arm-none-eabi/lib/thumb/v7e-m\libc.a(lib_a-mprec.o)
                                                  c:/program files (x86)/atmel/studio/7.0/toolchain/arm/arm-gnu-toolchain/bin/../lib/gcc/arm-none-eabi/6.3.1/../../../../arm-none-eabi/lib/thumb/v7e-m\libc.a(lib_a-dtoa.o)
__aeabi_dmul                                      c:/program files (x86)/atmel/studio/7.0/toolchain/arm/arm-gnu-toolchain/bin/../lib/gcc/arm-none-eabi/6.3.1/thumb/v7e-m\libgcc.a(_arm_muldivdf3.o)
                                                  c:/program files (x86)/atmel/studio/7.0/toolchain/arm/arm-gnu-toolchain/bin/../lib/gcc/arm-none-eabi/6.3.1/../../../../arm-none-eabi/lib/thumb/v7e-m\libc.a(lib_a-mprec.o)
                                                  c:/program files (x86)/atmel/studio/7.0/toolchain/arm/arm-gnu-toolchain/bin/../lib/gcc/arm-none-eabi/6.3.1/../../../../arm-none-eabi/lib/thumb/v7e-m\libc.a(lib_a-dtoa.o)
__aeabi_drsub                                     c:/program files (x86)/atmel/studio/7.0/toolchain/arm/arm-gnu-toolchain/bin/../lib/gcc/arm-none-eabi/6.3.1/thumb/v7e-m\libgcc.a(_arm_addsubdf3.o)
__aeabi_dsub                                      c:/program files (x86)/atmel/studio/7.0/toolchain/arm/arm-gnu-toolchain/bin/../lib/gcc/arm-none-eabi/6.3.1/thumb/v7e-m\libgcc.a(_arm_addsubdf3.o)
                                                  c:/program files (x86)/atmel/studio/7.0/toolchain/arm/arm-gnu-toolchain/bin/../lib/gcc/arm-none-eabi/6.3.1/../../../../arm-none-eabi/lib/thumb/v7e-m\libc.a(lib_a-dtoa.o)
__aeabi_f2d                                       c:/program files (x86)/atmel/studio/7.0/toolchain/arm/arm-gnu-toolchain/bin/../lib/gcc/arm-none-eabi/6.3.1/thumb/v7e-m\libgcc.a(_arm_addsubdf3.o)
__aeabi_i2d                                       c:/program files (x86)/atmel/studio/7.0/toolchain/arm/arm-gnu-toolchain/bin/../lib/gcc/arm-none-eabi/6.3.1/thumb/v7e-m\libgcc.a(_arm_addsubdf3.o)
                                                  c:/program files (x86)/atmel/studio/7.0/toolchain/arm/arm-gnu-toolchain/bin/../lib/gcc/arm-none-eabi/6.3.1/../../../../arm-none-eabi/lib/thumb/v7e-m\libc.a(lib_a-dtoa.o)
__aeabi_idiv0                                     c:/program files (x86)/atmel/studio/7.0/toolchain/arm/arm-gnu-toolchain/bin/../lib/gcc/arm-none-eabi/6.3.1/thumb/v7e-m\libgcc.a(_dvmd_tls.o)
__aeabi_l2d                                       c:/program files (x86)/atmel/studio/7.0/toolchain/arm/arm-gnu-toolchain/bin/../lib/gcc/arm-none-eabi/6.3.1/thumb/v7e-m\libgcc.a(_arm_addsubdf3.o)
__aeabi_ldiv0                                     c:/program files (x86)/atmel/studio/7.0/toolchain/arm/arm-gnu-toolchain/bin/../lib/gcc/arm-none-eabi/6.3.1/thumb/v7e-m\libgcc.a(_dvmd_tls.o)
                                                  c:/program files (x86)/atmel/studio/7.0/toolchain/arm/arm-gnu-toolchain/bin/../lib/gcc/arm-none-eabi/6.3.1/thumb/v7e-m\libgcc.a(_aeabi_uldivmod.o)
__aeabi_ui2d                                      c:/program files (x86)/atmel/studio/7.0/toolchain/arm/arm-gnu-toolchain/bin/../lib/gcc/arm-none-eabi/6.3.1/thumb/v7e-m\libgcc.a(_arm_addsubdf3.o)
                                                  c:/program files (x86)/atmel/studio/7.0/toolchain/arm/arm-gnu-toolchain/bin/../lib/gcc/arm-none-eabi/6.3.1/../../../../arm-none-eabi/lib/thumb/v7e-m\libc.a(lib_a-dtoa.o)
__aeabi_ul2d                                      c:/program files (x86)/atmel/studio/7.0/toolchain/arm/arm-gnu-toolchain/bin/../lib/gcc/arm-none-eabi/6.3.1/thumb/v7e-m\libgcc.a(_arm_addsubdf3.o)
__aeabi_uldivmod                                  c:/program files (x86)/atmel/studio/7.0/toolchain/arm/arm-gnu-toolchain/bin/../lib/gcc/arm-none-eabi/6.3.1/thumb/v7e-m\libgcc.a(_aeabi_uldivmod.o)
                                                  c:/program files (x86)/atmel/studio/7.0/toolchain/arm/arm-gnu-toolchain/bin/../lib/gcc/arm-none-eabi/6.3.1/../../../../arm-none-eabi/lib/thumb/v7e-m\libc.a(lib_a-svfiprintf.o)
                                                  c:/program files (x86)/atmel/studio/7.0/toolchain/arm/arm-gnu-toolchain/bin/../lib/gcc/arm-none-eabi/6.3.1/../../../../arm-none-eabi/lib/thumb/v7e-m\libc.a(lib_a-vfiprintf.o)
                                                  c:/program files (x86)/atmel/studio/7.0/toolchain/arm/arm-gnu-toolchain/bin/../lib/gcc/arm-none-eabi/6.3.1/../../../../arm-none-eabi/lib/thumb/v7e-m\libc.a(lib_a-svfprintf.o)
__any_on                                          c:/program files (x86)/atmel/studio/7.0/toolchain/arm/arm-gnu-toolchain/bin/../lib/gcc/arm-none-eabi/6.3.1/../../../../arm-none-eabi/lib/thumb/v7e-m\libc.a(lib_a-mprec.o)
__ascii_mbtowc                                    c:/program files (x86)/atmel/studio/7.0/toolchain/arm/arm-gnu-toolchain/bin/../lib/gcc/arm-none-eabi/6.3.1/../../../../arm-none-eabi/lib/thumb/v7e-m\libc.a(lib_a-mbtowc_r.o)
